{
  "address": "0x79FB5ab1b38A50C5323a09D5F433939f4f7A74B3",
  "abi": [
    {
      "inputs": [
        {
          "internalType": "string",
          "name": "_name",
          "type": "string"
        },
        {
          "internalType": "address",
          "name": "_want",
          "type": "address"
        },
        {
          "internalType": "address",
          "name": "_crvethPool",
          "type": "address"
        },
        {
          "internalType": "address",
          "name": "_cvxethPool",
          "type": "address"
        },
        {
          "internalType": "address",
          "name": "_weth",
          "type": "address"
        },
        {
          "internalType": "uint256",
          "name": "_pid",
          "type": "uint256"
        },
        {
          "internalType": "uint256",
          "name": "_coinCount",
          "type": "uint256"
        },
        {
          "internalType": "contract IConvexVault",
          "name": "_convexVault",
          "type": "address"
        },
        {
          "internalType": "address",
          "name": "_stableSwapPool",
          "type": "address"
        },
        {
          "internalType": "address",
          "name": "_controller",
          "type": "address"
        },
        {
          "internalType": "address",
          "name": "_manager",
          "type": "address"
        },
        {
          "internalType": "address[]",
          "name": "_routerArray",
          "type": "address[]"
        }
      ],
      "stateMutability": "nonpayable",
      "type": "constructor"
    },
    {
      "inputs": [],
      "name": "ONE_HUNDRED_PERCENT",
      "outputs": [
        {
          "internalType": "uint256",
          "name": "",
          "type": "uint256"
        }
      ],
      "stateMutability": "view",
      "type": "function"
    },
    {
      "inputs": [
        {
          "internalType": "contract IERC20",
          "name": "_token",
          "type": "address"
        },
        {
          "internalType": "address",
          "name": "_spender",
          "type": "address"
        },
        {
          "internalType": "uint256",
          "name": "_amount",
          "type": "uint256"
        }
      ],
      "name": "approveForSpender",
      "outputs": [],
      "stateMutability": "nonpayable",
      "type": "function"
    },
    {
      "inputs": [],
      "name": "balanceOf",
      "outputs": [
        {
          "internalType": "uint256",
          "name": "",
          "type": "uint256"
        }
      ],
      "stateMutability": "view",
      "type": "function"
    },
    {
      "inputs": [],
      "name": "balanceOfPool",
      "outputs": [
        {
          "internalType": "uint256",
          "name": "",
          "type": "uint256"
        }
      ],
      "stateMutability": "view",
      "type": "function"
    },
    {
      "inputs": [],
      "name": "balanceOfWant",
      "outputs": [
        {
          "internalType": "uint256",
          "name": "",
          "type": "uint256"
        }
      ],
      "stateMutability": "view",
      "type": "function"
    },
    {
      "inputs": [],
      "name": "controller",
      "outputs": [
        {
          "internalType": "address",
          "name": "",
          "type": "address"
        }
      ],
      "stateMutability": "view",
      "type": "function"
    },
    {
      "inputs": [],
      "name": "convexVault",
      "outputs": [
        {
          "internalType": "contract IConvexVault",
          "name": "",
          "type": "address"
        }
      ],
      "stateMutability": "view",
      "type": "function"
    },
    {
      "inputs": [],
      "name": "crv",
      "outputs": [
        {
          "internalType": "address",
          "name": "",
          "type": "address"
        }
      ],
      "stateMutability": "view",
      "type": "function"
    },
    {
      "inputs": [],
      "name": "crvRewards",
      "outputs": [
        {
          "internalType": "contract IConvexRewards",
          "name": "",
          "type": "address"
        }
      ],
      "stateMutability": "view",
      "type": "function"
    },
    {
      "inputs": [],
      "name": "crvethPool",
      "outputs": [
        {
          "internalType": "address",
          "name": "",
          "type": "address"
        }
      ],
      "stateMutability": "view",
      "type": "function"
    },
    {
      "inputs": [],
      "name": "cvx",
      "outputs": [
        {
          "internalType": "address",
          "name": "",
          "type": "address"
        }
      ],
      "stateMutability": "view",
      "type": "function"
    },
    {
      "inputs": [],
      "name": "cvxethPool",
      "outputs": [
        {
          "internalType": "address",
          "name": "",
          "type": "address"
        }
      ],
      "stateMutability": "view",
      "type": "function"
    },
    {
      "inputs": [
        {
          "internalType": "uint256",
          "name": "",
          "type": "uint256"
        }
      ],
      "name": "decimalMultiples",
      "outputs": [
        {
          "internalType": "uint8",
          "name": "",
          "type": "uint8"
        }
      ],
      "stateMutability": "view",
      "type": "function"
    },
    {
      "inputs": [],
      "name": "deposit",
      "outputs": [],
      "stateMutability": "nonpayable",
      "type": "function"
    },
    {
      "inputs": [
        {
          "internalType": "uint256[]",
          "name": "_estimates",
          "type": "uint256[]"
        }
      ],
      "name": "harvest",
      "outputs": [],
      "stateMutability": "nonpayable",
      "type": "function"
    },
    {
      "inputs": [],
      "name": "manager",
      "outputs": [
        {
          "internalType": "contract IManager",
          "name": "",
          "type": "address"
        }
      ],
      "stateMutability": "view",
      "type": "function"
    },
    {
      "inputs": [],
      "name": "name",
      "outputs": [
        {
          "internalType": "string",
          "name": "",
          "type": "string"
        }
      ],
      "stateMutability": "view",
      "type": "function"
    },
    {
      "inputs": [],
      "name": "pid",
      "outputs": [
        {
          "internalType": "uint256",
          "name": "",
          "type": "uint256"
        }
      ],
      "stateMutability": "view",
      "type": "function"
    },
    {
      "inputs": [],
      "name": "router",
      "outputs": [
        {
          "internalType": "contract ISwap",
          "name": "",
          "type": "address"
        }
      ],
      "stateMutability": "view",
      "type": "function"
    },
    {
      "inputs": [
        {
          "internalType": "uint256",
          "name": "",
          "type": "uint256"
        }
      ],
      "name": "routerArray",
      "outputs": [
        {
          "internalType": "address",
          "name": "",
          "type": "address"
        }
      ],
      "stateMutability": "view",
      "type": "function"
    },
    {
      "inputs": [
        {
          "internalType": "uint256",
          "name": "_routerIndex",
          "type": "uint256"
        }
      ],
      "name": "setDefaultRouter",
      "outputs": [],
      "stateMutability": "nonpayable",
      "type": "function"
    },
    {
      "inputs": [
        {
          "internalType": "address[]",
          "name": "_routerArray",
          "type": "address[]"
        },
        {
          "internalType": "address[]",
          "name": "_tokenArray",
          "type": "address[]"
        }
      ],
      "name": "setRouter",
      "outputs": [],
      "stateMutability": "nonpayable",
      "type": "function"
    },
    {
      "inputs": [],
      "name": "skim",
      "outputs": [],
      "stateMutability": "nonpayable",
      "type": "function"
    },
    {
      "inputs": [],
      "name": "stableSwapPool",
      "outputs": [
        {
          "internalType": "address",
          "name": "",
          "type": "address"
        }
      ],
      "stateMutability": "view",
      "type": "function"
    },
    {
      "inputs": [
        {
          "internalType": "uint256",
          "name": "",
          "type": "uint256"
        }
      ],
      "name": "tokens",
      "outputs": [
        {
          "internalType": "address",
          "name": "",
          "type": "address"
        }
      ],
      "stateMutability": "view",
      "type": "function"
    },
    {
      "inputs": [],
      "name": "want",
      "outputs": [
        {
          "internalType": "address",
          "name": "",
          "type": "address"
        }
      ],
      "stateMutability": "view",
      "type": "function"
    },
    {
      "inputs": [],
      "name": "weth",
      "outputs": [
        {
          "internalType": "address",
          "name": "",
          "type": "address"
        }
      ],
      "stateMutability": "view",
      "type": "function"
    },
    {
      "inputs": [
        {
          "internalType": "uint256",
          "name": "_amount",
          "type": "uint256"
        }
      ],
      "name": "withdraw",
      "outputs": [],
      "stateMutability": "nonpayable",
      "type": "function"
    },
    {
      "inputs": [
        {
          "internalType": "address",
          "name": "_asset",
          "type": "address"
        }
      ],
      "name": "withdraw",
      "outputs": [],
      "stateMutability": "nonpayable",
      "type": "function"
    },
    {
      "inputs": [],
      "name": "withdrawAll",
      "outputs": [],
      "stateMutability": "nonpayable",
      "type": "function"
    }
  ],
  "transactionHash": "0x023893719a4a2c4a3b0c9f39e80a61df78e2ab50e80d0027a64f8119ebb1bd19",
  "args": [
    "NumisMe Convex Strategy: CVXETHCRV",
    "0x3A283D9c08E8b55966afb64C515f5143cf907611",
    "0x8301AE4fc9c624d1D396cbDAa1ed877821D7C511",
    "0xB576491F1E6e5E62f1d8F26062Ee822B40B0E0d4",
    "0xC02aaA39b223FE8D0A0e5C4F27eAD9083C756Cc2",
    64,
    2,
    "0xF403C135812408BFbE8713b5A23a04b3D48AAE31",
    "0xB576491F1E6e5E62f1d8F26062Ee822B40B0E0d4",
    "0x6dB53Ed036135f2c299d54353b2ae7e748a85628",
    "0xec5CdD1a415bE0b1d513cc420e4fC80CA3ca7590",
    [
      "0xd9e1cE17f2641f24aE83637ab66a2cca9C378B9F",
      "0x7a250d5630B4cF539739dF2C5dAcb4c659F2488D"
    ]
  ],
  "numDeployments": 1,
  "solcInputHash": "2f52fc9e2c9436dbe54a500dcc1ea2eb",
  "bytecode": "0x6102006040523480156200001257600080fd5b5060405162003a8238038062003a8283398181016040526101808110156200003957600080fd5b81019080805160405193929190846401000000008211156200005a57600080fd5b9083019060208201858111156200007057600080fd5b82516401000000008111828201881017156200008b57600080fd5b82525081516020918201929091019080838360005b83811015620000ba578181015183820152602001620000a0565b50505050905090810190601f168015620000e85780820380516001836020036101000a031916815260200191505b5060408181526020830151908301516060840151608085015160a086015160c087015160e08801516101008901516101208a01516101408b0151610160909b018051999d989c979b969a95999498939792969195919491939291846401000000008211156200015657600080fd5b9083019060208201858111156200016c57600080fd5b82518660208202830111640100000000821117156200018a57600080fd5b82525081516020918201928201910280838360005b83811015620001b95781810151838201526020016200019f565b505050509050016040525050508b83838d8b858560009080519060200190620001e492919062000fa3565b506001600160601b0319606084811b821660805286811b821660c05285811b821660e05283901b1660a052805162000263576040805162461bcd60e51b815260206004820152601e60248201527f4d75737420696e707574206174206c65617374206f6e6520726f757465720000604482015290519081900360640190fd5b80516200027890600190602084019062001028565b50806000815181106200028757fe5b6020026020010151600260006101000a8154816001600160a01b0302191690836001600160a01b0316021790555060005b81518110156200034057620002fc828281518110620002d357fe5b60200260200101516000856001600160a01b03166200083a60201b6200130f179092919060201c565b620003378282815181106200030d57fe5b6020026020010151600019856001600160a01b03166200083a60201b6200130f179092919060201c565b600101620002b8565b505050505050508560021480620003575750856003145b620003a9576040805162461bcd60e51b815260206004820152601b60248201527f5f636f696e436f756e742073686f756c642062652032206f7220330000000000604482015290519081900360640190fd5b6001600160a01b038516620003f5576040805162461bcd60e51b815260206004820152600d60248201526c0857d8dbdb9d995e15985d5b1d609a1b604482015290519081900360640190fd5b6001600160a01b03841662000444576040805162461bcd60e51b815260206004820152601060248201526f0857dcdd18589b1954ddd85c141bdbdb60821b604482015290519081900360640190fd5b6000856001600160a01b0316631526fe27896040518263ffffffff1660e01b81526004018082815260200191505060c06040518083038186803b1580156200048b57600080fd5b505afa158015620004a0573d6000803e3d6000fd5b505050506040513d60c0811015620004b757600080fd5b50606001516040805163c661065760e01b81526001600482015290519192506001600160a01b038d169163c661065791602480820192602092909190829003018186803b1580156200050857600080fd5b505afa1580156200051d573d6000803e3d6000fd5b505050506040513d60208110156200053457600080fd5b505160601b6001600160601b031916610100526040805163c661065760e01b81526001600482015290516001600160a01b038c169163c6610657916024808301926020929190829003018186803b1580156200058f57600080fd5b505afa158015620005a4573d6000803e3d6000fd5b505050506040513d6020811015620005bb57600080fd5b50516001600160601b0319606091821b8116610120526101808a905287821b81166101a05282821b81166101c05286821b81166101e0528c821b811661014052908b901b166101605260005b87811015620007ca576003866001600160a01b031663c6610657836040518263ffffffff1660e01b81526004018082815260200191505060206040518083038186803b1580156200065757600080fd5b505afa1580156200066c573d6000803e3d6000fd5b505050506040513d60208110156200068357600080fd5b505181546001810183556000928352602090922090910180546001600160a01b0319166001600160a01b03909216919091179055600380546004919083908110620006ca57fe5b600091825260209182902001546040805163313ce56760e01b815290516001600160a01b039092169263313ce56792600480840193829003018186803b1580156200071457600080fd5b505afa15801562000729573d6000803e3d6000fd5b505050506040513d60208110156200074057600080fd5b505181546001810183556000928352602092839020928104909201805460ff6012939093038316601f9094166101000a938402929093021990921617905560038054620007c19188916000199190859081106200079957fe5b600091825260209182902001546001600160a01b03169291906200130f6200083a821b17901c565b60010162000607565b50620007f2866000198e6001600160a01b03166200083a60201b6200130f179092919060201c565b62000819856000198e6001600160a01b03166200083a60201b6200130f179092919060201c565b620008278b8b84846200095e565b50505050505050505050505050620010c6565b801580620008c4575060408051636eb1769f60e11b81523060048201526001600160a01b03848116602483015291519185169163dd62ed3e91604480820192602092909190829003018186803b1580156200089457600080fd5b505afa158015620008a9573d6000803e3d6000fd5b505050506040513d6020811015620008c057600080fd5b5051155b620009015760405162461bcd60e51b815260040180806020018281038252603681526020018062003a4c6036913960400191505060405180910390fd5b604080516001600160a01b038416602482015260448082018490528251808303909101815260649091019091526020810180516001600160e01b0390811663095ea7b360e01b179091526200095991859162000cb416565b505050565b620009f6846000866001600160a01b031663c661065760016040518263ffffffff1660e01b81526004018082815260200191505060206040518083038186803b158015620009ab57600080fd5b505afa158015620009c0573d6000803e3d6000fd5b505050506040513d6020811015620009d757600080fd5b50516001600160a01b031691906200083a602090811b6200130f17901c565b62000a4484600019866001600160a01b031663c661065760016040518263ffffffff1660e01b81526004018082815260200191505060206040518083038186803b158015620009ab57600080fd5b62000a91836000856001600160a01b031663c661065760016040518263ffffffff1660e01b81526004018082815260200191505060206040518083038186803b158015620009ab57600080fd5b62000adf83600019856001600160a01b031663c661065760016040518263ffffffff1660e01b81526004018082815260200191505060206040518083038186803b158015620009ab57600080fd5b6000825190506000826001600160a01b031663d55a23f46040518163ffffffff1660e01b815260040160206040518083038186803b15801562000b2157600080fd5b505afa15801562000b36573d6000803e3d6000fd5b505050506040513d602081101562000b4d57600080fd5b5051905060005b8281101562000cab57600085828151811062000b6c57fe5b60200260200101519050600083111562000ca15760005b8381101562000c9f5762000c49826000886001600160a01b03166340c35446856040518263ffffffff1660e01b81526004018082815260200191505060206040518083038186803b15801562000bd857600080fd5b505afa15801562000bed573d6000803e3d6000fd5b505050506040513d602081101562000c0457600080fd5b50516040805163f7c618c160e01b815290516001600160a01b039092169163f7c618c191600480820192602092909190829003018186803b158015620009ab57600080fd5b62000c9682600019886001600160a01b03166340c35446856040518263ffffffff1660e01b81526004018082815260200191505060206040518083038186803b15801562000bd857600080fd5b60010162000b83565b505b5060010162000b54565b50505050505050565b606062000d10826040518060400160405280602081526020017f5361666545524332303a206c6f772d6c6576656c2063616c6c206661696c6564815250856001600160a01b031662000d7060201b62001422179092919060201c565b805190915015620009595780806020019051602081101562000d3157600080fd5b5051620009595760405162461bcd60e51b815260040180806020018281038252602a81526020018062003a22602a913960400191505060405180910390fd5b606062000d81848460008562000d8b565b90505b9392505050565b60608247101562000dce5760405162461bcd60e51b8152600401808060200182810382526026815260200180620039fc6026913960400191505060405180910390fd5b62000dd98562000ef3565b62000e2b576040805162461bcd60e51b815260206004820152601d60248201527f416464726573733a2063616c6c20746f206e6f6e2d636f6e7472616374000000604482015290519081900360640190fd5b60006060866001600160a01b031685876040518082805190602001908083835b6020831062000e6c5780518252601f19909201916020918201910162000e4b565b6001836020036101000a03801982511681845116808217855250505050505090500191505060006040518083038185875af1925050503d806000811462000ed0576040519150601f19603f3d011682016040523d82523d6000602084013e62000ed5565b606091505b50909250905062000ee882828662000ef9565b979650505050505050565b3b151590565b6060831562000f0a57508162000d84565b82511562000f1b5782518084602001fd5b8160405162461bcd60e51b81526004018080602001828103825283818151815260200191508051906020019080838360005b8381101562000f6757818101518382015260200162000f4d565b50505050905090810190601f16801562000f955780820380516001836020036101000a031916815260200191505b509250505060405180910390fd5b828054600181600116156101000203166002900490600052602060002090601f016020900481019282601f1062000fe657805160ff191683800117855562001016565b8280016001018555821562001016579182015b828111156200101657825182559160200191906001019062000ff9565b50620010249291506200108e565b5090565b82805482825590600052602060002090810192821562001080579160200282015b828111156200108057825182546001600160a01b0319166001600160a01b0390911617825560209092019160019091019062001049565b5062001024929150620010a5565b5b808211156200102457600081556001016200108f565b5b80821115620010245780546001600160a01b0319168155600101620010a6565b60805160601c60a05160601c60c05160601c60e05160601c6101005160601c6101205160601c6101405160601c6101605160601c610180516101a05160601c6101c05160601c6101e05160601c6127c26200123a60003980610bf052806124435250806106175280611092528061177e52806118125280611b0a5280611e2f5280611eef525080610e6e5280611bae5250806112ba5280611b775250806105f1528061174f5250806111255280611a6e52508061103d52806116ab525080610e9252806119ca5250806107a45280610ac25280610c1452806111c2528061217b5250806106bf528061072452806109d35280610a975280610c685280610dc05280610df55280610edf5280611013528061115252806112de5250806108e8528061092c5280610bcc528061199452806120d75280612250528061229752508061075552806107805280610a755280610cd45280610f4b5280610ff152806110b852806114f4528061159a52506127c26000f3fe608060405234801561001057600080fd5b50600436106101da5760003560e01c8063689538e711610104578063c1a3d44c116100a2578063ef9e237911610071578063ef9e237914610513578063f106845414610549578063f77c479114610551578063f887ea4014610559576101da565b8063c1a3d44c146104f3578063cacab39d146104fb578063d0e30db014610503578063dd0081c71461050b576101da565b8063853828b6116100de578063853828b6146104a8578063923c1d61146104b0578063a128723a146104b8578063b6bff295146104eb576101da565b8063689538e7146104905780636a4874a114610498578063722713f7146104a0576101da565b8063337da0fc1161017c5780634f64b2be1161014b5780634f64b2be146103c057806351cff8d9146103dd5780635d14b06f146104035780635f349a1114610473576101da565b8063337da0fc1461038b5780633fc8cef3146103a85780634362c0d1146103b0578063481c6a75146103b8576101da565b80631dd19cb4116101b85780631dd19cb41461029a5780631f1fcd51146102a45780632d16c4e3146102ac5780632e1a7d4d1461036e576101da565b806306fdde03146101df5780630bf778d11461025c5780631158808614610280575b600080fd5b6101e7610561565b6040805160208082528351818301528351919283929083019185019080838360005b83811015610221578181015183820152602001610209565b50505050905090810190601f16801561024e5780820380516001836020036101000a031916815260200191505b509250505060405180910390f35b6102646105ef565b604080516001600160a01b039092168252519081900360200190f35b610288610613565b60408051918252519081900360200190f35b6102a26106b4565b005b61026461077e565b6102a2600480360360408110156102c257600080fd5b8101906020810181356401000000008111156102dd57600080fd5b8201836020820111156102ef57600080fd5b8035906020019184602083028401116401000000008311171561031157600080fd5b91939092909160208101903564010000000081111561032f57600080fd5b82018360208201111561034157600080fd5b8035906020019184602083028401116401000000008311171561036357600080fd5b5090925090506107a2565b6102a26004803603602081101561038457600080fd5b50356109c8565b6102a2600480360360208110156103a157600080fd5b5035610ac0565b610264610bca565b610264610bee565b610264610c12565b610264600480360360208110156103d657600080fd5b5035610c36565b6102a2600480360360208110156103f357600080fd5b50356001600160a01b0316610c5d565b6102a26004803603602081101561041957600080fd5b81019060208101813564010000000081111561043457600080fd5b82018360208201111561044657600080fd5b8035906020019184602083028401116401000000008311171561046857600080fd5b509092509050610dea565b6102646004803603602081101561048957600080fd5b5035610e5f565b610264610e6c565b610264610e90565b610288610eb4565b6102a2610ed4565b61026461103b565b6104d5600480360360208110156104ce57600080fd5b503561105f565b6040805160ff9092168252519081900360200190f35b610264611090565b6102886110b4565b610264611123565b6102a2611147565b6102886111ba565b6102a26004803603606081101561052957600080fd5b506001600160a01b038135811691602081013590911690604001356111c0565b6102886112b8565b6102646112dc565b610264611300565b6000805460408051602060026001851615610100026000190190941693909304601f810184900484028201840190925281815292918301828280156105e75780601f106105bc576101008083540402835291602001916105e7565b820191906000526020600020905b8154815290600101906020018083116105ca57829003601f168201915b505050505081565b7f000000000000000000000000000000000000000000000000000000000000000081565b60007f00000000000000000000000000000000000000000000000000000000000000006001600160a01b03166370a08231306040518263ffffffff1660e01b815260040180826001600160a01b0316815260200191505060206040518083038186803b15801561068257600080fd5b505afa158015610696573d6000803e3d6000fd5b505050506040513d60208110156106ac57600080fd5b505190505b90565b336001600160a01b037f0000000000000000000000000000000000000000000000000000000000000000161461071f576040805162461bcd60e51b815260206004820152600b60248201526a10b1b7b73a3937b63632b960a91b604482015290519081900360640190fd5b61077c7f000000000000000000000000000000000000000000000000000000000000000061074b6110b4565b6001600160a01b037f000000000000000000000000000000000000000000000000000000000000000016919061143b565b565b7f000000000000000000000000000000000000000000000000000000000000000081565b7f00000000000000000000000000000000000000000000000000000000000000006001600160a01b0316635aa6e6756040518163ffffffff1660e01b815260040160206040518083038186803b1580156107fb57600080fd5b505afa15801561080f573d6000803e3d6000fd5b505050506040513d602081101561082557600080fd5b50516001600160a01b03163314610871576040805162461bcd60e51b815260206004820152600b60248201526a21676f7665726e616e636560a81b604482015290519081900360640190fd5b61087d60018585612645565b508383600081811061088b57fe5b6002805460209290920293909301356001600160a01b03166001600160a01b0319909116179091555060008382825b828110156109be578787828181106108ce57fe5b905060200201356001600160a01b0316935061091f8460007f00000000000000000000000000000000000000000000000000000000000000006001600160a01b031661130f9092919063ffffffff16565b6109556001600160a01b037f0000000000000000000000000000000000000000000000000000000000000000168560001961130f565b60005b828110156109b55761099a85600089898581811061097257fe5b905060200201356001600160a01b03166001600160a01b031661130f9092919063ffffffff16565b6109ad8560001989898581811061097257fe5b600101610958565b506001016108ba565b5050505050505050565b336001600160a01b037f00000000000000000000000000000000000000000000000000000000000000001614610a33576040805162461bcd60e51b815260206004820152600b60248201526a10b1b7b73a3937b63632b960a91b604482015290519081900360640190fd5b6000610a3d6110b4565b905081811015610a6857610a59610a54838361148d565b6114ef565b9150610a658282611645565b91505b610abc6001600160a01b037f0000000000000000000000000000000000000000000000000000000000000000167f00000000000000000000000000000000000000000000000000000000000000008461143b565b5050565b7f00000000000000000000000000000000000000000000000000000000000000006001600160a01b0316635aa6e6756040518163ffffffff1660e01b815260040160206040518083038186803b158015610b1957600080fd5b505afa158015610b2d573d6000803e3d6000fd5b505050506040513d6020811015610b4357600080fd5b50516001600160a01b03163314610b8f576040805162461bcd60e51b815260206004820152600b60248201526a21676f7665726e616e636560a81b604482015290519081900360640190fd5b60018181548110610b9c57fe5b600091825260209091200154600280546001600160a01b0319166001600160a01b0390921691909117905550565b7f000000000000000000000000000000000000000000000000000000000000000081565b7f000000000000000000000000000000000000000000000000000000000000000081565b7f000000000000000000000000000000000000000000000000000000000000000081565b60038181548110610c4357fe5b6000918252602090912001546001600160a01b0316905081565b336001600160a01b037f00000000000000000000000000000000000000000000000000000000000000001614610cc8576040805162461bcd60e51b815260206004820152600b60248201526a10b1b7b73a3937b63632b960a91b604482015290519081900360640190fd5b806001600160a01b03167f00000000000000000000000000000000000000000000000000000000000000006001600160a01b03161415610d38576040805162461bcd60e51b815260206004808301919091526024820152631dd85b9d60e21b604482015290519081900360640190fd5b604080516370a0823160e01b8152306004820152905182916000916001600160a01b038416916370a08231916024808301926020929190829003018186803b158015610d8357600080fd5b505afa158015610d97573d6000803e3d6000fd5b505050506040513d6020811015610dad57600080fd5b50519050610de56001600160a01b0383167f00000000000000000000000000000000000000000000000000000000000000008361143b565b505050565b336001600160a01b037f00000000000000000000000000000000000000000000000000000000000000001614610e55576040805162461bcd60e51b815260206004820152600b60248201526a10b1b7b73a3937b63632b960a91b604482015290519081900360640190fd5b610abc828261169f565b60018181548110610c4357fe5b7f000000000000000000000000000000000000000000000000000000000000000081565b7f000000000000000000000000000000000000000000000000000000000000000081565b6000610ecf610ec1610613565b610ec96110b4565b90611645565b905090565b336001600160a01b037f00000000000000000000000000000000000000000000000000000000000000001614610f3f576040805162461bcd60e51b815260206004820152600b60248201526a10b1b7b73a3937b63632b960a91b604482015290519081900360640190fd5b610f47611ae7565b60007f00000000000000000000000000000000000000000000000000000000000000006001600160a01b03166370a08231306040518263ffffffff1660e01b815260040180826001600160a01b0316815260200191505060206040518083038186803b158015610fb657600080fd5b505afa158015610fca573d6000803e3d6000fd5b505050506040513d6020811015610fe057600080fd5b505190506110386001600160a01b037f0000000000000000000000000000000000000000000000000000000000000000167f00000000000000000000000000000000000000000000000000000000000000008361143b565b50565b7f000000000000000000000000000000000000000000000000000000000000000081565b6004818154811061106c57fe5b9060005260206000209060209182820401919006915054906101000a900460ff1681565b7f000000000000000000000000000000000000000000000000000000000000000081565b60007f00000000000000000000000000000000000000000000000000000000000000006001600160a01b03166370a08231306040518263ffffffff1660e01b815260040180826001600160a01b0316815260200191505060206040518083038186803b15801561068257600080fd5b7f000000000000000000000000000000000000000000000000000000000000000081565b336001600160a01b037f000000000000000000000000000000000000000000000000000000000000000016146111b2576040805162461bcd60e51b815260206004820152600b60248201526a10b1b7b73a3937b63632b960a91b604482015290519081900360640190fd5b61077c611b67565b61271081565b7f00000000000000000000000000000000000000000000000000000000000000006001600160a01b0316635aa6e6756040518163ffffffff1660e01b815260040160206040518083038186803b15801561121957600080fd5b505afa15801561122d573d6000803e3d6000fd5b505050506040513d602081101561124357600080fd5b50516001600160a01b0316331461128f576040805162461bcd60e51b815260206004820152600b60248201526a21676f7665726e616e636560a81b604482015290519081900360640190fd5b6112a46001600160a01b03841683600061130f565b610de56001600160a01b038416838361130f565b7f000000000000000000000000000000000000000000000000000000000000000081565b7f000000000000000000000000000000000000000000000000000000000000000081565b6002546001600160a01b031681565b801580611395575060408051636eb1769f60e11b81523060048201526001600160a01b03848116602483015291519185169163dd62ed3e91604480820192602092909190829003018186803b15801561136757600080fd5b505afa15801561137b573d6000803e3d6000fd5b505050506040513d602081101561139157600080fd5b5051155b6113d05760405162461bcd60e51b81526004018080602001828103825260368152602001806127576036913960400191505060405180910390fd5b604080516001600160a01b038416602482015260448082018490528251808303909101815260649091019091526020810180516001600160e01b031663095ea7b360e01b179052610de5908490611c20565b60606114318484600085611cd1565b90505b9392505050565b604080516001600160a01b038416602482015260448082018490528251808303909101815260649091019091526020810180516001600160e01b031663a9059cbb60e01b179052610de5908490611c20565b6000828211156114e4576040805162461bcd60e51b815260206004820152601e60248201527f536166654d6174683a207375627472616374696f6e206f766572666c6f770000604482015290519081900360640190fd5b508082035b92915050565b6000807f00000000000000000000000000000000000000000000000000000000000000006001600160a01b03166370a08231306040518263ffffffff1660e01b815260040180826001600160a01b0316815260200191505060206040518083038186803b15801561155f57600080fd5b505afa158015611573573d6000803e3d6000fd5b505050506040513d602081101561158957600080fd5b5051905061159683611e2d565b60007f00000000000000000000000000000000000000000000000000000000000000006001600160a01b03166370a08231306040518263ffffffff1660e01b815260040180826001600160a01b0316815260200191505060206040518083038186803b15801561160557600080fd5b505afa158015611619573d6000803e3d6000fd5b505050506040513d602081101561162f57600080fd5b5051905061163d818361148d565b949350505050565b600082820183811015611434576040805162461bcd60e51b815260206004820152601b60248201527f536166654d6174683a206164646974696f6e206f766572666c6f770000000000604482015290519081900360640190fd5b6116a7611ec8565b60007f00000000000000000000000000000000000000000000000000000000000000006001600160a01b03166370a08231306040518263ffffffff1660e01b815260040180826001600160a01b0316815260200191505060206040518083038186803b15801561171657600080fd5b505afa15801561172a573d6000803e3d6000fd5b505050506040513d602081101561174057600080fd5b50519050801561177a5761177a7f000000000000000000000000000000000000000000000000000000000000000060016000846001611f37565b60007f00000000000000000000000000000000000000000000000000000000000000006001600160a01b031663d55a23f46040518163ffffffff1660e01b815260040160206040518083038186803b1580156117d557600080fd5b505afa1580156117e9573d6000803e3d6000fd5b505050506040513d60208110156117ff57600080fd5b5051905060005b818110156119c55760007f00000000000000000000000000000000000000000000000000000000000000006001600160a01b03166340c35446836040518263ffffffff1660e01b81526004018082815260200191505060206040518083038186803b15801561187457600080fd5b505afa158015611888573d6000803e3d6000fd5b505050506040513d602081101561189e57600080fd5b50516040805163f7c618c160e01b815290516001600160a01b039092169163f7c618c191600480820192602092909190829003018186803b1580156118e257600080fd5b505afa1580156118f6573d6000803e3d6000fd5b505050506040513d602081101561190c57600080fd5b5051604080516370a0823160e01b815230600482015290519192506000916001600160a01b038416916370a08231916024808301926020929190829003018186803b15801561195a57600080fd5b505afa15801561196e573d6000803e3d6000fd5b505050506040513d602081101561198457600080fd5b5051905080156119bb576119bb827f0000000000000000000000000000000000000000000000000000000000000000836001611fb3565b5050600101611806565b5060007f00000000000000000000000000000000000000000000000000000000000000006001600160a01b03166370a08231306040518263ffffffff1660e01b815260040180826001600160a01b0316815260200191505060206040518083038186803b158015611a3557600080fd5b505afa158015611a49573d6000803e3d6000fd5b505050506040513d6020811015611a5f57600080fd5b505190508015611a9957611a997f000000000000000000000000000000000000000000000000000000000000000060016000846001611f37565b6000611aa36120d3565b90508015611adf57611ac786866000818110611abb57fe5b90506020020135612311565b6000611ad16110b4565b1115611adf57611adf611b67565b505050505050565b604080516324f81cd160e11b815260006004820181905291516001600160a01b037f000000000000000000000000000000000000000000000000000000000000000016926349f039a2926024808201939182900301818387803b158015611b4d57600080fd5b505af1158015611b61573d6000803e3d6000fd5b50505050565b6040805163303acfe760e11b81527f000000000000000000000000000000000000000000000000000000000000000060048201526001602482015290516001600160a01b037f000000000000000000000000000000000000000000000000000000000000000016916360759fce9160448083019260209291908290030181600087803b158015611bf657600080fd5b505af1158015611c0a573d6000803e3d6000fd5b505050506040513d6020811015610abc57600080fd5b6060611c75826040518060400160405280602081526020017f5361666545524332303a206c6f772d6c6576656c2063616c6c206661696c6564815250856001600160a01b03166114229092919063ffffffff16565b805190915015610de557808060200190516020811015611c9457600080fd5b5051610de55760405162461bcd60e51b815260040180806020018281038252602a81526020018061272d602a913960400191505060405180910390fd5b606082471015611d125760405162461bcd60e51b81526004018080602001828103825260268152602001806126e66026913960400191505060405180910390fd5b611d1b856124db565b611d6c576040805162461bcd60e51b815260206004820152601d60248201527f416464726573733a2063616c6c20746f206e6f6e2d636f6e7472616374000000604482015290519081900360640190fd5b60006060866001600160a01b031685876040518082805190602001908083835b60208310611dab5780518252601f199092019160209182019101611d8c565b6001836020036101000a03801982511681845116808217855250505050505090500191505060006040518083038185875af1925050503d8060008114611e0d576040519150601f19603f3d011682016040523d82523d6000602084013e611e12565b606091505b5091509150611e228282866124e1565b979650505050505050565b7f00000000000000000000000000000000000000000000000000000000000000006001600160a01b031663c32e72028260006040518363ffffffff1660e01b815260040180838152602001821515815260200192505050602060405180830381600087803b158015611e9e57600080fd5b505af1158015611eb2573d6000803e3d6000fd5b505050506040513d6020811015610de557600080fd5b60408051637050ccd960e01b81523060048201526001602482015290516001600160a01b037f00000000000000000000000000000000000000000000000000000000000000001691637050ccd99160448083019260209291908290030181600087803b158015611bf657600080fd5b60408051630b68372160e31b81526004810186905260248101859052604481018490526064810183905290516001600160a01b03871691635b41b90891608480830192600092919082900301818387803b158015611f9457600080fd5b505af1158015611fa8573d6000803e3d6000fd5b505050505050505050565b60408051600280825260608083018452926020830190803683370190505090508481600081518110611fe157fe5b60200260200101906001600160a01b031690816001600160a01b031681525050838160018151811061200f57fe5b6001600160a01b039283166020918202929092018101919091526002546040516338ed173960e01b8152600481018781526024820187905230606483018190526402540be4006084840181905260a060448501908152885160a4860152885195909716966338ed1739968b968b968b96939260c490910191878201910280838360005b838110156120aa578181015183820152602001612092565b505050509050019650505050505050600060405180830381600087803b158015611f9457600080fd5b60007f00000000000000000000000000000000000000000000000000000000000000006001600160a01b03166370a08231306040518263ffffffff1660e01b815260040180826001600160a01b0316815260200191505060206040518083038186803b15801561214257600080fd5b505afa158015612156573d6000803e3d6000fd5b505050506040513d602081101561216c57600080fd5b5051905080156106b1576000807f00000000000000000000000000000000000000000000000000000000000000006001600160a01b031663da633d316040518163ffffffff1660e01b815260040160606040518083038186803b1580156121d257600080fd5b505afa1580156121e6573d6000803e3d6000fd5b505050506040513d60608110156121fc57600080fd5b50602081015160409091015190925090506000811580159061222657506001600160a01b03831615155b156122775761224161271061223b8685612585565b906125de565b90506122776001600160a01b037f000000000000000000000000000000000000000000000000000000000000000016848361143b565b604080516370a0823160e01b815230600482015290516001600160a01b037f000000000000000000000000000000000000000000000000000000000000000016916370a08231916024808301926020929190829003018186803b1580156122dd57600080fd5b505afa1580156122f1573d6000803e3d6000fd5b505050506040513d602081101561230757600080fd5b5051935050505090565b6123196126a8565b600360008154811061232757fe5b60009182526020918290200154604080516370a0823160e01b815230600482015290516001600160a01b03909216926370a0823192602480840193829003018186803b15801561237657600080fd5b505afa15801561238a573d6000803e3d6000fd5b505050506040513d60208110156123a057600080fd5b505181526003805460019081106123b357fe5b60009182526020918290200154604080516370a0823160e01b815230600482015290516001600160a01b03909216926370a0823192602480840193829003018186803b15801561240257600080fd5b505afa158015612416573d6000803e3d6000fd5b505050506040513d602081101561242c57600080fd5b5051602082015260408051630b4c7e4d60e01b81527f00000000000000000000000000000000000000000000000000000000000000006001600160a01b031691630b4c7e4d9184918691600401908190849080838360005b8381101561249c578181015183820152602001612484565b5050505090500182815260200192505050600060405180830381600087803b1580156124c757600080fd5b505af1158015611adf573d6000803e3d6000fd5b3b151590565b606083156124f0575081611434565b8251156125005782518084602001fd5b8160405162461bcd60e51b81526004018080602001828103825283818151815260200191508051906020019080838360005b8381101561254a578181015183820152602001612532565b50505050905090810190601f1680156125775780820380516001836020036101000a031916815260200191505b509250505060405180910390fd5b600082612594575060006114e9565b828202828482816125a157fe5b04146114345760405162461bcd60e51b815260040180806020018281038252602181526020018061270c6021913960400191505060405180910390fd5b6000808211612634576040805162461bcd60e51b815260206004820152601a60248201527f536166654d6174683a206469766973696f6e206279207a65726f000000000000604482015290519081900360640190fd5b81838161263d57fe5b049392505050565b828054828255906000526020600020908101928215612698579160200282015b828111156126985781546001600160a01b0319166001600160a01b03843516178255602090920191600190910190612665565b506126a49291506126c6565b5090565b60405180604001604052806002906020820280368337509192915050565b5b808211156126a45780546001600160a01b03191681556001016126c756fe416464726573733a20696e73756666696369656e742062616c616e636520666f722063616c6c536166654d6174683a206d756c7469706c69636174696f6e206f766572666c6f775361666545524332303a204552433230206f7065726174696f6e20646964206e6f7420737563636565645361666545524332303a20617070726f76652066726f6d206e6f6e2d7a65726f20746f206e6f6e2d7a65726f20616c6c6f77616e6365a2646970667358221220f78c4687ddf6f37fd52fa36381779bccd5c7e07831167b97d5e257fc9667a64c64736f6c634300060c0033416464726573733a20696e73756666696369656e742062616c616e636520666f722063616c6c5361666545524332303a204552433230206f7065726174696f6e20646964206e6f7420737563636565645361666545524332303a20617070726f76652066726f6d206e6f6e2d7a65726f20746f206e6f6e2d7a65726f20616c6c6f77616e6365",
  "devdoc": {
    "kind": "dev",
    "methods": {
      "approveForSpender(address,address,uint256)": {
        "params": {
          "_amount": "The amount to spend",
          "_spender": "The address of the spender",
          "_token": "The address of the token"
        }
      },
      "balanceOfPool()": {
        "details": "Must be implemented by the strategy"
      },
      "constructor": {
        "params": {
          "_coinCount": "The number of coins in the pool",
          "_controller": "The address of the controller",
          "_convexVault": "The address of the convex vault",
          "_crvethPool": "The address of crvEthPool",
          "_cvxethPool": "The address of cvxEthPool",
          "_manager": "The address of the manager",
          "_name": "The strategy name",
          "_pid": "The pool id of convex",
          "_routerArray": "The addresses of routers for swapping tokens",
          "_stableSwapPool": "The address of the stable swap pool",
          "_want": "The desired token of the strategy",
          "_weth": "The address of WETH"
        }
      },
      "setDefaultRouter(uint256)": {
        "params": {
          "_routerIndex": "Gets the address of the router from routerArray"
        }
      },
      "setRouter(address[],address[])": {
        "params": {
          "_routerArray": "The addresses of routers",
          "_tokenArray": "The addresses of tokens that need to be approved by the strategy"
        }
      },
      "withdraw(address)": {
        "params": {
          "_asset": "The address of the token to withdraw"
        }
      },
      "withdraw(uint256)": {
        "params": {
          "_amount": "The amount of the want token to withdraw"
        }
      }
    },
    "version": 1
  },
  "userdoc": {
    "kind": "user",
    "methods": {
      "approveForSpender(address,address,uint256)": {
        "notice": "Approves a token address to be spent by an address"
      },
      "balanceOf()": {
        "notice": "Returns the strategy's balance of the want token plus the balance of pool"
      },
      "balanceOfPool()": {
        "notice": "Returns the balance of the pool"
      },
      "balanceOfWant()": {
        "notice": "Returns the balance of the want token on the strategy"
      },
      "deposit()": {
        "notice": "Deposits funds to the strategy's pool"
      },
      "harvest(uint256[])": {
        "notice": "Harvest funds in the strategy's pool"
      },
      "setDefaultRouter(uint256)": {
        "notice": "Sets the default ISwap-compatible router"
      },
      "setRouter(address[],address[])": {
        "notice": "Sets the address of the ISwap-compatible router"
      },
      "skim()": {
        "notice": "Sends stuck want tokens in the strategy to the controller"
      },
      "withdraw(address)": {
        "notice": "Sends stuck tokens in the strategy to the controller"
      },
      "withdraw(uint256)": {
        "notice": "Initiated from a vault, withdraws funds from the pool"
      },
      "withdrawAll()": {
        "notice": "Withdraws all funds from the strategy"
      }
    },
    "version": 1
  },
  "storageLayout": {
    "storage": [
      {
        "astId": 9697,
        "contract": "contracts/v3/strategies/CVXETHConvexStrategy.sol:CVXETHConvexStrategy",
        "label": "name",
        "offset": 0,
        "slot": "0",
        "type": "t_string_storage"
      },
      {
        "astId": 9700,
        "contract": "contracts/v3/strategies/CVXETHConvexStrategy.sol:CVXETHConvexStrategy",
        "label": "routerArray",
        "offset": 0,
        "slot": "1",
        "type": "t_array(t_address)dyn_storage"
      },
      {
        "astId": 9703,
        "contract": "contracts/v3/strategies/CVXETHConvexStrategy.sol:CVXETHConvexStrategy",
        "label": "router",
        "offset": 0,
        "slot": "2",
        "type": "t_contract(ISwap)8804"
      },
      {
        "astId": 10510,
        "contract": "contracts/v3/strategies/CVXETHConvexStrategy.sol:CVXETHConvexStrategy",
        "label": "tokens",
        "offset": 0,
        "slot": "3",
        "type": "t_array(t_address)dyn_storage"
      },
      {
        "astId": 10513,
        "contract": "contracts/v3/strategies/CVXETHConvexStrategy.sol:CVXETHConvexStrategy",
        "label": "decimalMultiples",
        "offset": 0,
        "slot": "4",
        "type": "t_array(t_uint8)dyn_storage"
      }
    ],
    "types": {
      "t_address": {
        "encoding": "inplace",
        "label": "address",
        "numberOfBytes": "20"
      },
      "t_array(t_address)dyn_storage": {
        "base": "t_address",
        "encoding": "dynamic_array",
        "label": "address[]",
        "numberOfBytes": "32"
      },
      "t_array(t_uint8)dyn_storage": {
        "base": "t_uint8",
        "encoding": "dynamic_array",
        "label": "uint8[]",
        "numberOfBytes": "32"
      },
      "t_contract(ISwap)8804": {
        "encoding": "inplace",
        "label": "contract ISwap",
        "numberOfBytes": "20"
      },
      "t_string_storage": {
        "encoding": "bytes",
        "label": "string",
        "numberOfBytes": "32"
      },
      "t_uint8": {
        "encoding": "inplace",
        "label": "uint8",
        "numberOfBytes": "1"
      }
    }
  }
}