{
  "address": "0xcdF55d76f7de152b3E5dfd220D9214A2C1B5FdF6",
  "abi": [
    {
      "inputs": [
        {
          "internalType": "address",
          "name": "_votingEscrow",
          "type": "address"
        }
      ],
      "stateMutability": "nonpayable",
      "type": "constructor"
    },
    {
      "inputs": [
        {
          "internalType": "address",
          "name": "_token",
          "type": "address"
        },
        {
          "internalType": "uint256",
          "name": "_amount",
          "type": "uint256"
        }
      ],
      "name": "addReward",
      "outputs": [],
      "stateMutability": "nonpayable",
      "type": "function"
    },
    {
      "inputs": [
        {
          "internalType": "address",
          "name": "_token",
          "type": "address"
        },
        {
          "internalType": "uint256",
          "name": "_amount",
          "type": "uint256"
        },
        {
          "internalType": "uint256",
          "name": "_block",
          "type": "uint256"
        }
      ],
      "name": "addRewardAtBlock",
      "outputs": [],
      "stateMutability": "nonpayable",
      "type": "function"
    },
    {
      "inputs": [
        {
          "internalType": "address",
          "name": "_token",
          "type": "address"
        }
      ],
      "name": "claimRewards",
      "outputs": [],
      "stateMutability": "nonpayable",
      "type": "function"
    },
    {
      "inputs": [
        {
          "internalType": "address",
          "name": "_token",
          "type": "address"
        },
        {
          "internalType": "uint256",
          "name": "_index",
          "type": "uint256"
        }
      ],
      "name": "claimRewardsByIndex",
      "outputs": [],
      "stateMutability": "nonpayable",
      "type": "function"
    },
    {
      "inputs": [
        {
          "internalType": "address",
          "name": "_token",
          "type": "address"
        },
        {
          "internalType": "address",
          "name": "_address",
          "type": "address"
        }
      ],
      "name": "getRewardAmount",
      "outputs": [
        {
          "internalType": "uint256",
          "name": "reward",
          "type": "uint256"
        }
      ],
      "stateMutability": "view",
      "type": "function"
    },
    {
      "inputs": [
        {
          "internalType": "address",
          "name": "",
          "type": "address"
        },
        {
          "internalType": "uint256",
          "name": "",
          "type": "uint256"
        }
      ],
      "name": "isClaimed",
      "outputs": [
        {
          "internalType": "bool",
          "name": "",
          "type": "bool"
        }
      ],
      "stateMutability": "view",
      "type": "function"
    },
    {
      "inputs": [
        {
          "internalType": "address",
          "name": "",
          "type": "address"
        }
      ],
      "name": "isManager",
      "outputs": [
        {
          "internalType": "bool",
          "name": "",
          "type": "bool"
        }
      ],
      "stateMutability": "view",
      "type": "function"
    },
    {
      "inputs": [
        {
          "internalType": "address",
          "name": "",
          "type": "address"
        }
      ],
      "name": "lastClaimed",
      "outputs": [
        {
          "internalType": "uint256",
          "name": "",
          "type": "uint256"
        }
      ],
      "stateMutability": "view",
      "type": "function"
    },
    {
      "inputs": [],
      "name": "numberOfRewards",
      "outputs": [
        {
          "internalType": "uint256",
          "name": "",
          "type": "uint256"
        }
      ],
      "stateMutability": "view",
      "type": "function"
    },
    {
      "inputs": [
        {
          "internalType": "uint256",
          "name": "",
          "type": "uint256"
        }
      ],
      "name": "rewards",
      "outputs": [
        {
          "internalType": "address",
          "name": "token",
          "type": "address"
        },
        {
          "internalType": "uint256",
          "name": "blockNumber",
          "type": "uint256"
        },
        {
          "internalType": "uint256",
          "name": "amount",
          "type": "uint256"
        }
      ],
      "stateMutability": "view",
      "type": "function"
    },
    {
      "inputs": [
        {
          "internalType": "address",
          "name": "_manager",
          "type": "address"
        },
        {
          "internalType": "bool",
          "name": "_status",
          "type": "bool"
        }
      ],
      "name": "setManager",
      "outputs": [],
      "stateMutability": "nonpayable",
      "type": "function"
    },
    {
      "inputs": [],
      "name": "votingEscrow",
      "outputs": [
        {
          "internalType": "contract IVotingEscrow",
          "name": "",
          "type": "address"
        }
      ],
      "stateMutability": "view",
      "type": "function"
    }
  ],
  "transactionHash": "0xe89f487c00e7b3d47c99f2789b606d6dc7bcbbbe07aa83df2774fd1d755f7877",
  "args": [
    "0xa770697cecA9Af6584aA59DD9F226eaF6Cd0c2dc"
  ],
  "numDeployments": 1,
  "solcInputHash": "2f52fc9e2c9436dbe54a500dcc1ea2eb",
  "bytecode": "0x608060405234801561001057600080fd5b506040516111f13803806111f18339818101604052602081101561003357600080fd5b5051600580546001600160a01b039092166001600160a01b0319909216919091179055336000908152602081905260409020805460ff191660011790556111728061007f6000396000f3fe608060405234801561001057600080fd5b50600436106100b45760003560e01c8063a2c9514111610071578063a2c95141146101bd578063a5e90eee146101eb578063ef5cfb8c14610219578063f301af421461023f578063f3ae241514610284578063ff2ddc22146102aa576100b4565b8063013eba92146100b95780631739faa2146100f15780634f2bfe5b14610125578063562beba81461014957806362de8253146101895780639feb8f5014610191575b600080fd5b6100df600480360360208110156100cf57600080fd5b50356001600160a01b03166102d6565b60408051918252519081900360200190f35b6101236004803603606081101561010757600080fd5b506001600160a01b0381351690602081013590604001356102e8565b005b61012d6103b0565b604080516001600160a01b039092168252519081900360200190f35b6101756004803603604081101561015f57600080fd5b506001600160a01b0381351690602001356103bf565b604080519115158252519081900360200190f35b6100df6103df565b610123600480360360408110156101a757600080fd5b506001600160a01b0381351690602001356103e5565b6100df600480360360408110156101d357600080fd5b506001600160a01b03813581169160200135166104ae565b6101236004803603604081101561020157600080fd5b506001600160a01b0381351690602001351515610685565b6101236004803603602081101561022f57600080fd5b50356001600160a01b03166106ff565b61025c6004803603602081101561025557600080fd5b5035610959565b604080516001600160a01b039094168452602084019290925282820152519081900360600190f35b6101756004803603602081101561029a57600080fd5b50356001600160a01b0316610985565b610123600480360360408110156102c057600080fd5b506001600160a01b03813516906020013561099a565b60026020526000908152604090205481565b3360009081526020819052604090205460ff16610337576040805162461bcd60e51b815260206004820152600860248201526710b6b0b730b3b2b960c11b604482015290519081900360640190fd5b61033f6110a1565b60208181018381526001600160a01b03868116808552604080860188815260048054600090815260019788905292909220875181546001600160a01b03191695169490941784559351838601559251600290920191909155815490920190556103aa90333086610be1565b50505050565b6005546001600160a01b031681565b600360209081526000928352604080842090915290825290205460ff1681565b60045481565b3360009081526020819052604090205460ff16610434576040805162461bcd60e51b815260206004820152600860248201526710b6b0b730b3b2b960c11b604482015290519081900360640190fd5b61043c6110a1565b4360208281019182526001600160a01b03858116808552604080860187815260048054600090815260019687905292909220875181546001600160a01b0319169516949094178455945183850155935160029092019190915582549091019091556104a990333085610be1565b505050565b6001600160a01b0381166000908152600260205260408120545b60045481101561067e576104da6110a1565b50600081815260016020818152604092839020835160608101855281546001600160a01b03908116808352948301549382019390935260029091015493810193909352861614158061054f57506001600160a01b038416600090815260036020908152604080832085845290915290205460ff165b1561055d57506001016104c8565b60055460208083015160408051630981b24d60e41b8152600481019290925251610671936001600160a01b03169263981b24d09260248082019391829003018186803b1580156105ac57600080fd5b505afa1580156105c0573d6000803e3d6000fd5b505050506040513d60208110156105d657600080fd5b5051604080840151600554602086810151845163277166bf60e11b81526001600160a01b038c811660048301526024820192909252945161066b959190931692634ee2cd7e92604480840193919291829003018186803b15801561063957600080fd5b505afa15801561064d573d6000803e3d6000fd5b505050506040513d602081101561066357600080fd5b505190610c3b565b90610c9d565b90920191506001016104c8565b5092915050565b3360009081526020819052604090205460ff166106d4576040805162461bcd60e51b815260206004820152600860248201526710b6b0b730b3b2b960c11b604482015290519081900360640190fd5b6001600160a01b03919091166000908152602081905260409020805460ff1916911515919091179055565b33600090815260026020526040902054600454811061075b576040805162461bcd60e51b81526020600482015260136024820152724e6f207265776172647320746f20636c61696d60681b604482015290519081900360640190fd5b60005b6004548210156108fc576107706110a1565b50600082815260016020818152604092839020835160608101855281546001600160a01b0390811680835294830154938201939093526002909101549381019390935285161415806107dc575033600090815260036020908152604080832086845290915290205460ff165b156107ed575060019091019061075e565b60055460208083015160408051630981b24d60e41b81526004810192909252516108c5936001600160a01b03169263981b24d09260248082019391829003018186803b15801561083c57600080fd5b505afa158015610850573d6000803e3d6000fd5b505050506040513d602081101561086657600080fd5b5051604080840151600554602086810151845163277166bf60e11b81523360048201526024810191909152935161066b946001600160a01b0390931692634ee2cd7e926044808301939192829003018186803b15801561063957600080fd5b3360009081526003602090815260408083208784529091529020805460ff191660019081179091559390930192909101905061075e565b6000811161093c576040805162461bcd60e51b8152602060048201526008602482015267217265776172647360c01b604482015290519081900360640190fd5b6109506001600160a01b0384163383610d04565b6104a933610d56565b60016020819052600091825260409091208054918101546002909101546001600160a01b039092169183565b60006020819052908152604090205460ff1681565b60045481106109de576040805162461bcd60e51b815260206004820152600b60248201526a0aee4dedcce40d2dcc8caf60ab1b604482015290519081900360640190fd5b33600090815260036020908152604080832084845290915290205460ff1615610a4e576040805162461bcd60e51b815260206004820152601960248201527f52657761726420697320616c726561647920636c61696d656400000000000000604482015290519081900360640190fd5b610a566110a1565b506000818152600160208181526040808420815160608101835281546001600160a01b03908116825294820154818501819052600290920154818401526005548351630981b24d60e41b815260048101939093529251909594610b609493169263981b24d09260248082019391829003018186803b158015610ad757600080fd5b505afa158015610aeb573d6000803e3d6000fd5b505050506040513d6020811015610b0157600080fd5b5051604080850151600554602087810151845163277166bf60e11b81523360048201526024810191909152935161066b946001600160a01b0390931692634ee2cd7e926044808301939192829003018186803b15801561063957600080fd5b3360009081526003602090815260408083208784529091529020805460ff19166001179055905080610bc4576040805162461bcd60e51b8152602060048201526008602482015267217265776172647360c01b604482015290519081900360640190fd5b610bd86001600160a01b0385163383610d04565b6103aa33610d56565b604080516001600160a01b0380861660248301528416604482015260648082018490528251808303909101815260849091019091526020810180516001600160e01b03166323b872dd60e01b1790526103aa908590610dd1565b600082610c4a57506000610c97565b82820282848281610c5757fe5b0414610c945760405162461bcd60e51b81526004018080602001828103825260218152602001806110f26021913960400191505060405180910390fd5b90505b92915050565b6000808211610cf3576040805162461bcd60e51b815260206004820152601a60248201527f536166654d6174683a206469766973696f6e206279207a65726f000000000000604482015290519081900360640190fd5b818381610cfc57fe5b049392505050565b604080516001600160a01b038416602482015260448082018490528251808303909101815260649091019091526020810180516001600160e01b031663a9059cbb60e01b1790526104a9908490610dd1565b6001600160a01b0381166000908152600260205260409020545b600454811015610dcd576001600160a01b038216600090815260036020908152604080832084845290915290205460ff16610dc5576001600160a01b0382166000908152600260205260409020819055610dcd565b600101610d70565b5050565b6060610e26826040518060400160405280602081526020017f5361666545524332303a206c6f772d6c6576656c2063616c6c206661696c6564815250856001600160a01b0316610e829092919063ffffffff16565b8051909150156104a957808060200190516020811015610e4557600080fd5b50516104a95760405162461bcd60e51b815260040180806020018281038252602a815260200180611113602a913960400191505060405180910390fd5b6060610e918484600085610e9b565b90505b9392505050565b606082471015610edc5760405162461bcd60e51b81526004018080602001828103825260268152602001806110cc6026913960400191505060405180910390fd5b610ee585610ff7565b610f36576040805162461bcd60e51b815260206004820152601d60248201527f416464726573733a2063616c6c20746f206e6f6e2d636f6e7472616374000000604482015290519081900360640190fd5b60006060866001600160a01b031685876040518082805190602001908083835b60208310610f755780518252601f199092019160209182019101610f56565b6001836020036101000a03801982511681845116808217855250505050505090500191505060006040518083038185875af1925050503d8060008114610fd7576040519150601f19603f3d011682016040523d82523d6000602084013e610fdc565b606091505b5091509150610fec828286610ffd565b979650505050505050565b3b151590565b6060831561100c575081610e94565b82511561101c5782518084602001fd5b8160405162461bcd60e51b81526004018080602001828103825283818151815260200191508051906020019080838360005b8381101561106657818101518382015260200161104e565b50505050905090810190601f1680156110935780820380516001836020036101000a031916815260200191505b509250505060405180910390fd5b604051806060016040528060006001600160a01b031681526020016000815260200160008152509056fe416464726573733a20696e73756666696369656e742062616c616e636520666f722063616c6c536166654d6174683a206d756c7469706c69636174696f6e206f766572666c6f775361666545524332303a204552433230206f7065726174696f6e20646964206e6f742073756363656564a2646970667358221220c858bdd476ef93bc4e3925a6d0ed368c6061ce01de18fcda90eae2439ddef4d964736f6c634300060c0033",
  "devdoc": {
    "kind": "dev",
    "methods": {
      "addReward(address,uint256)": {
        "params": {
          "_amount": "The amount of token",
          "_token": "The address of the token"
        }
      },
      "addRewardAtBlock(address,uint256,uint256)": {
        "params": {
          "_amount": "The amount of token",
          "_block": "Block number",
          "_token": "The address of the token"
        }
      },
      "claimRewards(address)": {
        "params": {
          "_token": "The address of the token"
        }
      },
      "claimRewardsByIndex(address,uint256)": {
        "params": {
          "_index": "The index of the reward",
          "_token": "The address of the token"
        }
      },
      "getRewardAmount(address,address)": {
        "params": {
          "_address": "The address",
          "_token": "The address of the token"
        }
      },
      "setManager(address,bool)": {
        "params": {
          "_manager": "The address of the manager",
          "_status": "The status to allow the manager "
        }
      }
    },
    "title": "FeeDistributor",
    "version": 1
  },
  "userdoc": {
    "kind": "user",
    "methods": {
      "addReward(address,uint256)": {
        "notice": "Adds a new reward distribution"
      },
      "addRewardAtBlock(address,uint256,uint256)": {
        "notice": "Adds a new reward distribution at a specific block"
      },
      "claimRewards(address)": {
        "notice": "Claims rewards in _token"
      },
      "claimRewardsByIndex(address,uint256)": {
        "notice": "Claims reward by index in _token"
      },
      "getRewardAmount(address,address)": {
        "notice": "Returns reward amount of _address in _token"
      },
      "setManager(address,bool)": {
        "notice": "Sets the status of a manager"
      }
    },
    "notice": "Contract shouldn't have added rewards more than tx limit can handle because claiming rewards loops on added rewards",
    "version": 1
  },
  "storageLayout": {
    "storage": [
      {
        "astId": 1753,
        "contract": "contracts/v3/FeeDistributor.sol:FeeDistributor",
        "label": "isManager",
        "offset": 0,
        "slot": "0",
        "type": "t_mapping(t_address,t_bool)"
      },
      {
        "astId": 1757,
        "contract": "contracts/v3/FeeDistributor.sol:FeeDistributor",
        "label": "rewards",
        "offset": 0,
        "slot": "1",
        "type": "t_mapping(t_uint256,t_struct(Reward)1749_storage)"
      },
      {
        "astId": 1761,
        "contract": "contracts/v3/FeeDistributor.sol:FeeDistributor",
        "label": "lastClaimed",
        "offset": 0,
        "slot": "2",
        "type": "t_mapping(t_address,t_uint256)"
      },
      {
        "astId": 1767,
        "contract": "contracts/v3/FeeDistributor.sol:FeeDistributor",
        "label": "isClaimed",
        "offset": 0,
        "slot": "3",
        "type": "t_mapping(t_address,t_mapping(t_uint256,t_bool))"
      },
      {
        "astId": 1769,
        "contract": "contracts/v3/FeeDistributor.sol:FeeDistributor",
        "label": "numberOfRewards",
        "offset": 0,
        "slot": "4",
        "type": "t_uint256"
      },
      {
        "astId": 1771,
        "contract": "contracts/v3/FeeDistributor.sol:FeeDistributor",
        "label": "votingEscrow",
        "offset": 0,
        "slot": "5",
        "type": "t_contract(IVotingEscrow)1735"
      }
    ],
    "types": {
      "t_address": {
        "encoding": "inplace",
        "label": "address",
        "numberOfBytes": "20"
      },
      "t_bool": {
        "encoding": "inplace",
        "label": "bool",
        "numberOfBytes": "1"
      },
      "t_contract(IVotingEscrow)1735": {
        "encoding": "inplace",
        "label": "contract IVotingEscrow",
        "numberOfBytes": "20"
      },
      "t_mapping(t_address,t_bool)": {
        "encoding": "mapping",
        "key": "t_address",
        "label": "mapping(address => bool)",
        "numberOfBytes": "32",
        "value": "t_bool"
      },
      "t_mapping(t_address,t_mapping(t_uint256,t_bool))": {
        "encoding": "mapping",
        "key": "t_address",
        "label": "mapping(address => mapping(uint256 => bool))",
        "numberOfBytes": "32",
        "value": "t_mapping(t_uint256,t_bool)"
      },
      "t_mapping(t_address,t_uint256)": {
        "encoding": "mapping",
        "key": "t_address",
        "label": "mapping(address => uint256)",
        "numberOfBytes": "32",
        "value": "t_uint256"
      },
      "t_mapping(t_uint256,t_bool)": {
        "encoding": "mapping",
        "key": "t_uint256",
        "label": "mapping(uint256 => bool)",
        "numberOfBytes": "32",
        "value": "t_bool"
      },
      "t_mapping(t_uint256,t_struct(Reward)1749_storage)": {
        "encoding": "mapping",
        "key": "t_uint256",
        "label": "mapping(uint256 => struct FeeDistributor.Reward)",
        "numberOfBytes": "32",
        "value": "t_struct(Reward)1749_storage"
      },
      "t_struct(Reward)1749_storage": {
        "encoding": "inplace",
        "label": "struct FeeDistributor.Reward",
        "members": [
          {
            "astId": 1744,
            "contract": "contracts/v3/FeeDistributor.sol:FeeDistributor",
            "label": "token",
            "offset": 0,
            "slot": "0",
            "type": "t_address"
          },
          {
            "astId": 1746,
            "contract": "contracts/v3/FeeDistributor.sol:FeeDistributor",
            "label": "blockNumber",
            "offset": 0,
            "slot": "1",
            "type": "t_uint256"
          },
          {
            "astId": 1748,
            "contract": "contracts/v3/FeeDistributor.sol:FeeDistributor",
            "label": "amount",
            "offset": 0,
            "slot": "2",
            "type": "t_uint256"
          }
        ],
        "numberOfBytes": "96"
      },
      "t_uint256": {
        "encoding": "inplace",
        "label": "uint256",
        "numberOfBytes": "32"
      }
    }
  }
}