{
  "address": "0x0808A1Fd2eaBE2b74d649E164a7bb5d4aD07F4A3",
  "abi": [
    {
      "inputs": [
        {
          "internalType": "string",
          "name": "_name",
          "type": "string"
        },
        {
          "internalType": "address",
          "name": "_want",
          "type": "address"
        },
        {
          "internalType": "address",
          "name": "_crvethPool",
          "type": "address"
        },
        {
          "internalType": "address",
          "name": "_cvxethPool",
          "type": "address"
        },
        {
          "internalType": "address",
          "name": "_weth",
          "type": "address"
        },
        {
          "internalType": "uint256",
          "name": "_pid",
          "type": "uint256"
        },
        {
          "internalType": "address",
          "name": "_usdc",
          "type": "address"
        },
        {
          "internalType": "address",
          "name": "_fraxPool",
          "type": "address"
        },
        {
          "internalType": "contract IConvexVault",
          "name": "_convexVault",
          "type": "address"
        },
        {
          "internalType": "address",
          "name": "_stableSwapPool",
          "type": "address"
        },
        {
          "internalType": "address",
          "name": "_controller",
          "type": "address"
        },
        {
          "internalType": "address",
          "name": "_manager",
          "type": "address"
        },
        {
          "internalType": "address[]",
          "name": "_routerArray",
          "type": "address[]"
        }
      ],
      "stateMutability": "nonpayable",
      "type": "constructor"
    },
    {
      "inputs": [],
      "name": "ONE_HUNDRED_PERCENT",
      "outputs": [
        {
          "internalType": "uint256",
          "name": "",
          "type": "uint256"
        }
      ],
      "stateMutability": "view",
      "type": "function"
    },
    {
      "inputs": [
        {
          "internalType": "contract IERC20",
          "name": "_token",
          "type": "address"
        },
        {
          "internalType": "address",
          "name": "_spender",
          "type": "address"
        },
        {
          "internalType": "uint256",
          "name": "_amount",
          "type": "uint256"
        }
      ],
      "name": "approveForSpender",
      "outputs": [],
      "stateMutability": "nonpayable",
      "type": "function"
    },
    {
      "inputs": [],
      "name": "balanceOf",
      "outputs": [
        {
          "internalType": "uint256",
          "name": "",
          "type": "uint256"
        }
      ],
      "stateMutability": "view",
      "type": "function"
    },
    {
      "inputs": [],
      "name": "balanceOfPool",
      "outputs": [
        {
          "internalType": "uint256",
          "name": "",
          "type": "uint256"
        }
      ],
      "stateMutability": "view",
      "type": "function"
    },
    {
      "inputs": [],
      "name": "balanceOfWant",
      "outputs": [
        {
          "internalType": "uint256",
          "name": "",
          "type": "uint256"
        }
      ],
      "stateMutability": "view",
      "type": "function"
    },
    {
      "inputs": [],
      "name": "controller",
      "outputs": [
        {
          "internalType": "address",
          "name": "",
          "type": "address"
        }
      ],
      "stateMutability": "view",
      "type": "function"
    },
    {
      "inputs": [],
      "name": "convexVault",
      "outputs": [
        {
          "internalType": "contract IConvexVault",
          "name": "",
          "type": "address"
        }
      ],
      "stateMutability": "view",
      "type": "function"
    },
    {
      "inputs": [],
      "name": "crv",
      "outputs": [
        {
          "internalType": "address",
          "name": "",
          "type": "address"
        }
      ],
      "stateMutability": "view",
      "type": "function"
    },
    {
      "inputs": [],
      "name": "crvRewards",
      "outputs": [
        {
          "internalType": "contract IConvexRewards",
          "name": "",
          "type": "address"
        }
      ],
      "stateMutability": "view",
      "type": "function"
    },
    {
      "inputs": [],
      "name": "crvethPool",
      "outputs": [
        {
          "internalType": "address",
          "name": "",
          "type": "address"
        }
      ],
      "stateMutability": "view",
      "type": "function"
    },
    {
      "inputs": [],
      "name": "cvx",
      "outputs": [
        {
          "internalType": "address",
          "name": "",
          "type": "address"
        }
      ],
      "stateMutability": "view",
      "type": "function"
    },
    {
      "inputs": [],
      "name": "cvxethPool",
      "outputs": [
        {
          "internalType": "address",
          "name": "",
          "type": "address"
        }
      ],
      "stateMutability": "view",
      "type": "function"
    },
    {
      "inputs": [],
      "name": "deposit",
      "outputs": [],
      "stateMutability": "nonpayable",
      "type": "function"
    },
    {
      "inputs": [],
      "name": "fraxPool",
      "outputs": [
        {
          "internalType": "address",
          "name": "",
          "type": "address"
        }
      ],
      "stateMutability": "view",
      "type": "function"
    },
    {
      "inputs": [
        {
          "internalType": "uint256[]",
          "name": "_estimates",
          "type": "uint256[]"
        }
      ],
      "name": "harvest",
      "outputs": [],
      "stateMutability": "nonpayable",
      "type": "function"
    },
    {
      "inputs": [],
      "name": "manager",
      "outputs": [
        {
          "internalType": "contract IManager",
          "name": "",
          "type": "address"
        }
      ],
      "stateMutability": "view",
      "type": "function"
    },
    {
      "inputs": [],
      "name": "name",
      "outputs": [
        {
          "internalType": "string",
          "name": "",
          "type": "string"
        }
      ],
      "stateMutability": "view",
      "type": "function"
    },
    {
      "inputs": [],
      "name": "pid",
      "outputs": [
        {
          "internalType": "uint256",
          "name": "",
          "type": "uint256"
        }
      ],
      "stateMutability": "view",
      "type": "function"
    },
    {
      "inputs": [],
      "name": "router",
      "outputs": [
        {
          "internalType": "contract ISwap",
          "name": "",
          "type": "address"
        }
      ],
      "stateMutability": "view",
      "type": "function"
    },
    {
      "inputs": [
        {
          "internalType": "uint256",
          "name": "",
          "type": "uint256"
        }
      ],
      "name": "routerArray",
      "outputs": [
        {
          "internalType": "address",
          "name": "",
          "type": "address"
        }
      ],
      "stateMutability": "view",
      "type": "function"
    },
    {
      "inputs": [
        {
          "internalType": "uint256",
          "name": "_routerIndex",
          "type": "uint256"
        }
      ],
      "name": "setDefaultRouter",
      "outputs": [],
      "stateMutability": "nonpayable",
      "type": "function"
    },
    {
      "inputs": [
        {
          "internalType": "address[]",
          "name": "_routerArray",
          "type": "address[]"
        },
        {
          "internalType": "address[]",
          "name": "_tokenArray",
          "type": "address[]"
        }
      ],
      "name": "setRouter",
      "outputs": [],
      "stateMutability": "nonpayable",
      "type": "function"
    },
    {
      "inputs": [],
      "name": "skim",
      "outputs": [],
      "stateMutability": "nonpayable",
      "type": "function"
    },
    {
      "inputs": [],
      "name": "stableSwapPool",
      "outputs": [
        {
          "internalType": "address",
          "name": "",
          "type": "address"
        }
      ],
      "stateMutability": "view",
      "type": "function"
    },
    {
      "inputs": [],
      "name": "usdc",
      "outputs": [
        {
          "internalType": "address",
          "name": "",
          "type": "address"
        }
      ],
      "stateMutability": "view",
      "type": "function"
    },
    {
      "inputs": [],
      "name": "want",
      "outputs": [
        {
          "internalType": "address",
          "name": "",
          "type": "address"
        }
      ],
      "stateMutability": "view",
      "type": "function"
    },
    {
      "inputs": [],
      "name": "weth",
      "outputs": [
        {
          "internalType": "address",
          "name": "",
          "type": "address"
        }
      ],
      "stateMutability": "view",
      "type": "function"
    },
    {
      "inputs": [
        {
          "internalType": "uint256",
          "name": "_amount",
          "type": "uint256"
        }
      ],
      "name": "withdraw",
      "outputs": [],
      "stateMutability": "nonpayable",
      "type": "function"
    },
    {
      "inputs": [
        {
          "internalType": "address",
          "name": "_asset",
          "type": "address"
        }
      ],
      "name": "withdraw",
      "outputs": [],
      "stateMutability": "nonpayable",
      "type": "function"
    },
    {
      "inputs": [],
      "name": "withdrawAll",
      "outputs": [],
      "stateMutability": "nonpayable",
      "type": "function"
    }
  ],
  "transactionHash": "0x8756b946f086060849589b7d5d15c9cb1a6c1a774bd2f1024d096e02c5768399",
  "args": [
    "NumisMe Convex Strategy: FRAXCRV",
    "0xd632f22692FaC7611d2AA1C0D552930D43CAEd3B",
    "0x8301AE4fc9c624d1D396cbDAa1ed877821D7C511",
    "0xB576491F1E6e5E62f1d8F26062Ee822B40B0E0d4",
    "0xC02aaA39b223FE8D0A0e5C4F27eAD9083C756Cc2",
    32,
    "0xA0b86991c6218b36c1d19D4a2e9Eb0cE3606eB48",
    "0xd632f22692FaC7611d2AA1C0D552930D43CAEd3B",
    "0xF403C135812408BFbE8713b5A23a04b3D48AAE31",
    "0xA79828DF1850E8a3A3064576f380D90aECDD3359",
    "0x6dB53Ed036135f2c299d54353b2ae7e748a85628",
    "0xec5CdD1a415bE0b1d513cc420e4fC80CA3ca7590",
    [
      "0xd9e1cE17f2641f24aE83637ab66a2cca9C378B9F",
      "0x7a250d5630B4cF539739dF2C5dAcb4c659F2488D"
    ]
  ],
  "numDeployments": 1,
  "solcInputHash": "2f52fc9e2c9436dbe54a500dcc1ea2eb",
  "bytecode": "0x6102406040523480156200001257600080fd5b50604051620038963803806200389683398181016040526101a08110156200003957600080fd5b81019080805160405193929190846401000000008211156200005a57600080fd5b9083019060208201858111156200007057600080fd5b82516401000000008111828201881017156200008b57600080fd5b82525081516020918201929091019080838360005b83811015620000ba578181015183820152602001620000a0565b50505050905090810190601f168015620000e85780820380516001836020036101000a031916815260200191505b5060408181526020830151908301516060840151608085015160a086015160c087015160e08801516101008901516101208a01516101408b01516101608c0151610180909c0180519a9e999d989c979b969a95999498939792969195929491939192846401000000008211156200015e57600080fd5b9083019060208201858111156200017457600080fd5b82518660208202830111640100000000821117156200019257600080fd5b82525081516020918201928201910280838360005b83811015620001c1578181015183820152602001620001a7565b505050509050016040525050508c83838e8c858560009080519060200190620001ec92919062000dbe565b506001600160601b0319606084811b821660805286811b821660c05285811b821660e05283901b1660a05280516200026b576040805162461bcd60e51b815260206004820152601e60248201527f4d75737420696e707574206174206c65617374206f6e6520726f757465720000604482015290519081900360640190fd5b80516200028090600190602084019062000e43565b50806000815181106200028f57fe5b6020026020010151600260006101000a8154816001600160a01b0302191690836001600160a01b0316021790555060005b8151811015620003485762000304828281518110620002db57fe5b60200260200101516000856001600160a01b03166200065560201b620012d9179092919060201c565b6200033f8282815181106200031557fe5b6020026020010151600019856001600160a01b03166200065560201b620012d9179092919060201c565b600101620002c0565b50505050506001600160a01b038716151591506200039f9050576040805162461bcd60e51b815260206004820152600d60248201526c0857d8dbdb9d995e15985d5b1d609a1b604482015290519081900360640190fd5b6001600160a01b038416620003ee576040805162461bcd60e51b815260206004820152601060248201526f0857dcdd18589b1954ddd85c141bdbdb60821b604482015290519081900360640190fd5b6000856001600160a01b0316631526fe278a6040518263ffffffff1660e01b81526004018082815260200191505060c06040518083038186803b1580156200043557600080fd5b505afa1580156200044a573d6000803e3d6000fd5b505050506040513d60c08110156200046157600080fd5b50606001516040805163c661065760e01b81526001600482015290519192506001600160a01b038e169163c661065791602480820192602092909190829003018186803b158015620004b257600080fd5b505afa158015620004c7573d6000803e3d6000fd5b505050506040513d6020811015620004de57600080fd5b505160601b6001600160601b031916610100526040805163c661065760e01b81526001600482015290516001600160a01b038d169163c6610657916024808301926020929190829003018186803b1580156200053957600080fd5b505afa1580156200054e573d6000803e3d6000fd5b505050506040513d60208110156200056557600080fd5b5051606090811b6001600160601b03199081166101205289821b81166101405288821b8116610220526101a08b905287821b81166101c05282821b81166101e05286821b8116610200528d821b811661016052908c901b1661018052620005e56001600160a01b0389168660001962000655602090811b620012d917901c565b6200060c866000198f6001600160a01b03166200065560201b620012d9179092919060201c565b62000633856000198f6001600160a01b03166200065560201b620012d9179092919060201c565b620006418c8c848462000779565b505050505050505050505050505062000ee1565b801580620006df575060408051636eb1769f60e11b81523060048201526001600160a01b03848116602483015291519185169163dd62ed3e91604480820192602092909190829003018186803b158015620006af57600080fd5b505afa158015620006c4573d6000803e3d6000fd5b505050506040513d6020811015620006db57600080fd5b5051155b6200071c5760405162461bcd60e51b8152600401808060200182810382526036815260200180620038606036913960400191505060405180910390fd5b604080516001600160a01b038416602482015260448082018490528251808303909101815260649091019091526020810180516001600160e01b0390811663095ea7b360e01b179091526200077491859162000acf16565b505050565b62000811846000866001600160a01b031663c661065760016040518263ffffffff1660e01b81526004018082815260200191505060206040518083038186803b158015620007c657600080fd5b505afa158015620007db573d6000803e3d6000fd5b505050506040513d6020811015620007f257600080fd5b50516001600160a01b0316919062000655602090811b620012d917901c565b6200085f84600019866001600160a01b031663c661065760016040518263ffffffff1660e01b81526004018082815260200191505060206040518083038186803b158015620007c657600080fd5b620008ac836000856001600160a01b031663c661065760016040518263ffffffff1660e01b81526004018082815260200191505060206040518083038186803b158015620007c657600080fd5b620008fa83600019856001600160a01b031663c661065760016040518263ffffffff1660e01b81526004018082815260200191505060206040518083038186803b158015620007c657600080fd5b6000825190506000826001600160a01b031663d55a23f46040518163ffffffff1660e01b815260040160206040518083038186803b1580156200093c57600080fd5b505afa15801562000951573d6000803e3d6000fd5b505050506040513d60208110156200096857600080fd5b5051905060005b8281101562000ac65760008582815181106200098757fe5b60200260200101519050600083111562000abc5760005b8381101562000aba5762000a64826000886001600160a01b03166340c35446856040518263ffffffff1660e01b81526004018082815260200191505060206040518083038186803b158015620009f357600080fd5b505afa15801562000a08573d6000803e3d6000fd5b505050506040513d602081101562000a1f57600080fd5b50516040805163f7c618c160e01b815290516001600160a01b039092169163f7c618c191600480820192602092909190829003018186803b158015620007c657600080fd5b62000ab182600019886001600160a01b03166340c35446856040518263ffffffff1660e01b81526004018082815260200191505060206040518083038186803b158015620009f357600080fd5b6001016200099e565b505b506001016200096f565b50505050505050565b606062000b2b826040518060400160405280602081526020017f5361666545524332303a206c6f772d6c6576656c2063616c6c206661696c6564815250856001600160a01b031662000b8b60201b620013ec179092919060201c565b805190915015620007745780806020019051602081101562000b4c57600080fd5b5051620007745760405162461bcd60e51b815260040180806020018281038252602a81526020018062003836602a913960400191505060405180910390fd5b606062000b9c848460008562000ba6565b90505b9392505050565b60608247101562000be95760405162461bcd60e51b8152600401808060200182810382526026815260200180620038106026913960400191505060405180910390fd5b62000bf48562000d0e565b62000c46576040805162461bcd60e51b815260206004820152601d60248201527f416464726573733a2063616c6c20746f206e6f6e2d636f6e7472616374000000604482015290519081900360640190fd5b60006060866001600160a01b031685876040518082805190602001908083835b6020831062000c875780518252601f19909201916020918201910162000c66565b6001836020036101000a03801982511681845116808217855250505050505090500191505060006040518083038185875af1925050503d806000811462000ceb576040519150601f19603f3d011682016040523d82523d6000602084013e62000cf0565b606091505b50909250905062000d0382828662000d14565b979650505050505050565b3b151590565b6060831562000d2557508162000b9f565b82511562000d365782518084602001fd5b8160405162461bcd60e51b81526004018080602001828103825283818151815260200191508051906020019080838360005b8381101562000d8257818101518382015260200162000d68565b50505050905090810190601f16801562000db05780820380516001836020036101000a031916815260200191505b509250505060405180910390fd5b828054600181600116156101000203166002900490600052602060002090601f016020900481019282601f1062000e0157805160ff191683800117855562000e31565b8280016001018555821562000e31579182015b8281111562000e3157825182559160200191906001019062000e14565b5062000e3f92915062000ea9565b5090565b82805482825590600052602060002090810192821562000e9b579160200282015b8281111562000e9b57825182546001600160a01b0319166001600160a01b0390911617825560209092019160019091019062000e64565b5062000e3f92915062000ec0565b5b8082111562000e3f576000815560010162000eaa565b5b8082111562000e3f5780546001600160a01b031916815560010162000ec1565b60805160601c60a05160601c60c05160601c60e05160601c6101005160601c6101205160601c6101405160601c6101605160601c6101805160601c6101a0516101c05160601c6101e05160601c6102005160601c6102205160601c61278d62001083600039806105d552806123ff525080610bf852806123d05250806105fb528061105c528061174852806117dc5280611b215280611e465280611f06525080610e695280611bc55250806112845280611b8e5250806105b152806117195250806110ef5280611a38525080610bb05280611a9b52806123505250806110385280611675525080610e8d52806119945250806107885280610aa65280610c1c528061118c52806121925250806106a3528061070852806109b75280610a7b5280610c495280610da15280610dd65280610eda528061100e528061111c52806112a85250806108cc52806109105280610bd4528061195e5280611a7a52806120ee528061226752806122ae52508061073952806107645280610a595280610cb55280610f465280610fec528061108252806114be5280611564525061278d6000f3fe608060405234801561001057600080fd5b50600436106101da5760003560e01c80635f349a1111610104578063c1a3d44c116100a2578063ef9e237911610071578063ef9e2379146104d3578063f106845414610509578063f77c479114610511578063f887ea4014610519576101da565b8063c1a3d44c146104b3578063cacab39d146104bb578063d0e30db0146104c3578063dd0081c7146104cb576101da565b8063722713f7116100de578063722713f714610493578063853828b61461049b578063923c1d61146104a3578063b6bff295146104ab576101da565b80635f349a1114610466578063689538e7146104835780636a4874a11461048b576101da565b80632e1a7d4d1161017c5780634362c0d11161014b5780634362c0d1146103c0578063481c6a75146103c857806351cff8d9146103d05780635d14b06f146103f6576101da565b80632e1a7d4d14610376578063337da0fc146103935780633e413bee146103b05780633fc8cef3146103b8576101da565b806311588086116101b857806311588086146102885780631dd19cb4146102a25780631f1fcd51146102ac5780632d16c4e3146102b4576101da565b806306fdde03146101df5780630bf778d11461025c5780630fab63ab14610280575b600080fd5b6101e7610521565b6040805160208082528351818301528351919283929083019185019080838360005b83811015610221578181015183820152602001610209565b50505050905090810190601f16801561024e5780820380516001836020036101000a031916815260200191505b509250505060405180910390f35b6102646105af565b604080516001600160a01b039092168252519081900360200190f35b6102646105d3565b6102906105f7565b60408051918252519081900360200190f35b6102aa610698565b005b610264610762565b6102aa600480360360408110156102ca57600080fd5b8101906020810181356401000000008111156102e557600080fd5b8201836020820111156102f757600080fd5b8035906020019184602083028401116401000000008311171561031957600080fd5b91939092909160208101903564010000000081111561033757600080fd5b82018360208201111561034957600080fd5b8035906020019184602083028401116401000000008311171561036b57600080fd5b509092509050610786565b6102aa6004803603602081101561038c57600080fd5b50356109ac565b6102aa600480360360208110156103a957600080fd5b5035610aa4565b610264610bae565b610264610bd2565b610264610bf6565b610264610c1a565b6102aa600480360360208110156103e657600080fd5b50356001600160a01b0316610c3e565b6102aa6004803603602081101561040c57600080fd5b81019060208101813564010000000081111561042757600080fd5b82018360208201111561043957600080fd5b8035906020019184602083028401116401000000008311171561045b57600080fd5b509092509050610dcb565b6102646004803603602081101561047c57600080fd5b5035610e40565b610264610e67565b610264610e8b565b610290610eaf565b6102aa610ecf565b610264611036565b61026461105a565b61029061107e565b6102646110ed565b6102aa611111565b610290611184565b6102aa600480360360608110156104e957600080fd5b506001600160a01b0381358116916020810135909116906040013561118a565b610290611282565b6102646112a6565b6102646112ca565b6000805460408051602060026001851615610100026000190190941693909304601f810184900484028201840190925281815292918301828280156105a75780601f1061057c576101008083540402835291602001916105a7565b820191906000526020600020905b81548152906001019060200180831161058a57829003601f168201915b505050505081565b7f000000000000000000000000000000000000000000000000000000000000000081565b7f000000000000000000000000000000000000000000000000000000000000000081565b60007f00000000000000000000000000000000000000000000000000000000000000006001600160a01b03166370a08231306040518263ffffffff1660e01b815260040180826001600160a01b0316815260200191505060206040518083038186803b15801561066657600080fd5b505afa15801561067a573d6000803e3d6000fd5b505050506040513d602081101561069057600080fd5b505190505b90565b336001600160a01b037f00000000000000000000000000000000000000000000000000000000000000001614610703576040805162461bcd60e51b815260206004820152600b60248201526a10b1b7b73a3937b63632b960a91b604482015290519081900360640190fd5b6107607f000000000000000000000000000000000000000000000000000000000000000061072f61107e565b6001600160a01b037f0000000000000000000000000000000000000000000000000000000000000000169190611405565b565b7f000000000000000000000000000000000000000000000000000000000000000081565b7f00000000000000000000000000000000000000000000000000000000000000006001600160a01b0316635aa6e6756040518163ffffffff1660e01b815260040160206040518083038186803b1580156107df57600080fd5b505afa1580156107f3573d6000803e3d6000fd5b505050506040513d602081101561080957600080fd5b50516001600160a01b03163314610855576040805162461bcd60e51b815260206004820152600b60248201526a21676f7665726e616e636560a81b604482015290519081900360640190fd5b61086160018585612610565b508383600081811061086f57fe5b6002805460209290920293909301356001600160a01b03166001600160a01b0319909116179091555060008382825b828110156109a2578787828181106108b257fe5b905060200201356001600160a01b031693506109038460007f00000000000000000000000000000000000000000000000000000000000000006001600160a01b03166112d99092919063ffffffff16565b6109396001600160a01b037f000000000000000000000000000000000000000000000000000000000000000016856000196112d9565b60005b828110156109995761097e85600089898581811061095657fe5b905060200201356001600160a01b03166001600160a01b03166112d99092919063ffffffff16565b6109918560001989898581811061095657fe5b60010161093c565b5060010161089e565b5050505050505050565b336001600160a01b037f00000000000000000000000000000000000000000000000000000000000000001614610a17576040805162461bcd60e51b815260206004820152600b60248201526a10b1b7b73a3937b63632b960a91b604482015290519081900360640190fd5b6000610a2161107e565b905081811015610a4c57610a3d610a388383611457565b6114b9565b9150610a49828261160f565b91505b610aa06001600160a01b037f0000000000000000000000000000000000000000000000000000000000000000167f000000000000000000000000000000000000000000000000000000000000000084611405565b5050565b7f00000000000000000000000000000000000000000000000000000000000000006001600160a01b0316635aa6e6756040518163ffffffff1660e01b815260040160206040518083038186803b158015610afd57600080fd5b505afa158015610b11573d6000803e3d6000fd5b505050506040513d6020811015610b2757600080fd5b50516001600160a01b03163314610b73576040805162461bcd60e51b815260206004820152600b60248201526a21676f7665726e616e636560a81b604482015290519081900360640190fd5b60018181548110610b8057fe5b600091825260209091200154600280546001600160a01b0319166001600160a01b0390921691909117905550565b7f000000000000000000000000000000000000000000000000000000000000000081565b7f000000000000000000000000000000000000000000000000000000000000000081565b7f000000000000000000000000000000000000000000000000000000000000000081565b7f000000000000000000000000000000000000000000000000000000000000000081565b336001600160a01b037f00000000000000000000000000000000000000000000000000000000000000001614610ca9576040805162461bcd60e51b815260206004820152600b60248201526a10b1b7b73a3937b63632b960a91b604482015290519081900360640190fd5b806001600160a01b03167f00000000000000000000000000000000000000000000000000000000000000006001600160a01b03161415610d19576040805162461bcd60e51b815260206004808301919091526024820152631dd85b9d60e21b604482015290519081900360640190fd5b604080516370a0823160e01b8152306004820152905182916000916001600160a01b038416916370a08231916024808301926020929190829003018186803b158015610d6457600080fd5b505afa158015610d78573d6000803e3d6000fd5b505050506040513d6020811015610d8e57600080fd5b50519050610dc66001600160a01b0383167f000000000000000000000000000000000000000000000000000000000000000083611405565b505050565b336001600160a01b037f00000000000000000000000000000000000000000000000000000000000000001614610e36576040805162461bcd60e51b815260206004820152600b60248201526a10b1b7b73a3937b63632b960a91b604482015290519081900360640190fd5b610aa08282611669565b60018181548110610e4d57fe5b6000918252602090912001546001600160a01b0316905081565b7f000000000000000000000000000000000000000000000000000000000000000081565b7f000000000000000000000000000000000000000000000000000000000000000081565b6000610eca610ebc6105f7565b610ec461107e565b9061160f565b905090565b336001600160a01b037f00000000000000000000000000000000000000000000000000000000000000001614610f3a576040805162461bcd60e51b815260206004820152600b60248201526a10b1b7b73a3937b63632b960a91b604482015290519081900360640190fd5b610f42611afe565b60007f00000000000000000000000000000000000000000000000000000000000000006001600160a01b03166370a08231306040518263ffffffff1660e01b815260040180826001600160a01b0316815260200191505060206040518083038186803b158015610fb157600080fd5b505afa158015610fc5573d6000803e3d6000fd5b505050506040513d6020811015610fdb57600080fd5b505190506110336001600160a01b037f0000000000000000000000000000000000000000000000000000000000000000167f000000000000000000000000000000000000000000000000000000000000000083611405565b50565b7f000000000000000000000000000000000000000000000000000000000000000081565b7f000000000000000000000000000000000000000000000000000000000000000081565b60007f00000000000000000000000000000000000000000000000000000000000000006001600160a01b03166370a08231306040518263ffffffff1660e01b815260040180826001600160a01b0316815260200191505060206040518083038186803b15801561066657600080fd5b7f000000000000000000000000000000000000000000000000000000000000000081565b336001600160a01b037f0000000000000000000000000000000000000000000000000000000000000000161461117c576040805162461bcd60e51b815260206004820152600b60248201526a10b1b7b73a3937b63632b960a91b604482015290519081900360640190fd5b610760611b7e565b61271081565b7f00000000000000000000000000000000000000000000000000000000000000006001600160a01b0316635aa6e6756040518163ffffffff1660e01b815260040160206040518083038186803b1580156111e357600080fd5b505afa1580156111f7573d6000803e3d6000fd5b505050506040513d602081101561120d57600080fd5b50516001600160a01b03163314611259576040805162461bcd60e51b815260206004820152600b60248201526a21676f7665726e616e636560a81b604482015290519081900360640190fd5b61126e6001600160a01b0384168360006112d9565b610dc66001600160a01b03841683836112d9565b7f000000000000000000000000000000000000000000000000000000000000000081565b7f000000000000000000000000000000000000000000000000000000000000000081565b6002546001600160a01b031681565b80158061135f575060408051636eb1769f60e11b81523060048201526001600160a01b03848116602483015291519185169163dd62ed3e91604480820192602092909190829003018186803b15801561133157600080fd5b505afa158015611345573d6000803e3d6000fd5b505050506040513d602081101561135b57600080fd5b5051155b61139a5760405162461bcd60e51b81526004018080602001828103825260368152602001806127226036913960400191505060405180910390fd5b604080516001600160a01b038416602482015260448082018490528251808303909101815260649091019091526020810180516001600160e01b031663095ea7b360e01b179052610dc6908490611c37565b60606113fb8484600085611ce8565b90505b9392505050565b604080516001600160a01b038416602482015260448082018490528251808303909101815260649091019091526020810180516001600160e01b031663a9059cbb60e01b179052610dc6908490611c37565b6000828211156114ae576040805162461bcd60e51b815260206004820152601e60248201527f536166654d6174683a207375627472616374696f6e206f766572666c6f770000604482015290519081900360640190fd5b508082035b92915050565b6000807f00000000000000000000000000000000000000000000000000000000000000006001600160a01b03166370a08231306040518263ffffffff1660e01b815260040180826001600160a01b0316815260200191505060206040518083038186803b15801561152957600080fd5b505afa15801561153d573d6000803e3d6000fd5b505050506040513d602081101561155357600080fd5b5051905061156083611e44565b60007f00000000000000000000000000000000000000000000000000000000000000006001600160a01b03166370a08231306040518263ffffffff1660e01b815260040180826001600160a01b0316815260200191505060206040518083038186803b1580156115cf57600080fd5b505afa1580156115e3573d6000803e3d6000fd5b505050506040513d60208110156115f957600080fd5b505190506116078183611457565b949350505050565b6000828201838110156113fe576040805162461bcd60e51b815260206004820152601b60248201527f536166654d6174683a206164646974696f6e206f766572666c6f770000000000604482015290519081900360640190fd5b611671611edf565b60007f00000000000000000000000000000000000000000000000000000000000000006001600160a01b03166370a08231306040518263ffffffff1660e01b815260040180826001600160a01b0316815260200191505060206040518083038186803b1580156116e057600080fd5b505afa1580156116f4573d6000803e3d6000fd5b505050506040513d602081101561170a57600080fd5b505190508015611744576117447f000000000000000000000000000000000000000000000000000000000000000060016000846001611f4e565b60007f00000000000000000000000000000000000000000000000000000000000000006001600160a01b031663d55a23f46040518163ffffffff1660e01b815260040160206040518083038186803b15801561179f57600080fd5b505afa1580156117b3573d6000803e3d6000fd5b505050506040513d60208110156117c957600080fd5b5051905060005b8181101561198f5760007f00000000000000000000000000000000000000000000000000000000000000006001600160a01b03166340c35446836040518263ffffffff1660e01b81526004018082815260200191505060206040518083038186803b15801561183e57600080fd5b505afa158015611852573d6000803e3d6000fd5b505050506040513d602081101561186857600080fd5b50516040805163f7c618c160e01b815290516001600160a01b039092169163f7c618c191600480820192602092909190829003018186803b1580156118ac57600080fd5b505afa1580156118c0573d6000803e3d6000fd5b505050506040513d60208110156118d657600080fd5b5051604080516370a0823160e01b815230600482015290519192506000916001600160a01b038416916370a08231916024808301926020929190829003018186803b15801561192457600080fd5b505afa158015611938573d6000803e3d6000fd5b505050506040513d602081101561194e57600080fd5b50519050801561198557611985827f0000000000000000000000000000000000000000000000000000000000000000836001611fca565b50506001016117d0565b5060007f00000000000000000000000000000000000000000000000000000000000000006001600160a01b03166370a08231306040518263ffffffff1660e01b815260040180826001600160a01b0316815260200191505060206040518083038186803b1580156119ff57600080fd5b505afa158015611a13573d6000803e3d6000fd5b505050506040513d6020811015611a2957600080fd5b505190508015611a6357611a637f000000000000000000000000000000000000000000000000000000000000000060016000846001611f4e565b6000611a6d6120ea565b90508015611af657611ac27f00000000000000000000000000000000000000000000000000000000000000007f0000000000000000000000000000000000000000000000000000000000000000836001611fca565b611ade86866000818110611ad257fe5b90506020020135612328565b6000611ae861107e565b1115611af657611af6611b7e565b505050505050565b604080516324f81cd160e11b815260006004820181905291516001600160a01b037f000000000000000000000000000000000000000000000000000000000000000016926349f039a2926024808201939182900301818387803b158015611b6457600080fd5b505af1158015611b78573d6000803e3d6000fd5b50505050565b6040805163303acfe760e11b81527f000000000000000000000000000000000000000000000000000000000000000060048201526001602482015290516001600160a01b037f000000000000000000000000000000000000000000000000000000000000000016916360759fce9160448083019260209291908290030181600087803b158015611c0d57600080fd5b505af1158015611c21573d6000803e3d6000fd5b505050506040513d6020811015610aa057600080fd5b6060611c8c826040518060400160405280602081526020017f5361666545524332303a206c6f772d6c6576656c2063616c6c206661696c6564815250856001600160a01b03166113ec9092919063ffffffff16565b805190915015610dc657808060200190516020811015611cab57600080fd5b5051610dc65760405162461bcd60e51b815260040180806020018281038252602a8152602001806126f8602a913960400191505060405180910390fd5b606082471015611d295760405162461bcd60e51b81526004018080602001828103825260268152602001806126b16026913960400191505060405180910390fd5b611d32856124a6565b611d83576040805162461bcd60e51b815260206004820152601d60248201527f416464726573733a2063616c6c20746f206e6f6e2d636f6e7472616374000000604482015290519081900360640190fd5b60006060866001600160a01b031685876040518082805190602001908083835b60208310611dc25780518252601f199092019160209182019101611da3565b6001836020036101000a03801982511681845116808217855250505050505090500191505060006040518083038185875af1925050503d8060008114611e24576040519150601f19603f3d011682016040523d82523d6000602084013e611e29565b606091505b5091509150611e398282866124ac565b979650505050505050565b7f00000000000000000000000000000000000000000000000000000000000000006001600160a01b031663c32e72028260006040518363ffffffff1660e01b815260040180838152602001821515815260200192505050602060405180830381600087803b158015611eb557600080fd5b505af1158015611ec9573d6000803e3d6000fd5b505050506040513d6020811015610dc657600080fd5b60408051637050ccd960e01b81523060048201526001602482015290516001600160a01b037f00000000000000000000000000000000000000000000000000000000000000001691637050ccd99160448083019260209291908290030181600087803b158015611c0d57600080fd5b60408051630b68372160e31b81526004810186905260248101859052604481018490526064810183905290516001600160a01b03871691635b41b90891608480830192600092919082900301818387803b158015611fab57600080fd5b505af1158015611fbf573d6000803e3d6000fd5b505050505050505050565b60408051600280825260608083018452926020830190803683370190505090508481600081518110611ff857fe5b60200260200101906001600160a01b031690816001600160a01b031681525050838160018151811061202657fe5b6001600160a01b039283166020918202929092018101919091526002546040516338ed173960e01b8152600481018781526024820187905230606483018190526402540be4006084840181905260a060448501908152885160a4860152885195909716966338ed1739968b968b968b96939260c490910191878201910280838360005b838110156120c15781810151838201526020016120a9565b505050509050019650505050505050600060405180830381600087803b158015611fab57600080fd5b60007f00000000000000000000000000000000000000000000000000000000000000006001600160a01b03166370a08231306040518263ffffffff1660e01b815260040180826001600160a01b0316815260200191505060206040518083038186803b15801561215957600080fd5b505afa15801561216d573d6000803e3d6000fd5b505050506040513d602081101561218357600080fd5b505190508015610695576000807f00000000000000000000000000000000000000000000000000000000000000006001600160a01b031663da633d316040518163ffffffff1660e01b815260040160606040518083038186803b1580156121e957600080fd5b505afa1580156121fd573d6000803e3d6000fd5b505050506040513d606081101561221357600080fd5b50602081015160409091015190925090506000811580159061223d57506001600160a01b03831615155b1561228e576122586127106122528685612550565b906125a9565b905061228e6001600160a01b037f0000000000000000000000000000000000000000000000000000000000000000168483611405565b604080516370a0823160e01b815230600482015290516001600160a01b037f000000000000000000000000000000000000000000000000000000000000000016916370a08231916024808301926020929190829003018186803b1580156122f457600080fd5b505afa158015612308573d6000803e3d6000fd5b505050506040513d602081101561231e57600080fd5b5051935050505090565b612330612673565b604080516370a0823160e01b815230600482015290516001600160a01b037f000000000000000000000000000000000000000000000000000000000000000016916370a08231916024808301926020929190829003018186803b15801561239657600080fd5b505afa1580156123aa573d6000803e3d6000fd5b505050506040513d60208110156123c057600080fd5b50518160026020020181815250507f00000000000000000000000000000000000000000000000000000000000000006001600160a01b031663384e03db7f000000000000000000000000000000000000000000000000000000000000000083856040518463ffffffff1660e01b815260040180846001600160a01b0316815260200183600460200280838360005b8381101561246657818101518382015260200161244e565b505050509050018281526020019350505050600060405180830381600087803b15801561249257600080fd5b505af1158015611af6573d6000803e3d6000fd5b3b151590565b606083156124bb5750816113fe565b8251156124cb5782518084602001fd5b8160405162461bcd60e51b81526004018080602001828103825283818151815260200191508051906020019080838360005b838110156125155781810151838201526020016124fd565b50505050905090810190601f1680156125425780820380516001836020036101000a031916815260200191505b509250505060405180910390fd5b60008261255f575060006114b3565b8282028284828161256c57fe5b04146113fe5760405162461bcd60e51b81526004018080602001828103825260218152602001806126d76021913960400191505060405180910390fd5b60008082116125ff576040805162461bcd60e51b815260206004820152601a60248201527f536166654d6174683a206469766973696f6e206279207a65726f000000000000604482015290519081900360640190fd5b81838161260857fe5b049392505050565b828054828255906000526020600020908101928215612663579160200282015b828111156126635781546001600160a01b0319166001600160a01b03843516178255602090920191600190910190612630565b5061266f929150612691565b5090565b60405180608001604052806004906020820280368337509192915050565b5b8082111561266f5780546001600160a01b031916815560010161269256fe416464726573733a20696e73756666696369656e742062616c616e636520666f722063616c6c536166654d6174683a206d756c7469706c69636174696f6e206f766572666c6f775361666545524332303a204552433230206f7065726174696f6e20646964206e6f7420737563636565645361666545524332303a20617070726f76652066726f6d206e6f6e2d7a65726f20746f206e6f6e2d7a65726f20616c6c6f77616e6365a2646970667358221220fe066e9a341d6a5ffc62b128d473f888885cf4e8d11abc64ada77f0473f6452d64736f6c634300060c0033416464726573733a20696e73756666696369656e742062616c616e636520666f722063616c6c5361666545524332303a204552433230206f7065726174696f6e20646964206e6f7420737563636565645361666545524332303a20617070726f76652066726f6d206e6f6e2d7a65726f20746f206e6f6e2d7a65726f20616c6c6f77616e6365",
  "devdoc": {
    "kind": "dev",
    "methods": {
      "approveForSpender(address,address,uint256)": {
        "params": {
          "_amount": "The amount to spend",
          "_spender": "The address of the spender",
          "_token": "The address of the token"
        }
      },
      "balanceOfPool()": {
        "details": "Must be implemented by the strategy"
      },
      "constructor": {
        "params": {
          "_controller": "The address of the controller",
          "_convexVault": "The address of the convex vault",
          "_crvethPool": "The address of crvEthPool",
          "_cvxethPool": "The address of cvxEthPool",
          "_fraxPool": "The address of FRAX pool",
          "_manager": "The address of the manager",
          "_name": "The strategy name",
          "_pid": "The pool id of convex",
          "_routerArray": "The addresses of routers for swapping tokens",
          "_stableSwapPool": "The address of the stable swap pool",
          "_usdc": "The address of USDC",
          "_want": "The desired token of the strategy",
          "_weth": "The address of WETH"
        }
      },
      "setDefaultRouter(uint256)": {
        "params": {
          "_routerIndex": "Gets the address of the router from routerArray"
        }
      },
      "setRouter(address[],address[])": {
        "params": {
          "_routerArray": "The addresses of routers",
          "_tokenArray": "The addresses of tokens that need to be approved by the strategy"
        }
      },
      "withdraw(address)": {
        "params": {
          "_asset": "The address of the token to withdraw"
        }
      },
      "withdraw(uint256)": {
        "params": {
          "_amount": "The amount of the want token to withdraw"
        }
      }
    },
    "version": 1
  },
  "userdoc": {
    "kind": "user",
    "methods": {
      "approveForSpender(address,address,uint256)": {
        "notice": "Approves a token address to be spent by an address"
      },
      "balanceOf()": {
        "notice": "Returns the strategy's balance of the want token plus the balance of pool"
      },
      "balanceOfPool()": {
        "notice": "Returns the balance of the pool"
      },
      "balanceOfWant()": {
        "notice": "Returns the balance of the want token on the strategy"
      },
      "deposit()": {
        "notice": "Deposits funds to the strategy's pool"
      },
      "harvest(uint256[])": {
        "notice": "Harvest funds in the strategy's pool"
      },
      "setDefaultRouter(uint256)": {
        "notice": "Sets the default ISwap-compatible router"
      },
      "setRouter(address[],address[])": {
        "notice": "Sets the address of the ISwap-compatible router"
      },
      "skim()": {
        "notice": "Sends stuck want tokens in the strategy to the controller"
      },
      "withdraw(address)": {
        "notice": "Sends stuck tokens in the strategy to the controller"
      },
      "withdraw(uint256)": {
        "notice": "Initiated from a vault, withdraws funds from the pool"
      },
      "withdrawAll()": {
        "notice": "Withdraws all funds from the strategy"
      }
    },
    "version": 1
  },
  "storageLayout": {
    "storage": [
      {
        "astId": 9697,
        "contract": "contracts/v3/strategies/FraxConvexStrategy.sol:FraxConvexStrategy",
        "label": "name",
        "offset": 0,
        "slot": "0",
        "type": "t_string_storage"
      },
      {
        "astId": 9700,
        "contract": "contracts/v3/strategies/FraxConvexStrategy.sol:FraxConvexStrategy",
        "label": "routerArray",
        "offset": 0,
        "slot": "1",
        "type": "t_array(t_address)dyn_storage"
      },
      {
        "astId": 9703,
        "contract": "contracts/v3/strategies/FraxConvexStrategy.sol:FraxConvexStrategy",
        "label": "router",
        "offset": 0,
        "slot": "2",
        "type": "t_contract(ISwap)8804"
      }
    ],
    "types": {
      "t_address": {
        "encoding": "inplace",
        "label": "address",
        "numberOfBytes": "20"
      },
      "t_array(t_address)dyn_storage": {
        "base": "t_address",
        "encoding": "dynamic_array",
        "label": "address[]",
        "numberOfBytes": "32"
      },
      "t_contract(ISwap)8804": {
        "encoding": "inplace",
        "label": "contract ISwap",
        "numberOfBytes": "20"
      },
      "t_string_storage": {
        "encoding": "bytes",
        "label": "string",
        "numberOfBytes": "32"
      }
    }
  }
}