{
  "address": "0x00aA9F91E83CFeFBd7F80E34A8d1D2A3C5C29Ea5",
  "abi": [
    {
      "inputs": [
        {
          "internalType": "address",
          "name": "_manager",
          "type": "address"
        },
        {
          "internalType": "address",
          "name": "_controller",
          "type": "address"
        }
      ],
      "stateMutability": "nonpayable",
      "type": "constructor"
    },
    {
      "anonymous": false,
      "inputs": [
        {
          "indexed": true,
          "internalType": "address",
          "name": "controller",
          "type": "address"
        },
        {
          "indexed": true,
          "internalType": "address",
          "name": "strategy",
          "type": "address"
        }
      ],
      "name": "Harvest",
      "type": "event"
    },
    {
      "anonymous": false,
      "inputs": [
        {
          "indexed": true,
          "internalType": "address",
          "name": "harvester",
          "type": "address"
        },
        {
          "indexed": false,
          "internalType": "bool",
          "name": "status",
          "type": "bool"
        }
      ],
      "name": "HarvesterSet",
      "type": "event"
    },
    {
      "anonymous": false,
      "inputs": [
        {
          "indexed": true,
          "internalType": "address",
          "name": "vault",
          "type": "address"
        },
        {
          "indexed": true,
          "internalType": "address",
          "name": "strategy",
          "type": "address"
        },
        {
          "indexed": false,
          "internalType": "uint256",
          "name": "timeout",
          "type": "uint256"
        }
      ],
      "name": "StrategyAdded",
      "type": "event"
    },
    {
      "anonymous": false,
      "inputs": [
        {
          "indexed": true,
          "internalType": "address",
          "name": "vault",
          "type": "address"
        },
        {
          "indexed": true,
          "internalType": "address",
          "name": "strategy",
          "type": "address"
        },
        {
          "indexed": false,
          "internalType": "uint256",
          "name": "timeout",
          "type": "uint256"
        }
      ],
      "name": "StrategyRemoved",
      "type": "event"
    },
    {
      "inputs": [],
      "name": "ONE_HUNDRED_PERCENT",
      "outputs": [
        {
          "internalType": "uint256",
          "name": "",
          "type": "uint256"
        }
      ],
      "stateMutability": "view",
      "type": "function"
    },
    {
      "inputs": [
        {
          "internalType": "address",
          "name": "_vault",
          "type": "address"
        },
        {
          "internalType": "address",
          "name": "_strategy",
          "type": "address"
        },
        {
          "internalType": "uint256",
          "name": "_timeout",
          "type": "uint256"
        }
      ],
      "name": "addStrategy",
      "outputs": [],
      "stateMutability": "nonpayable",
      "type": "function"
    },
    {
      "inputs": [
        {
          "internalType": "address",
          "name": "_vault",
          "type": "address"
        }
      ],
      "name": "canHarvest",
      "outputs": [
        {
          "internalType": "bool",
          "name": "",
          "type": "bool"
        }
      ],
      "stateMutability": "view",
      "type": "function"
    },
    {
      "inputs": [],
      "name": "controller",
      "outputs": [
        {
          "internalType": "contract IController",
          "name": "",
          "type": "address"
        }
      ],
      "stateMutability": "view",
      "type": "function"
    },
    {
      "inputs": [
        {
          "internalType": "address",
          "name": "_strategy",
          "type": "address"
        },
        {
          "internalType": "address",
          "name": "_vault",
          "type": "address"
        }
      ],
      "name": "earn",
      "outputs": [],
      "stateMutability": "nonpayable",
      "type": "function"
    },
    {
      "inputs": [
        {
          "internalType": "contract IController",
          "name": "_controller",
          "type": "address"
        },
        {
          "internalType": "address",
          "name": "_strategy",
          "type": "address"
        },
        {
          "internalType": "uint256[]",
          "name": "_estimates",
          "type": "uint256[]"
        }
      ],
      "name": "harvest",
      "outputs": [],
      "stateMutability": "nonpayable",
      "type": "function"
    },
    {
      "inputs": [
        {
          "internalType": "address",
          "name": "_vault",
          "type": "address"
        },
        {
          "internalType": "uint256[]",
          "name": "_estimates",
          "type": "uint256[]"
        }
      ],
      "name": "harvestNextStrategy",
      "outputs": [],
      "stateMutability": "nonpayable",
      "type": "function"
    },
    {
      "inputs": [
        {
          "internalType": "address",
          "name": "",
          "type": "address"
        }
      ],
      "name": "isHarvester",
      "outputs": [
        {
          "internalType": "bool",
          "name": "",
          "type": "bool"
        }
      ],
      "stateMutability": "view",
      "type": "function"
    },
    {
      "inputs": [],
      "name": "manager",
      "outputs": [
        {
          "internalType": "contract IManager",
          "name": "",
          "type": "address"
        }
      ],
      "stateMutability": "view",
      "type": "function"
    },
    {
      "inputs": [
        {
          "internalType": "address",
          "name": "_vault",
          "type": "address"
        },
        {
          "internalType": "address",
          "name": "_strategy",
          "type": "address"
        },
        {
          "internalType": "uint256",
          "name": "_timeout",
          "type": "uint256"
        }
      ],
      "name": "removeStrategy",
      "outputs": [],
      "stateMutability": "nonpayable",
      "type": "function"
    },
    {
      "inputs": [
        {
          "internalType": "address",
          "name": "_harvester",
          "type": "address"
        },
        {
          "internalType": "bool",
          "name": "_status",
          "type": "bool"
        }
      ],
      "name": "setHarvester",
      "outputs": [],
      "stateMutability": "nonpayable",
      "type": "function"
    },
    {
      "inputs": [
        {
          "internalType": "uint256",
          "name": "_slippage",
          "type": "uint256"
        }
      ],
      "name": "setSlippage",
      "outputs": [],
      "stateMutability": "nonpayable",
      "type": "function"
    },
    {
      "inputs": [],
      "name": "slippage",
      "outputs": [
        {
          "internalType": "uint256",
          "name": "",
          "type": "uint256"
        }
      ],
      "stateMutability": "view",
      "type": "function"
    },
    {
      "inputs": [
        {
          "internalType": "address",
          "name": "",
          "type": "address"
        }
      ],
      "name": "strategies",
      "outputs": [
        {
          "internalType": "uint256",
          "name": "timeout",
          "type": "uint256"
        },
        {
          "internalType": "uint256",
          "name": "lastCalled",
          "type": "uint256"
        }
      ],
      "stateMutability": "view",
      "type": "function"
    },
    {
      "inputs": [
        {
          "internalType": "address",
          "name": "_vault",
          "type": "address"
        }
      ],
      "name": "strategyAddresses",
      "outputs": [
        {
          "internalType": "address[]",
          "name": "",
          "type": "address[]"
        }
      ],
      "stateMutability": "view",
      "type": "function"
    }
  ],
  "transactionHash": "0x087f3492774aa0505c3a76e1e6a380be65688561d1423f45835e09b63b27687c",
  "args": [
    "0xec5CdD1a415bE0b1d513cc420e4fC80CA3ca7590",
    "0x6dB53Ed036135f2c299d54353b2ae7e748a85628"
  ],
  "numDeployments": 1,
  "solcInputHash": "2f52fc9e2c9436dbe54a500dcc1ea2eb",
  "bytecode": "0x60c060405234801561001057600080fd5b5060405161115d38038061115d8339818101604052604081101561003357600080fd5b5080516020909101516001600160601b0319606092831b8116608052911b1660a05260805160601c60a05160601c6110c661009760003980610c9a5280610f4b52508061044f52806106ca528061070c528061085e5280610e3452506110c66000f3fe608060405234801561001057600080fd5b50600436106100f55760003560e01c80636bc9a5a911610097578063eeabd79f11610066578063eeabd79f14610382578063f0fa55a914610402578063f77c47911461041f578063fb70261a14610427576100f5565b80636bc9a5a91461029c5780639af409dd146102ca578063a71bbfd514610340578063dd0081c71461037a576100f5565b8063461c420a116100d3578063461c420a14610183578063481c6a751461020c5780634b704acd146102305780636bb3722e14610266576100f5565b806331b71057146100fa57806339ebf8231461012a5780633e032a3b14610169575b600080fd5b6101286004803603604081101561011057600080fd5b506001600160a01b038135169060200135151561044d565b005b6101506004803603602081101561014057600080fd5b50356001600160a01b031661057c565b6040805192835260208301919091528051918290030190f35b610171610595565b60408051918252519081900360200190f35b6101286004803603606081101561019957600080fd5b6001600160a01b0382358116926020810135909116918101906060810160408201356401000000008111156101cd57600080fd5b8201836020820111156101df57600080fd5b8035906020019184602083028401116401000000008311171561020157600080fd5b50909250905061059b565b6102146106c8565b604080516001600160a01b039092168252519081900360200190f35b6101286004803603606081101561024657600080fd5b506001600160a01b038135811691602081013590911690604001356106ec565b6101286004803603606081101561027c57600080fd5b506001600160a01b0381358116916020810135909116906040013561083e565b610128600480360360408110156102b257600080fd5b506001600160a01b0381358116916020013516610ac9565b6102f0600480360360208110156102e057600080fd5b50356001600160a01b0316610b7d565b60408051602080825283518183015283519192839290830191858101910280838360005b8381101561032c578181015183820152602001610314565b505050509050019250505060405180910390f35b6103666004803603602081101561035657600080fd5b50356001600160a01b0316610bf6565b604080519115158252519081900360200190f35b610171610c0b565b6101286004803603604081101561039857600080fd5b6001600160a01b0382351691908101906040810160208201356401000000008111156103c357600080fd5b8201836020820111156103d557600080fd5b803590602001918460208302840111640100000000831117156103f757600080fd5b509092509050610c11565b6101286004803603602081101561041857600080fd5b5035610e32565b610214610f49565b6103666004803603602081101561043d57600080fd5b50356001600160a01b0316610f6d565b7f00000000000000000000000000000000000000000000000000000000000000006001600160a01b0316631fe4a6866040518163ffffffff1660e01b815260040160206040518083038186803b1580156104a657600080fd5b505afa1580156104ba573d6000803e3d6000fd5b505050506040513d60208110156104d057600080fd5b50516001600160a01b0316331461051c576040805162461bcd60e51b815260206004820152600b60248201526a085cdd1c985d1959da5cdd60aa1b604482015290519081900360640190fd5b6001600160a01b038216600081815260026020908152604091829020805460ff1916851515908117909155825190815291517f0dd4aeebdb71d8f88640d3361815b0e64e31aaf0ee73ad7f5a421115fac879ae9281900390910190a25050565b6001602081905260009182526040909120805491015482565b60005481565b3360009081526002602052604090205460ff166105ec576040805162461bcd60e51b815260206004820152600a60248201526910b430b93b32b9ba32b960b11b604482015290519081900360640190fd5b836001600160a01b031663423344838484846040518463ffffffff1660e01b815260040180846001600160a01b03168152602001806020018281038252848482818152602001925060200280828437600081840152601f19601f820116905080830192505050945050505050600060405180830381600087803b15801561067257600080fd5b505af1158015610686573d6000803e3d6000fd5b50506040516001600160a01b038087169350871691507ffdfdf879d9abdea70f1d228c39cf14f5e7179a54f36b378f29bccfe7648f333e90600090a350505050565b7f000000000000000000000000000000000000000000000000000000000000000081565b60408051633577910560e11b815233600482015290516001600160a01b037f00000000000000000000000000000000000000000000000000000000000000001691636aef220a916024808301926020929190829003018186803b15801561075257600080fd5b505afa158015610766573d6000803e3d6000fd5b505050506040513d602081101561077c57600080fd5b50516107bd576040805162461bcd60e51b815260206004820152600b60248201526a10b1b7b73a3937b63632b960a91b604482015290519081900360640190fd5b6001600160a01b0383811660008181526001602081815260408084206002810180549485018155855282852090930180546001600160a01b03191696891696871790559284905290859055815185815291517fc2008aa15e9b0989ec7ae02bc3d8054428c527c989269ffb2a5bff829028a0129281900390910190a3505050565b60408051633577910560e11b815233600482015290516001600160a01b037f00000000000000000000000000000000000000000000000000000000000000001691636aef220a916024808301926020929190829003018186803b1580156108a457600080fd5b505afa1580156108b8573d6000803e3d6000fd5b505050506040513d60208110156108ce57600080fd5b505161090f576040805162461bcd60e51b815260206004820152600b60248201526a10b1b7b73a3937b63632b960a91b604482015290519081900360640190fd5b6001600160a01b0383166000908152600160205260408120600201549080805b83811015610992576001600160a01b0387811660009081526001602052604090206002018054918816918390811061096357fe5b6000918252602090912001546001600160a01b0316141561098a5780925060019150610992565b60010161092f565b508015610ac1576001600160a01b0386166000908152600160208190526040909120600201906109c3908590610faf565b815481106109cd57fe5b60009182526020808320909101546001600160a01b03898116845260019092526040909220600201805491909216919084908110610a0757fe5b600091825260208083209190910180546001600160a01b0319166001600160a01b039485161790559188168152600190915260409020600201805480610a4957fe5b60008281526020808220830160001990810180546001600160a01b03191690559092019092556001600160a01b0388811680845260018352604093849020889055835188815293519189169390927fdd3e131c7baafda30070fc3f53c5153570a3e6552809d20e2b682dd30fa7cc6e92918290030190a35b505050505050565b3360009081526002602052604090205460ff16610b1a576040805162461bcd60e51b815260206004820152600a60248201526910b430b93b32b9ba32b960b11b604482015290519081900360640190fd5b806001600160a01b031663fdb5fefc836040518263ffffffff1660e01b815260040180826001600160a01b03168152602001915050600060405180830381600087803b158015610b6957600080fd5b505af1158015610ac1573d6000803e3d6000fd5b6001600160a01b038116600090815260016020908152604091829020600201805483518184028101840190945280845260609392830182828015610bea57602002820191906000526020600020905b81546001600160a01b03168152600190910190602001808311610bcc575b50505050509050919050565b60026020526000908152604090205460ff1681565b61271081565b610c1a83610f6d565b610c59576040805162461bcd60e51b815260206004820152600b60248201526a0858d85b92185c9d995cdd60aa1b604482015290519081900360640190fd5b6001600160a01b038316600090815260016020526040812060020180548290610c7e57fe5b6000918252602090912001546001600160a01b03169050610cc17f000000000000000000000000000000000000000000000000000000000000000082858561059b565b6001600160a01b03841660009081526001602081905260409091206002015490811115610e0e5760608167ffffffffffffffff81118015610d0157600080fd5b50604051908082528060200260200182016040528015610d2b578160200160208202803683370190505b50905060005b60018303811015610dbc5760016000886001600160a01b03166001600160a01b031681526020019081526020016000206002018160010181548110610d7257fe5b9060005260206000200160009054906101000a90046001600160a01b0316828281518110610d9c57fe5b6001600160a01b0390921660209283029190910190910152600101610d31565b5082816001840381518110610dcd57fe5b6001600160a01b03928316602091820292909201810191909152908716600090815260018252604090208251610e0b9260029092019184019061100c565b50505b505050506001600160a01b0316600090815260016020819052604090912042910155565b7f00000000000000000000000000000000000000000000000000000000000000006001600160a01b0316631fe4a6866040518163ffffffff1660e01b815260040160206040518083038186803b158015610e8b57600080fd5b505afa158015610e9f573d6000803e3d6000fd5b505050506040513d6020811015610eb557600080fd5b50516001600160a01b03163314610f01576040805162461bcd60e51b815260206004820152600b60248201526a085cdd1c985d1959da5cdd60aa1b604482015290519081900360640190fd5b6127108110610f44576040805162461bcd60e51b815260206004820152600a602482015269215f736c69707061676560b01b604482015290519081900360640190fd5b600055565b7f000000000000000000000000000000000000000000000000000000000000000081565b6001600160a01b0381166000908152600160205260408120600281015415801590610fa857508054610fa0904290610faf565b816001015411155b9392505050565b600082821115611006576040805162461bcd60e51b815260206004820152601e60248201527f536166654d6174683a207375627472616374696f6e206f766572666c6f770000604482015290519081900360640190fd5b50900390565b828054828255906000526020600020908101928215611061579160200282015b8281111561106157825182546001600160a01b0319166001600160a01b0390911617825560209092019160019091019061102c565b5061106d929150611071565b5090565b5b8082111561106d5780546001600160a01b031916815560010161107256fea26469706673582212209c5ae9496eb31c50a42eb3ecbf69dd6db042a2cce1bb573cb05d5c4fc47db50064736f6c634300060c0033",
  "devdoc": {
    "kind": "dev",
    "methods": {
      "addStrategy(address,address,uint256)": {
        "params": {
          "_strategy": "The address of the strategy",
          "_timeout": "The timeout between harvests",
          "_vault": "The address of the vault"
        }
      },
      "canHarvest(address)": {
        "params": {
          "_vault": "The address of the vault"
        }
      },
      "constructor": {
        "params": {
          "_controller": "The address of the controller",
          "_manager": "The address of the yAxisMetaVaultManager contract"
        }
      },
      "harvest(address,address,uint256[])": {
        "details": "This function ignores the timeout",
        "params": {
          "_controller": "The address of the controller",
          "_estimates": "The estimated outputs from swaps during harvest",
          "_strategy": "The address of the strategy"
        }
      },
      "harvestNextStrategy(address,uint256[])": {
        "params": {
          "_estimates": "The estimated outputs from swaps during harvest",
          "_vault": "The address of the vault"
        }
      },
      "removeStrategy(address,address,uint256)": {
        "params": {
          "_strategy": "The address of the strategy",
          "_timeout": "The timeout between harvests",
          "_vault": "The address of the vault"
        }
      },
      "setHarvester(address,bool)": {
        "params": {
          "_harvester": "The address of the harvester",
          "_status": "The status to allow the harvester to harvest"
        }
      },
      "strategyAddresses(address)": {
        "params": {
          "_vault": "The address of the vault"
        }
      }
    },
    "title": "Harvester",
    "version": 1
  },
  "userdoc": {
    "events": {
      "Harvest(address,address)": {
        "notice": "Logged when harvest is called for a strategy"
      },
      "HarvesterSet(address,bool)": {
        "notice": "Logged when a harvester is set"
      },
      "StrategyAdded(address,address,uint256)": {
        "notice": "Logged when a strategy is added for a vault"
      },
      "StrategyRemoved(address,address,uint256)": {
        "notice": "Logged when a strategy is removed for a vault"
      }
    },
    "kind": "user",
    "methods": {
      "addStrategy(address,address,uint256)": {
        "notice": "Adds a strategy to the rotation for a given vault and sets a timeout"
      },
      "canHarvest(address)": {
        "notice": "Returns the availability of a vault's strategy to be harvested"
      },
      "earn(address,address)": {
        "notice": "HARVESTER-ONLY FUNCTIONS"
      },
      "harvest(address,address,uint256[])": {
        "notice": "Harvests a given strategy on the provided controller"
      },
      "harvestNextStrategy(address,uint256[])": {
        "notice": "Harvests the next available strategy for a given vault and rotates the strategies"
      },
      "removeStrategy(address,address,uint256)": {
        "notice": "Removes a strategy from the rotation for a given vault and sets a timeout"
      },
      "setHarvester(address,bool)": {
        "notice": "Sets the status of a harvester address to be able to call harvest functions"
      },
      "strategyAddresses(address)": {
        "notice": "Returns the addresses of the strategies for a given vault"
      }
    },
    "notice": "This contract is to be used as a central point to call harvest on all strategies for any given vault. It has its own permissions for harvesters (set by the strategist or governance).",
    "version": 1
  },
  "storageLayout": {
    "storage": [
      {
        "astId": 2250,
        "contract": "contracts/v3/Harvester.sol:Harvester",
        "label": "slippage",
        "offset": 0,
        "slot": "0",
        "type": "t_uint256"
      },
      {
        "astId": 2262,
        "contract": "contracts/v3/Harvester.sol:Harvester",
        "label": "strategies",
        "offset": 0,
        "slot": "1",
        "type": "t_mapping(t_address,t_struct(Strategy)2258_storage)"
      },
      {
        "astId": 2266,
        "contract": "contracts/v3/Harvester.sol:Harvester",
        "label": "isHarvester",
        "offset": 0,
        "slot": "2",
        "type": "t_mapping(t_address,t_bool)"
      }
    ],
    "types": {
      "t_address": {
        "encoding": "inplace",
        "label": "address",
        "numberOfBytes": "20"
      },
      "t_array(t_address)dyn_storage": {
        "base": "t_address",
        "encoding": "dynamic_array",
        "label": "address[]",
        "numberOfBytes": "32"
      },
      "t_bool": {
        "encoding": "inplace",
        "label": "bool",
        "numberOfBytes": "1"
      },
      "t_mapping(t_address,t_bool)": {
        "encoding": "mapping",
        "key": "t_address",
        "label": "mapping(address => bool)",
        "numberOfBytes": "32",
        "value": "t_bool"
      },
      "t_mapping(t_address,t_struct(Strategy)2258_storage)": {
        "encoding": "mapping",
        "key": "t_address",
        "label": "mapping(address => struct Harvester.Strategy)",
        "numberOfBytes": "32",
        "value": "t_struct(Strategy)2258_storage"
      },
      "t_struct(Strategy)2258_storage": {
        "encoding": "inplace",
        "label": "struct Harvester.Strategy",
        "members": [
          {
            "astId": 2252,
            "contract": "contracts/v3/Harvester.sol:Harvester",
            "label": "timeout",
            "offset": 0,
            "slot": "0",
            "type": "t_uint256"
          },
          {
            "astId": 2254,
            "contract": "contracts/v3/Harvester.sol:Harvester",
            "label": "lastCalled",
            "offset": 0,
            "slot": "1",
            "type": "t_uint256"
          },
          {
            "astId": 2257,
            "contract": "contracts/v3/Harvester.sol:Harvester",
            "label": "addresses",
            "offset": 0,
            "slot": "2",
            "type": "t_array(t_address)dyn_storage"
          }
        ],
        "numberOfBytes": "96"
      },
      "t_uint256": {
        "encoding": "inplace",
        "label": "uint256",
        "numberOfBytes": "32"
      }
    }
  }
}