{
  "address": "0x123Fa7E8Acf2Da4fB6e5c096B59310f196495971",
  "abi": [
    {
      "inputs": [
        {
          "internalType": "string",
          "name": "_name",
          "type": "string"
        },
        {
          "internalType": "address",
          "name": "_want",
          "type": "address"
        },
        {
          "internalType": "address",
          "name": "_crvethPool",
          "type": "address"
        },
        {
          "internalType": "address",
          "name": "_cvxethPool",
          "type": "address"
        },
        {
          "internalType": "address",
          "name": "_weth",
          "type": "address"
        },
        {
          "internalType": "address",
          "name": "_mim",
          "type": "address"
        },
        {
          "internalType": "address",
          "name": "_crv3",
          "type": "address"
        },
        {
          "internalType": "contract IStableSwap3Pool",
          "name": "_stableSwap3Pool",
          "type": "address"
        },
        {
          "internalType": "uint256",
          "name": "_pid",
          "type": "uint256"
        },
        {
          "internalType": "contract IConvexVault",
          "name": "_convexVault",
          "type": "address"
        },
        {
          "internalType": "contract IStableSwap2Pool",
          "name": "_stableSwap2Pool",
          "type": "address"
        },
        {
          "internalType": "address",
          "name": "_controller",
          "type": "address"
        },
        {
          "internalType": "address",
          "name": "_manager",
          "type": "address"
        },
        {
          "internalType": "address[]",
          "name": "_routerArray",
          "type": "address[]"
        }
      ],
      "stateMutability": "nonpayable",
      "type": "constructor"
    },
    {
      "inputs": [],
      "name": "ONE_HUNDRED_PERCENT",
      "outputs": [
        {
          "internalType": "uint256",
          "name": "",
          "type": "uint256"
        }
      ],
      "stateMutability": "view",
      "type": "function"
    },
    {
      "inputs": [
        {
          "internalType": "contract IERC20",
          "name": "_token",
          "type": "address"
        },
        {
          "internalType": "address",
          "name": "_spender",
          "type": "address"
        },
        {
          "internalType": "uint256",
          "name": "_amount",
          "type": "uint256"
        }
      ],
      "name": "approveForSpender",
      "outputs": [],
      "stateMutability": "nonpayable",
      "type": "function"
    },
    {
      "inputs": [],
      "name": "balanceOf",
      "outputs": [
        {
          "internalType": "uint256",
          "name": "",
          "type": "uint256"
        }
      ],
      "stateMutability": "view",
      "type": "function"
    },
    {
      "inputs": [],
      "name": "balanceOfPool",
      "outputs": [
        {
          "internalType": "uint256",
          "name": "",
          "type": "uint256"
        }
      ],
      "stateMutability": "view",
      "type": "function"
    },
    {
      "inputs": [],
      "name": "balanceOfWant",
      "outputs": [
        {
          "internalType": "uint256",
          "name": "",
          "type": "uint256"
        }
      ],
      "stateMutability": "view",
      "type": "function"
    },
    {
      "inputs": [],
      "name": "controller",
      "outputs": [
        {
          "internalType": "address",
          "name": "",
          "type": "address"
        }
      ],
      "stateMutability": "view",
      "type": "function"
    },
    {
      "inputs": [],
      "name": "convexVault",
      "outputs": [
        {
          "internalType": "contract IConvexVault",
          "name": "",
          "type": "address"
        }
      ],
      "stateMutability": "view",
      "type": "function"
    },
    {
      "inputs": [],
      "name": "crv",
      "outputs": [
        {
          "internalType": "address",
          "name": "",
          "type": "address"
        }
      ],
      "stateMutability": "view",
      "type": "function"
    },
    {
      "inputs": [],
      "name": "crv3",
      "outputs": [
        {
          "internalType": "address",
          "name": "",
          "type": "address"
        }
      ],
      "stateMutability": "view",
      "type": "function"
    },
    {
      "inputs": [],
      "name": "crvRewards",
      "outputs": [
        {
          "internalType": "contract IConvexRewards",
          "name": "",
          "type": "address"
        }
      ],
      "stateMutability": "view",
      "type": "function"
    },
    {
      "inputs": [],
      "name": "crvethPool",
      "outputs": [
        {
          "internalType": "address",
          "name": "",
          "type": "address"
        }
      ],
      "stateMutability": "view",
      "type": "function"
    },
    {
      "inputs": [],
      "name": "cvx",
      "outputs": [
        {
          "internalType": "address",
          "name": "",
          "type": "address"
        }
      ],
      "stateMutability": "view",
      "type": "function"
    },
    {
      "inputs": [],
      "name": "cvxethPool",
      "outputs": [
        {
          "internalType": "address",
          "name": "",
          "type": "address"
        }
      ],
      "stateMutability": "view",
      "type": "function"
    },
    {
      "inputs": [],
      "name": "deposit",
      "outputs": [],
      "stateMutability": "nonpayable",
      "type": "function"
    },
    {
      "inputs": [],
      "name": "getMostPremium",
      "outputs": [
        {
          "internalType": "address",
          "name": "",
          "type": "address"
        },
        {
          "internalType": "uint256",
          "name": "",
          "type": "uint256"
        }
      ],
      "stateMutability": "view",
      "type": "function"
    },
    {
      "inputs": [
        {
          "internalType": "uint256[]",
          "name": "_estimates",
          "type": "uint256[]"
        }
      ],
      "name": "harvest",
      "outputs": [],
      "stateMutability": "nonpayable",
      "type": "function"
    },
    {
      "inputs": [],
      "name": "manager",
      "outputs": [
        {
          "internalType": "contract IManager",
          "name": "",
          "type": "address"
        }
      ],
      "stateMutability": "view",
      "type": "function"
    },
    {
      "inputs": [],
      "name": "mim",
      "outputs": [
        {
          "internalType": "address",
          "name": "",
          "type": "address"
        }
      ],
      "stateMutability": "view",
      "type": "function"
    },
    {
      "inputs": [],
      "name": "name",
      "outputs": [
        {
          "internalType": "string",
          "name": "",
          "type": "string"
        }
      ],
      "stateMutability": "view",
      "type": "function"
    },
    {
      "inputs": [],
      "name": "pid",
      "outputs": [
        {
          "internalType": "uint256",
          "name": "",
          "type": "uint256"
        }
      ],
      "stateMutability": "view",
      "type": "function"
    },
    {
      "inputs": [],
      "name": "router",
      "outputs": [
        {
          "internalType": "contract ISwap",
          "name": "",
          "type": "address"
        }
      ],
      "stateMutability": "view",
      "type": "function"
    },
    {
      "inputs": [
        {
          "internalType": "uint256",
          "name": "",
          "type": "uint256"
        }
      ],
      "name": "routerArray",
      "outputs": [
        {
          "internalType": "address",
          "name": "",
          "type": "address"
        }
      ],
      "stateMutability": "view",
      "type": "function"
    },
    {
      "inputs": [
        {
          "internalType": "uint256",
          "name": "_routerIndex",
          "type": "uint256"
        }
      ],
      "name": "setDefaultRouter",
      "outputs": [],
      "stateMutability": "nonpayable",
      "type": "function"
    },
    {
      "inputs": [
        {
          "internalType": "address[]",
          "name": "_routerArray",
          "type": "address[]"
        },
        {
          "internalType": "address[]",
          "name": "_tokenArray",
          "type": "address[]"
        }
      ],
      "name": "setRouter",
      "outputs": [],
      "stateMutability": "nonpayable",
      "type": "function"
    },
    {
      "inputs": [],
      "name": "skim",
      "outputs": [],
      "stateMutability": "nonpayable",
      "type": "function"
    },
    {
      "inputs": [],
      "name": "stableSwap2Pool",
      "outputs": [
        {
          "internalType": "contract IStableSwap2Pool",
          "name": "",
          "type": "address"
        }
      ],
      "stateMutability": "view",
      "type": "function"
    },
    {
      "inputs": [],
      "name": "stableSwap3Pool",
      "outputs": [
        {
          "internalType": "contract IStableSwap3Pool",
          "name": "",
          "type": "address"
        }
      ],
      "stateMutability": "view",
      "type": "function"
    },
    {
      "inputs": [],
      "name": "want",
      "outputs": [
        {
          "internalType": "address",
          "name": "",
          "type": "address"
        }
      ],
      "stateMutability": "view",
      "type": "function"
    },
    {
      "inputs": [],
      "name": "weth",
      "outputs": [
        {
          "internalType": "address",
          "name": "",
          "type": "address"
        }
      ],
      "stateMutability": "view",
      "type": "function"
    },
    {
      "inputs": [
        {
          "internalType": "uint256",
          "name": "_amount",
          "type": "uint256"
        }
      ],
      "name": "withdraw",
      "outputs": [],
      "stateMutability": "nonpayable",
      "type": "function"
    },
    {
      "inputs": [
        {
          "internalType": "address",
          "name": "_asset",
          "type": "address"
        }
      ],
      "name": "withdraw",
      "outputs": [],
      "stateMutability": "nonpayable",
      "type": "function"
    },
    {
      "inputs": [],
      "name": "withdrawAll",
      "outputs": [],
      "stateMutability": "nonpayable",
      "type": "function"
    }
  ],
  "transactionHash": "0xee4065b43d1809c7df4a772897f3dc47f0233967ec0c9ea29b20579ccffab09b",
  "args": [
    "NumisMe Convex Strategy: MIM3CRV",
    "0x5a6A4D54456819380173272A5E8E9B9904BdF41B",
    "0x8301AE4fc9c624d1D396cbDAa1ed877821D7C511",
    "0xB576491F1E6e5E62f1d8F26062Ee822B40B0E0d4",
    "0xC02aaA39b223FE8D0A0e5C4F27eAD9083C756Cc2",
    "0x99D8a9C45b2ecA8864373A26D1459e3Dff1e17F3",
    "0x6c3F90f043a72FA612cbac8115EE7e52BDe6E490",
    "0xbEbc44782C7dB0a1A60Cb6fe97d0b483032FF1C7",
    40,
    "0xF403C135812408BFbE8713b5A23a04b3D48AAE31",
    "0x5a6A4D54456819380173272A5E8E9B9904BdF41B",
    "0x6dB53Ed036135f2c299d54353b2ae7e748a85628",
    "0xec5CdD1a415bE0b1d513cc420e4fC80CA3ca7590",
    [
      "0xd9e1cE17f2641f24aE83637ab66a2cca9C378B9F",
      "0x7a250d5630B4cF539739dF2C5dAcb4c659F2488D"
    ]
  ],
  "numDeployments": 1,
  "solcInputHash": "2f52fc9e2c9436dbe54a500dcc1ea2eb",
  "bytecode": "0x6102606040523480156200001257600080fd5b506040516200419f3803806200419f83398181016040526101c08110156200003957600080fd5b81019080805160405193929190846401000000008211156200005a57600080fd5b9083019060208201858111156200007057600080fd5b82516401000000008111828201881017156200008b57600080fd5b82525081516020918201929091019080838360005b83811015620000ba578181015183820152602001620000a0565b50505050905090810190601f168015620000e85780820380516001836020036101000a031916815260200191505b5060408181526020830151908301516060840151608085015160a086015160c087015160e08801516101008901516101208a01516101408b01516101608c01516101808d01516101a0909d0180519b9f9a9e999d989c979b969a95999498939792969195939492939291846401000000008211156200016657600080fd5b9083019060208201858111156200017c57600080fd5b82518660208202830111640100000000821117156200019a57600080fd5b82525081516020918201928201910280838360005b83811015620001c9578181015183820152602001620001af565b505050509050016040525050508d83838f8d858560009080519060200190620001f492919062000f82565b506001600160601b0319606084811b821660805286811b821660c05285811b821660e05283901b1660a052805162000273576040805162461bcd60e51b815260206004820152601e60248201527f4d75737420696e707574206174206c65617374206f6e6520726f757465720000604482015290519081900360640190fd5b80516200028890600190602084019062001007565b50806000815181106200029757fe5b6020026020010151600260006101000a8154816001600160a01b0302191690836001600160a01b0316021790555060005b815181101562000350576200030c828281518110620002e357fe5b60200260200101516000856001600160a01b0316620006de60201b620018cd179092919060201c565b620003478282815181106200031d57fe5b6020026020010151600019856001600160a01b0316620006de60201b620018cd179092919060201c565b600101620002c8565b50505050506001600160a01b038b16151591506200039f9050576040805162461bcd60e51b8152602060048201526005602482015264215f6d696d60d81b604482015290519081900360640190fd5b6001600160a01b038816620003e4576040805162461bcd60e51b8152602060048201526006602482015265215f6372763360d01b604482015290519081900360640190fd5b6001600160a01b03851662000430576040805162461bcd60e51b815260206004820152600d60248201526c0857d8dbdb9d995e15985d5b1d609a1b604482015290519081900360640190fd5b6001600160a01b03841662000480576040805162461bcd60e51b81526020600482015260116024820152700857dcdd18589b1954ddd85c0c941bdbdb607a1b604482015290519081900360640190fd5b6001600160a01b038716620004d0576040805162461bcd60e51b81526020600482015260116024820152700857dcdd18589b1954ddd85c0cd41bdbdb607a1b604482015290519081900360640190fd5b6000856001600160a01b0316631526fe27886040518263ffffffff1660e01b81526004018082815260200191505060c06040518083038186803b1580156200051757600080fd5b505afa1580156200052c573d6000803e3d6000fd5b505050506040513d60c08110156200054357600080fd5b50606001516040805163c661065760e01b81526001600482015290519192506001600160a01b038f169163c661065791602480820192602092909190829003018186803b1580156200059457600080fd5b505afa158015620005a9573d6000803e3d6000fd5b505050506040513d6020811015620005c057600080fd5b505160601b6001600160601b031916610100526040805163c661065760e01b81526001600482015290516001600160a01b038e169163c6610657916024808301926020929190829003018186803b1580156200061b57600080fd5b505afa15801562000630573d6000803e3d6000fd5b505050506040513d60208110156200064757600080fd5b50516001600160601b0319606091821b8116610120528b821b8116610180528a821b81166101a0528e821b8116610140528d821b8116610160526101c089905287821b81166101e05282821b81166102005286821b8116610220529089901b1661024052620006bc8e8e8e8d8d8b8b62000802565b620006c988828462000a28565b505050505050505050505050505050620010a5565b80158062000768575060408051636eb1769f60e11b81523060048201526001600160a01b03848116602483015291519185169163dd62ed3e91604480820192602092909190829003018186803b1580156200073857600080fd5b505afa1580156200074d573d6000803e3d6000fd5b505050506040513d60208110156200076457600080fd5b5051155b620007a55760405162461bcd60e51b8152600401808060200182810382526036815260200180620041696036913960400191505060405180910390fd5b604080516001600160a01b038416602482015260448082018490528251808303909101815260649091019091526020810180516001600160e01b0390811663095ea7b360e01b17909152620007fd91859162000c9316565b505050565b6200082982600019896001600160a01b0316620006de60201b620018cd179092919060201c565b620008c1866000886001600160a01b031663c661065760016040518263ffffffff1660e01b81526004018082815260200191505060206040518083038186803b1580156200087657600080fd5b505afa1580156200088b573d6000803e3d6000fd5b505050506040513d6020811015620008a257600080fd5b50516001600160a01b03169190620006de602090811b620018cd17901c565b6200090f86600019886001600160a01b031663c661065760016040518263ffffffff1660e01b81526004018082815260200191505060206040518083038186803b1580156200087657600080fd5b6200095c856000876001600160a01b031663c661065760016040518263ffffffff1660e01b81526004018082815260200191505060206040518083038186803b1580156200087657600080fd5b620009aa85600019876001600160a01b031663c661065760016040518263ffffffff1660e01b81526004018082815260200191505060206040518083038186803b1580156200087657600080fd5b620009d181600019866001600160a01b0316620006de60201b620018cd179092919060201c565b620009f881600019856001600160a01b0316620006de60201b620018cd179092919060201c565b62000a1f81600019896001600160a01b0316620006de60201b620018cd179092919060201c565b50505050505050565b62000a7683600019856001600160a01b031663c661065760006040518263ffffffff1660e01b81526004018082815260200191505060206040518083038186803b1580156200087657600080fd5b62000ac483600019856001600160a01b031663c661065760016040518263ffffffff1660e01b81526004018082815260200191505060206040518083038186803b1580156200087657600080fd5b62000b1283600019856001600160a01b031663c661065760026040518263ffffffff1660e01b81526004018082815260200191505060206040518083038186803b1580156200087657600080fd5b805160005b8181101562000c8c57600083828151811062000b2f57fe5b602002602001015190506000856001600160a01b031663d55a23f46040518163ffffffff1660e01b815260040160206040518083038186803b15801562000b7557600080fd5b505afa15801562000b8a573d6000803e3d6000fd5b505050506040513d602081101562000ba157600080fd5b50519050801562000c815760005b8181101562000c7f5762000c7683600019896001600160a01b03166340c35446856040518263ffffffff1660e01b81526004018082815260200191505060206040518083038186803b15801562000c0557600080fd5b505afa15801562000c1a573d6000803e3d6000fd5b505050506040513d602081101562000c3157600080fd5b50516040805163f7c618c160e01b815290516001600160a01b039092169163f7c618c191600480820192602092909190829003018186803b1580156200087657600080fd5b60010162000baf565b505b505060010162000b17565b5050505050565b606062000cef826040518060400160405280602081526020017f5361666545524332303a206c6f772d6c6576656c2063616c6c206661696c6564815250856001600160a01b031662000d4f60201b620019e0179092919060201c565b805190915015620007fd5780806020019051602081101562000d1057600080fd5b5051620007fd5760405162461bcd60e51b815260040180806020018281038252602a8152602001806200413f602a913960400191505060405180910390fd5b606062000d60848460008562000d6a565b90505b9392505050565b60608247101562000dad5760405162461bcd60e51b8152600401808060200182810382526026815260200180620041196026913960400191505060405180910390fd5b62000db88562000ed2565b62000e0a576040805162461bcd60e51b815260206004820152601d60248201527f416464726573733a2063616c6c20746f206e6f6e2d636f6e7472616374000000604482015290519081900360640190fd5b60006060866001600160a01b031685876040518082805190602001908083835b6020831062000e4b5780518252601f19909201916020918201910162000e2a565b6001836020036101000a03801982511681845116808217855250505050505090500191505060006040518083038185875af1925050503d806000811462000eaf576040519150601f19603f3d011682016040523d82523d6000602084013e62000eb4565b606091505b50909250905062000ec782828662000ed8565b979650505050505050565b3b151590565b6060831562000ee957508162000d63565b82511562000efa5782518084602001fd5b8160405162461bcd60e51b81526004018080602001828103825283818151815260200191508051906020019080838360005b8381101562000f4657818101518382015260200162000f2c565b50505050905090810190601f16801562000f745780820380516001836020036101000a031916815260200191505b509250505060405180910390fd5b828054600181600116156101000203166002900490600052602060002090601f016020900481019282601f1062000fc557805160ff191683800117855562000ff5565b8280016001018555821562000ff5579182015b8281111562000ff557825182559160200191906001019062000fd8565b50620010039291506200106d565b5090565b8280548282559060005260206000209081019282156200105f579160200282015b828111156200105f57825182546001600160a01b0319166001600160a01b0390911617825560209092019160019091019062001028565b506200100392915062001084565b5b808211156200100357600081556001016200106e565b5b80821115620010035780546001600160a01b031916815560010162001085565b60805160601c60a05160601c60c05160601c60e05160601c6101005160601c6101205160601c6101405160601c6101605160601c6101805160601c6101a05160601c6101c0516101e05160601c6102005160601c6102205160601c6102405160601c612ea26200127760003980610c225280610cdc5280610df25280610e7f5280610efb5280610fb05280611065528061110552806113315280612a875250806118ab5280612bc5525080610620528061162c5280611dfc5280611e9052806121be52806124f352806125b35250806113f15280612272525080611854528061223b5250806114395280612b3e5250806116085250806105fa5280611dcd5250806116bf52806120ec5250806115e45280611d2952508061141552806120485250806107ad5280610acb5280610bf9528061175c528061283f5250806106c8528061072d52806109dc5280610aa052806111ad5280611305528061135e528061148652806115ba52806116ec52806118785250806108f152806109355280610bd55280612012528061213b528061279b528061290e528061295552508061075e52806107895280610a7e528061121952806114f2528061159852806116525280611ab25280611b585250612ea26000f3fe608060405234801561001057600080fd5b50600436106101f05760003560e01c80636a4874a11161010f578063cacab39d116100a2578063f106845411610071578063f10684541461054a578063f77c479114610552578063f887ea401461055a578063f975bcce14610562576101f0565b8063cacab39d146104fc578063d0e30db014610504578063dd0081c71461050c578063ef9e237914610514576101f0565b8063923c1d61116100de578063923c1d61146104dc5780639f67679e146104e4578063b6bff295146104ec578063c1a3d44c146104f4576101f0565b80636a4874a1146104bc5780636dca5abe146104c4578063722713f7146104cc578063853828b6146104d4576101f0565b80633fc8cef3116101875780635a3874ac116101565780635a3874ac1461041f5780635d14b06f146104275780635f349a1114610497578063689538e7146104b4576101f0565b80633fc8cef3146103be578063481c6a75146103c657806348677dbe146103ce57806351cff8d9146103f9576101f0565b80631f1fcd51116101c35780631f1fcd51146102ba5780632d16c4e3146102c25780632e1a7d4d14610384578063337da0fc146103a1576101f0565b806306fdde03146101f55780630bf778d11461027257806311588086146102965780631dd19cb4146102b0575b600080fd5b6101fd61056a565b6040805160208082528351818301528351919283929083019185019080838360005b8381101561023757818101518382015260200161021f565b50505050905090810190601f1680156102645780820380516001836020036101000a031916815260200191505b509250505060405180910390f35b61027a6105f8565b604080516001600160a01b039092168252519081900360200190f35b61029e61061c565b60408051918252519081900360200190f35b6102b86106bd565b005b61027a610787565b6102b8600480360360408110156102d857600080fd5b8101906020810181356401000000008111156102f357600080fd5b82018360208201111561030557600080fd5b8035906020019184602083028401116401000000008311171561032757600080fd5b91939092909160208101903564010000000081111561034557600080fd5b82018360208201111561035757600080fd5b8035906020019184602083028401116401000000008311171561037957600080fd5b5090925090506107ab565b6102b86004803603602081101561039a57600080fd5b50356109d1565b6102b8600480360360208110156103b757600080fd5b5035610ac9565b61027a610bd3565b61027a610bf7565b6103d6610c1b565b604080516001600160a01b03909316835260208301919091528051918290030190f35b6102b86004803603602081101561040f57600080fd5b50356001600160a01b03166111a2565b61027a61132f565b6102b86004803603602081101561043d57600080fd5b81019060208101813564010000000081111561045857600080fd5b82018360208201111561046a57600080fd5b8035906020019184602083028401116401000000008311171561048c57600080fd5b509092509050611353565b61027a600480360360208110156104ad57600080fd5b50356113c8565b61027a6113ef565b61027a611413565b61027a611437565b61029e61145b565b6102b861147b565b61027a6115e2565b61027a611606565b61027a61162a565b61029e61164e565b61027a6116bd565b6102b86116e1565b61029e611754565b6102b86004803603606081101561052a57600080fd5b506001600160a01b0381358116916020810135909116906040013561175a565b61029e611852565b61027a611876565b61027a61189a565b61027a6118a9565b6000805460408051602060026001851615610100026000190190941693909304601f810184900484028201840190925281815292918301828280156105f05780601f106105c5576101008083540402835291602001916105f0565b820191906000526020600020905b8154815290600101906020018083116105d357829003601f168201915b505050505081565b7f000000000000000000000000000000000000000000000000000000000000000081565b60007f00000000000000000000000000000000000000000000000000000000000000006001600160a01b03166370a08231306040518263ffffffff1660e01b815260040180826001600160a01b0316815260200191505060206040518083038186803b15801561068b57600080fd5b505afa15801561069f573d6000803e3d6000fd5b505050506040513d60208110156106b557600080fd5b505190505b90565b336001600160a01b037f00000000000000000000000000000000000000000000000000000000000000001614610728576040805162461bcd60e51b815260206004820152600b60248201526a10b1b7b73a3937b63632b960a91b604482015290519081900360640190fd5b6107857f000000000000000000000000000000000000000000000000000000000000000061075461164e565b6001600160a01b037f00000000000000000000000000000000000000000000000000000000000000001691906119f9565b565b7f000000000000000000000000000000000000000000000000000000000000000081565b7f00000000000000000000000000000000000000000000000000000000000000006001600160a01b0316635aa6e6756040518163ffffffff1660e01b815260040160206040518083038186803b15801561080457600080fd5b505afa158015610818573d6000803e3d6000fd5b505050506040513d602081101561082e57600080fd5b50516001600160a01b0316331461087a576040805162461bcd60e51b815260206004820152600b60248201526a21676f7665726e616e636560a81b604482015290519081900360640190fd5b61088660018585612d07565b508383600081811061089457fe5b6002805460209290920293909301356001600160a01b03166001600160a01b0319909116179091555060008382825b828110156109c7578787828181106108d757fe5b905060200201356001600160a01b031693506109288460007f00000000000000000000000000000000000000000000000000000000000000006001600160a01b03166118cd9092919063ffffffff16565b61095e6001600160a01b037f000000000000000000000000000000000000000000000000000000000000000016856000196118cd565b60005b828110156109be576109a385600089898581811061097b57fe5b905060200201356001600160a01b03166001600160a01b03166118cd9092919063ffffffff16565b6109b68560001989898581811061097b57fe5b600101610961565b506001016108c3565b5050505050505050565b336001600160a01b037f00000000000000000000000000000000000000000000000000000000000000001614610a3c576040805162461bcd60e51b815260206004820152600b60248201526a10b1b7b73a3937b63632b960a91b604482015290519081900360640190fd5b6000610a4661164e565b905081811015610a7157610a62610a5d8383611a4b565b611aad565b9150610a6e8282611c03565b91505b610ac56001600160a01b037f0000000000000000000000000000000000000000000000000000000000000000167f0000000000000000000000000000000000000000000000000000000000000000846119f9565b5050565b7f00000000000000000000000000000000000000000000000000000000000000006001600160a01b0316635aa6e6756040518163ffffffff1660e01b815260040160206040518083038186803b158015610b2257600080fd5b505afa158015610b36573d6000803e3d6000fd5b505050506040513d6020811015610b4c57600080fd5b50516001600160a01b03163314610b98576040805162461bcd60e51b815260206004820152600b60248201526a21676f7665726e616e636560a81b604482015290519081900360640190fd5b60018181548110610ba557fe5b600091825260209091200154600280546001600160a01b0319166001600160a01b0390921691909117905550565b7f000000000000000000000000000000000000000000000000000000000000000081565b7f000000000000000000000000000000000000000000000000000000000000000081565b60008060007f00000000000000000000000000000000000000000000000000000000000000006001600160a01b0316634903b0d160006040518263ffffffff1660e01b81526004018082815260200191505060206040518083038186803b158015610c8557600080fd5b505afa158015610c99573d6000803e3d6000fd5b505050506040513d6020811015610caf57600080fd5b50516040805163c661065760e01b8152600160048201529051919250600091610e70916001600160a01b037f0000000000000000000000000000000000000000000000000000000000000000169163c661065791602480820192602092909190829003018186803b158015610d2357600080fd5b505afa158015610d37573d6000803e3d6000fd5b505050506040513d6020811015610d4d57600080fd5b50516040805163313ce56760e01b815290516001600160a01b039092169163313ce56791600480820192602092909190829003018186803b158015610d9157600080fd5b505afa158015610da5573d6000803e3d6000fd5b505050506040513d6020811015610dbb57600080fd5b505160408051634903b0d160e01b815260016004820152905160ff90921691610e6a91670de0b6b3a7640000916001600160a01b037f00000000000000000000000000000000000000000000000000000000000000001691634903b0d1916024808301926020929190829003018186803b158015610e3857600080fd5b505afa158015610e4c573d6000803e3d6000fd5b505050506040513d6020811015610e6257600080fd5b505190611c5d565b90611cb6565b90506000610ee264e8d4a510007f00000000000000000000000000000000000000000000000000000000000000006001600160a01b0316634903b0d160026040518263ffffffff1660e01b81526004018082815260200191505060206040518083038186803b158015610e3857600080fd5b9050818311158015610ef45750808311155b15610f99577f00000000000000000000000000000000000000000000000000000000000000006001600160a01b031663c661065760006040518263ffffffff1660e01b81526004018082815260200191505060206040518083038186803b158015610f5e57600080fd5b505afa158015610f72573d6000803e3d6000fd5b505050506040513d6020811015610f8857600080fd5b505194506000935061119e92505050565b828211158015610fa95750808211155b1561104e577f00000000000000000000000000000000000000000000000000000000000000006001600160a01b031663c661065760016040518263ffffffff1660e01b81526004018082815260200191505060206040518083038186803b15801561101357600080fd5b505afa158015611027573d6000803e3d6000fd5b505050506040513d602081101561103d57600080fd5b505194506001935061119e92505050565b82811115801561105e5750818111155b15611103577f00000000000000000000000000000000000000000000000000000000000000006001600160a01b031663c661065760026040518263ffffffff1660e01b81526004018082815260200191505060206040518083038186803b1580156110c857600080fd5b505afa1580156110dc573d6000803e3d6000fd5b505050506040513d60208110156110f257600080fd5b505194506002935061119e92505050565b7f00000000000000000000000000000000000000000000000000000000000000006001600160a01b031663c661065760006040518263ffffffff1660e01b81526004018082815260200191505060206040518083038186803b15801561116857600080fd5b505afa15801561117c573d6000803e3d6000fd5b505050506040513d602081101561119257600080fd5b50519450600093505050505b9091565b336001600160a01b037f0000000000000000000000000000000000000000000000000000000000000000161461120d576040805162461bcd60e51b815260206004820152600b60248201526a10b1b7b73a3937b63632b960a91b604482015290519081900360640190fd5b806001600160a01b03167f00000000000000000000000000000000000000000000000000000000000000006001600160a01b0316141561127d576040805162461bcd60e51b815260206004808301919091526024820152631dd85b9d60e21b604482015290519081900360640190fd5b604080516370a0823160e01b8152306004820152905182916000916001600160a01b038416916370a08231916024808301926020929190829003018186803b1580156112c857600080fd5b505afa1580156112dc573d6000803e3d6000fd5b505050506040513d60208110156112f257600080fd5b5051905061132a6001600160a01b0383167f0000000000000000000000000000000000000000000000000000000000000000836119f9565b505050565b7f000000000000000000000000000000000000000000000000000000000000000081565b336001600160a01b037f000000000000000000000000000000000000000000000000000000000000000016146113be576040805162461bcd60e51b815260206004820152600b60248201526a10b1b7b73a3937b63632b960a91b604482015290519081900360640190fd5b610ac58282611d1d565b600181815481106113d557fe5b6000918252602090912001546001600160a01b0316905081565b7f000000000000000000000000000000000000000000000000000000000000000081565b7f000000000000000000000000000000000000000000000000000000000000000081565b7f000000000000000000000000000000000000000000000000000000000000000081565b600061147661146861061c565b61147061164e565b90611c03565b905090565b336001600160a01b037f000000000000000000000000000000000000000000000000000000000000000016146114e6576040805162461bcd60e51b815260206004820152600b60248201526a10b1b7b73a3937b63632b960a91b604482015290519081900360640190fd5b6114ee61219b565b60007f00000000000000000000000000000000000000000000000000000000000000006001600160a01b03166370a08231306040518263ffffffff1660e01b815260040180826001600160a01b0316815260200191505060206040518083038186803b15801561155d57600080fd5b505afa158015611571573d6000803e3d6000fd5b505050506040513d602081101561158757600080fd5b505190506115df6001600160a01b037f0000000000000000000000000000000000000000000000000000000000000000167f0000000000000000000000000000000000000000000000000000000000000000836119f9565b50565b7f000000000000000000000000000000000000000000000000000000000000000081565b7f000000000000000000000000000000000000000000000000000000000000000081565b7f000000000000000000000000000000000000000000000000000000000000000081565b60007f00000000000000000000000000000000000000000000000000000000000000006001600160a01b03166370a08231306040518263ffffffff1660e01b815260040180826001600160a01b0316815260200191505060206040518083038186803b15801561068b57600080fd5b7f000000000000000000000000000000000000000000000000000000000000000081565b336001600160a01b037f0000000000000000000000000000000000000000000000000000000000000000161461174c576040805162461bcd60e51b815260206004820152600b60248201526a10b1b7b73a3937b63632b960a91b604482015290519081900360640190fd5b61078561221b565b61271081565b7f00000000000000000000000000000000000000000000000000000000000000006001600160a01b0316635aa6e6756040518163ffffffff1660e01b815260040160206040518083038186803b1580156117b357600080fd5b505afa1580156117c7573d6000803e3d6000fd5b505050506040513d60208110156117dd57600080fd5b50516001600160a01b03163314611829576040805162461bcd60e51b815260206004820152600b60248201526a21676f7665726e616e636560a81b604482015290519081900360640190fd5b61183e6001600160a01b0384168360006118cd565b61132a6001600160a01b03841683836118cd565b7f000000000000000000000000000000000000000000000000000000000000000081565b7f000000000000000000000000000000000000000000000000000000000000000081565b6002546001600160a01b031681565b7f000000000000000000000000000000000000000000000000000000000000000081565b801580611953575060408051636eb1769f60e11b81523060048201526001600160a01b03848116602483015291519185169163dd62ed3e91604480820192602092909190829003018186803b15801561192557600080fd5b505afa158015611939573d6000803e3d6000fd5b505050506040513d602081101561194f57600080fd5b5051155b61198e5760405162461bcd60e51b8152600401808060200182810382526036815260200180612e376036913960400191505060405180910390fd5b604080516001600160a01b038416602482015260448082018490528251808303909101815260649091019091526020810180516001600160e01b031663095ea7b360e01b17905261132a9084906122e4565b60606119ef8484600085612395565b90505b9392505050565b604080516001600160a01b038416602482015260448082018490528251808303909101815260649091019091526020810180516001600160e01b031663a9059cbb60e01b17905261132a9084906122e4565b600082821115611aa2576040805162461bcd60e51b815260206004820152601e60248201527f536166654d6174683a207375627472616374696f6e206f766572666c6f770000604482015290519081900360640190fd5b508082035b92915050565b6000807f00000000000000000000000000000000000000000000000000000000000000006001600160a01b03166370a08231306040518263ffffffff1660e01b815260040180826001600160a01b0316815260200191505060206040518083038186803b158015611b1d57600080fd5b505afa158015611b31573d6000803e3d6000fd5b505050506040513d6020811015611b4757600080fd5b50519050611b54836124f1565b60007f00000000000000000000000000000000000000000000000000000000000000006001600160a01b03166370a08231306040518263ffffffff1660e01b815260040180826001600160a01b0316815260200191505060206040518083038186803b158015611bc357600080fd5b505afa158015611bd7573d6000803e3d6000fd5b505050506040513d6020811015611bed57600080fd5b50519050611bfb8183611a4b565b949350505050565b6000828201838110156119f2576040805162461bcd60e51b815260206004820152601b60248201527f536166654d6174683a206164646974696f6e206f766572666c6f770000000000604482015290519081900360640190fd5b600082611c6c57506000611aa7565b82820282848281611c7957fe5b04146119f25760405162461bcd60e51b8152600401808060200182810382526021815260200180612dec6021913960400191505060405180910390fd5b6000808211611d0c576040805162461bcd60e51b815260206004820152601a60248201527f536166654d6174683a206469766973696f6e206279207a65726f000000000000604482015290519081900360640190fd5b818381611d1557fe5b049392505050565b611d2561258c565b60007f00000000000000000000000000000000000000000000000000000000000000006001600160a01b03166370a08231306040518263ffffffff1660e01b815260040180826001600160a01b0316815260200191505060206040518083038186803b158015611d9457600080fd5b505afa158015611da8573d6000803e3d6000fd5b505050506040513d6020811015611dbe57600080fd5b505190508015611df857611df87f0000000000000000000000000000000000000000000000000000000000000000600160008460016125fb565b60007f00000000000000000000000000000000000000000000000000000000000000006001600160a01b031663d55a23f46040518163ffffffff1660e01b815260040160206040518083038186803b158015611e5357600080fd5b505afa158015611e67573d6000803e3d6000fd5b505050506040513d6020811015611e7d57600080fd5b5051905060005b818110156120435760007f00000000000000000000000000000000000000000000000000000000000000006001600160a01b03166340c35446836040518263ffffffff1660e01b81526004018082815260200191505060206040518083038186803b158015611ef257600080fd5b505afa158015611f06573d6000803e3d6000fd5b505050506040513d6020811015611f1c57600080fd5b50516040805163f7c618c160e01b815290516001600160a01b039092169163f7c618c191600480820192602092909190829003018186803b158015611f6057600080fd5b505afa158015611f74573d6000803e3d6000fd5b505050506040513d6020811015611f8a57600080fd5b5051604080516370a0823160e01b815230600482015290519192506000916001600160a01b038416916370a08231916024808301926020929190829003018186803b158015611fd857600080fd5b505afa158015611fec573d6000803e3d6000fd5b505050506040513d602081101561200257600080fd5b50519050801561203957612039827f0000000000000000000000000000000000000000000000000000000000000000836001612677565b5050600101611e84565b5060007f00000000000000000000000000000000000000000000000000000000000000006001600160a01b03166370a08231306040518263ffffffff1660e01b815260040180826001600160a01b0316815260200191505060206040518083038186803b1580156120b357600080fd5b505afa1580156120c7573d6000803e3d6000fd5b505050506040513d60208110156120dd57600080fd5b505190508015612117576121177f0000000000000000000000000000000000000000000000000000000000000000600160008460016125fb565b6000612121612797565b90508015612193576000612133610c1b565b5090506121637f000000000000000000000000000000000000000000000000000000000000000082846001612677565b61216d60006129cf565b6121898787600081811061217d57fe5b90506020020135612b16565b61219161221b565b505b505050505050565b604080516324f81cd160e11b815260006004820181905291516001600160a01b037f000000000000000000000000000000000000000000000000000000000000000016926349f039a2926024808201939182900301818387803b15801561220157600080fd5b505af1158015612215573d6000803e3d6000fd5b50505050565b600061222561164e565b1115610785576040805163303acfe760e11b81527f000000000000000000000000000000000000000000000000000000000000000060048201526001602482015290516001600160a01b037f000000000000000000000000000000000000000000000000000000000000000016916360759fce9160448083019260209291908290030181600087803b1580156122ba57600080fd5b505af11580156122ce573d6000803e3d6000fd5b505050506040513d6020811015610ac557600080fd5b6060612339826040518060400160405280602081526020017f5361666545524332303a206c6f772d6c6576656c2063616c6c206661696c6564815250856001600160a01b03166119e09092919063ffffffff16565b80519091501561132a5780806020019051602081101561235857600080fd5b505161132a5760405162461bcd60e51b815260040180806020018281038252602a815260200180612e0d602a913960400191505060405180910390fd5b6060824710156123d65760405162461bcd60e51b8152600401808060200182810382526026815260200180612dc66026913960400191505060405180910390fd5b6123df85612c5d565b612430576040805162461bcd60e51b815260206004820152601d60248201527f416464726573733a2063616c6c20746f206e6f6e2d636f6e7472616374000000604482015290519081900360640190fd5b60006060866001600160a01b031685876040518082805190602001908083835b6020831061246f5780518252601f199092019160209182019101612450565b6001836020036101000a03801982511681845116808217855250505050505090500191505060006040518083038185875af1925050503d80600081146124d1576040519150601f19603f3d011682016040523d82523d6000602084013e6124d6565b606091505b50915091506124e6828286612c63565b979650505050505050565b7f00000000000000000000000000000000000000000000000000000000000000006001600160a01b031663c32e72028260006040518363ffffffff1660e01b815260040180838152602001821515815260200192505050602060405180830381600087803b15801561256257600080fd5b505af1158015612576573d6000803e3d6000fd5b505050506040513d602081101561132a57600080fd5b60408051637050ccd960e01b81523060048201526001602482015290516001600160a01b037f00000000000000000000000000000000000000000000000000000000000000001691637050ccd99160448083019260209291908290030181600087803b1580156122ba57600080fd5b60408051630b68372160e31b81526004810186905260248101859052604481018490526064810183905290516001600160a01b03871691635b41b90891608480830192600092919082900301818387803b15801561265857600080fd5b505af115801561266c573d6000803e3d6000fd5b505050505050505050565b604080516002808252606080830184529260208301908036833701905050905084816000815181106126a557fe5b60200260200101906001600160a01b031690816001600160a01b03168152505083816001815181106126d357fe5b6001600160a01b039283166020918202929092018101919091526002546040516338ed173960e01b8152600481018781526024820187905230606483018190526402540be4006084840181905260a060448501908152885160a4860152885195909716966338ed1739968b968b968b96939260c490910191878201910280838360005b8381101561276e578181015183820152602001612756565b505050509050019650505050505050600060405180830381600087803b15801561265857600080fd5b60007f00000000000000000000000000000000000000000000000000000000000000006001600160a01b03166370a08231306040518263ffffffff1660e01b815260040180826001600160a01b0316815260200191505060206040518083038186803b15801561280657600080fd5b505afa15801561281a573d6000803e3d6000fd5b505050506040513d602081101561283057600080fd5b5051905080156106ba576000807f00000000000000000000000000000000000000000000000000000000000000006001600160a01b031663da633d316040518163ffffffff1660e01b815260040160606040518083038186803b15801561289657600080fd5b505afa1580156128aa573d6000803e3d6000fd5b505050506040513d60608110156128c057600080fd5b5060208101516040909101519092509050600081158015906128ea57506001600160a01b03831615155b15612935576128ff612710610e6a8685611c5d565b90506129356001600160a01b037f00000000000000000000000000000000000000000000000000000000000000001684836119f9565b604080516370a0823160e01b815230600482015290516001600160a01b037f000000000000000000000000000000000000000000000000000000000000000016916370a08231916024808301926020929190829003018186803b15801561299b57600080fd5b505afa1580156129af573d6000803e3d6000fd5b505050506040513d60208110156129c557600080fd5b5051935050505090565b6129d7612d6a565b6000806129e2610c1b565b91509150816001600160a01b03166370a08231306040518263ffffffff1660e01b815260040180826001600160a01b0316815260200191505060206040518083038186803b158015612a3357600080fd5b505afa158015612a47573d6000803e3d6000fd5b505050506040513d6020811015612a5d57600080fd5b5051838260038110612a6b57fe5b6020020152604051634515cef360e01b81526001600160a01b037f00000000000000000000000000000000000000000000000000000000000000001690634515cef390859087906004018083606080838360005b83811015612ad7578181015183820152602001612abf565b5050505090500182815260200192505050600060405180830381600087803b158015612b0257600080fd5b505af11580156109c7573d6000803e3d6000fd5b612b1e612d88565b604080516370a0823160e01b815230600482015290516001600160a01b037f000000000000000000000000000000000000000000000000000000000000000016916370a08231916024808301926020929190829003018186803b158015612b8457600080fd5b505afa158015612b98573d6000803e3d6000fd5b505050506040513d6020811015612bae57600080fd5b5051602082015260408051630b4c7e4d60e01b81527f00000000000000000000000000000000000000000000000000000000000000006001600160a01b031691630b4c7e4d9184918691600401908190849080838360005b83811015612c1e578181015183820152602001612c06565b5050505090500182815260200192505050600060405180830381600087803b158015612c4957600080fd5b505af1158015612193573d6000803e3d6000fd5b3b151590565b60608315612c725750816119f2565b825115612c825782518084602001fd5b8160405162461bcd60e51b81526004018080602001828103825283818151815260200191508051906020019080838360005b83811015612ccc578181015183820152602001612cb4565b50505050905090810190601f168015612cf95780820380516001836020036101000a031916815260200191505b509250505060405180910390fd5b828054828255906000526020600020908101928215612d5a579160200282015b82811115612d5a5781546001600160a01b0319166001600160a01b03843516178255602090920191600190910190612d27565b50612d66929150612da6565b5090565b60405180606001604052806003906020820280368337509192915050565b60405180604001604052806002906020820280368337509192915050565b5b80821115612d665780546001600160a01b0319168155600101612da756fe416464726573733a20696e73756666696369656e742062616c616e636520666f722063616c6c536166654d6174683a206d756c7469706c69636174696f6e206f766572666c6f775361666545524332303a204552433230206f7065726174696f6e20646964206e6f7420737563636565645361666545524332303a20617070726f76652066726f6d206e6f6e2d7a65726f20746f206e6f6e2d7a65726f20616c6c6f77616e6365a2646970667358221220a927e56b76a039cdf40e52a58198d7c4f5f9267ad5445d6086e2815cd37ccf3b64736f6c634300060c0033416464726573733a20696e73756666696369656e742062616c616e636520666f722063616c6c5361666545524332303a204552433230206f7065726174696f6e20646964206e6f7420737563636565645361666545524332303a20617070726f76652066726f6d206e6f6e2d7a65726f20746f206e6f6e2d7a65726f20616c6c6f77616e6365",
  "devdoc": {
    "kind": "dev",
    "methods": {
      "approveForSpender(address,address,uint256)": {
        "params": {
          "_amount": "The amount to spend",
          "_spender": "The address of the spender",
          "_token": "The address of the token"
        }
      },
      "balanceOfPool()": {
        "details": "Must be implemented by the strategy"
      },
      "constructor": {
        "params": {
          "_controller": "The address of the controller",
          "_convexVault": "The address of the convex vault",
          "_crv3": "The address of 3CRV",
          "_crvethPool": "The address of crvEthPool",
          "_cvxethPool": "The address of cvxEthPool",
          "_manager": "The address of the manager",
          "_mim": "The address of MIM",
          "_name": "The strategy name",
          "_pid": "The pool id of convex",
          "_routerArray": "The address array of routers for swapping tokens",
          "_stableSwap2Pool": "The address of the stable swap pool",
          "_stableSwap3Pool": "The address of the 3CRV pool",
          "_want": "The desired token of the strategy",
          "_weth": "The address of WETH"
        }
      },
      "setDefaultRouter(uint256)": {
        "params": {
          "_routerIndex": "Gets the address of the router from routerArray"
        }
      },
      "setRouter(address[],address[])": {
        "params": {
          "_routerArray": "The addresses of routers",
          "_tokenArray": "The addresses of tokens that need to be approved by the strategy"
        }
      },
      "withdraw(address)": {
        "params": {
          "_asset": "The address of the token to withdraw"
        }
      },
      "withdraw(uint256)": {
        "params": {
          "_amount": "The amount of the want token to withdraw"
        }
      }
    },
    "version": 1
  },
  "userdoc": {
    "kind": "user",
    "methods": {
      "approveForSpender(address,address,uint256)": {
        "notice": "Approves a token address to be spent by an address"
      },
      "balanceOf()": {
        "notice": "Returns the strategy's balance of the want token plus the balance of pool"
      },
      "balanceOfPool()": {
        "notice": "Returns the balance of the pool"
      },
      "balanceOfWant()": {
        "notice": "Returns the balance of the want token on the strategy"
      },
      "deposit()": {
        "notice": "Deposits funds to the strategy's pool"
      },
      "harvest(uint256[])": {
        "notice": "Harvest funds in the strategy's pool"
      },
      "setDefaultRouter(uint256)": {
        "notice": "Sets the default ISwap-compatible router"
      },
      "setRouter(address[],address[])": {
        "notice": "Sets the address of the ISwap-compatible router"
      },
      "skim()": {
        "notice": "Sends stuck want tokens in the strategy to the controller"
      },
      "withdraw(address)": {
        "notice": "Sends stuck tokens in the strategy to the controller"
      },
      "withdraw(uint256)": {
        "notice": "Initiated from a vault, withdraws funds from the pool"
      },
      "withdrawAll()": {
        "notice": "Withdraws all funds from the strategy"
      }
    },
    "version": 1
  },
  "storageLayout": {
    "storage": [
      {
        "astId": 9697,
        "contract": "contracts/v3/strategies/MIMConvexStrategy.sol:MIMConvexStrategy",
        "label": "name",
        "offset": 0,
        "slot": "0",
        "type": "t_string_storage"
      },
      {
        "astId": 9700,
        "contract": "contracts/v3/strategies/MIMConvexStrategy.sol:MIMConvexStrategy",
        "label": "routerArray",
        "offset": 0,
        "slot": "1",
        "type": "t_array(t_address)dyn_storage"
      },
      {
        "astId": 9703,
        "contract": "contracts/v3/strategies/MIMConvexStrategy.sol:MIMConvexStrategy",
        "label": "router",
        "offset": 0,
        "slot": "2",
        "type": "t_contract(ISwap)8804"
      }
    ],
    "types": {
      "t_address": {
        "encoding": "inplace",
        "label": "address",
        "numberOfBytes": "20"
      },
      "t_array(t_address)dyn_storage": {
        "base": "t_address",
        "encoding": "dynamic_array",
        "label": "address[]",
        "numberOfBytes": "32"
      },
      "t_contract(ISwap)8804": {
        "encoding": "inplace",
        "label": "contract ISwap",
        "numberOfBytes": "20"
      },
      "t_string_storage": {
        "encoding": "bytes",
        "label": "string",
        "numberOfBytes": "32"
      }
    }
  }
}