{
  "address": "0x2941F68fe10c16C8d710F4C51De91a82d7e89BE2",
  "abi": [
    {
      "name": "Deposit",
      "inputs": [
        {
          "type": "address",
          "name": "provider",
          "indexed": true
        },
        {
          "type": "uint256",
          "name": "value",
          "indexed": false
        }
      ],
      "anonymous": false,
      "type": "event"
    },
    {
      "name": "Withdraw",
      "inputs": [
        {
          "type": "address",
          "name": "provider",
          "indexed": true
        },
        {
          "type": "uint256",
          "name": "value",
          "indexed": false
        }
      ],
      "anonymous": false,
      "type": "event"
    },
    {
      "name": "UpdateLiquidityLimit",
      "inputs": [
        {
          "type": "address",
          "name": "user",
          "indexed": false
        },
        {
          "type": "uint256",
          "name": "original_balance",
          "indexed": false
        },
        {
          "type": "uint256",
          "name": "original_supply",
          "indexed": false
        },
        {
          "type": "uint256",
          "name": "working_balance",
          "indexed": false
        },
        {
          "type": "uint256",
          "name": "working_supply",
          "indexed": false
        }
      ],
      "anonymous": false,
      "type": "event"
    },
    {
      "name": "CommitOwnership",
      "inputs": [
        {
          "type": "address",
          "name": "admin",
          "indexed": false
        }
      ],
      "anonymous": false,
      "type": "event"
    },
    {
      "name": "ApplyOwnership",
      "inputs": [
        {
          "type": "address",
          "name": "admin",
          "indexed": false
        }
      ],
      "anonymous": false,
      "type": "event"
    },
    {
      "name": "Transfer",
      "inputs": [
        {
          "type": "address",
          "name": "_from",
          "indexed": true
        },
        {
          "type": "address",
          "name": "_to",
          "indexed": true
        },
        {
          "type": "uint256",
          "name": "_value",
          "indexed": false
        }
      ],
      "anonymous": false,
      "type": "event"
    },
    {
      "name": "Approval",
      "inputs": [
        {
          "type": "address",
          "name": "_owner",
          "indexed": true
        },
        {
          "type": "address",
          "name": "_spender",
          "indexed": true
        },
        {
          "type": "uint256",
          "name": "_value",
          "indexed": false
        }
      ],
      "anonymous": false,
      "type": "event"
    },
    {
      "outputs": [],
      "inputs": [
        {
          "type": "address",
          "name": "_lp_token"
        },
        {
          "type": "address",
          "name": "_minter"
        },
        {
          "type": "address",
          "name": "_admin"
        },
        {
          "type": "address",
          "name": "_gaugeUsers"
        }
      ],
      "stateMutability": "nonpayable",
      "type": "constructor"
    },
    {
      "name": "decimals",
      "outputs": [
        {
          "type": "uint256",
          "name": ""
        }
      ],
      "inputs": [],
      "stateMutability": "view",
      "type": "function",
      "gas": 261
    },
    {
      "name": "integrate_checkpoint",
      "outputs": [
        {
          "type": "uint256",
          "name": ""
        }
      ],
      "inputs": [],
      "stateMutability": "view",
      "type": "function",
      "gas": 1997
    },
    {
      "name": "user_checkpoint",
      "outputs": [
        {
          "type": "bool",
          "name": ""
        }
      ],
      "inputs": [
        {
          "type": "address",
          "name": "addr"
        }
      ],
      "stateMutability": "nonpayable",
      "type": "function",
      "gas": 2070338
    },
    {
      "name": "claimable_tokens",
      "outputs": [
        {
          "type": "uint256",
          "name": ""
        }
      ],
      "inputs": [
        {
          "type": "address",
          "name": "addr"
        }
      ],
      "stateMutability": "nonpayable",
      "type": "function",
      "gas": 1989830
    },
    {
      "name": "claimable_reward",
      "outputs": [
        {
          "type": "uint256",
          "name": ""
        }
      ],
      "inputs": [
        {
          "type": "address",
          "name": "_addr"
        },
        {
          "type": "address",
          "name": "_token"
        }
      ],
      "stateMutability": "nonpayable",
      "type": "function",
      "gas": 1017930
    },
    {
      "name": "claim_rewards",
      "outputs": [],
      "inputs": [],
      "stateMutability": "nonpayable",
      "type": "function"
    },
    {
      "name": "claim_rewards",
      "outputs": [],
      "inputs": [
        {
          "type": "address",
          "name": "_addr"
        }
      ],
      "stateMutability": "nonpayable",
      "type": "function"
    },
    {
      "name": "claim_historic_rewards",
      "outputs": [],
      "inputs": [
        {
          "type": "address[8]",
          "name": "_reward_tokens"
        }
      ],
      "stateMutability": "nonpayable",
      "type": "function"
    },
    {
      "name": "claim_historic_rewards",
      "outputs": [],
      "inputs": [
        {
          "type": "address[8]",
          "name": "_reward_tokens"
        },
        {
          "type": "address",
          "name": "_addr"
        }
      ],
      "stateMutability": "nonpayable",
      "type": "function"
    },
    {
      "name": "kick",
      "outputs": [],
      "inputs": [
        {
          "type": "address",
          "name": "addr"
        }
      ],
      "stateMutability": "nonpayable",
      "type": "function",
      "gas": 2074713
    },
    {
      "name": "set_approve_deposit",
      "outputs": [],
      "inputs": [
        {
          "type": "address",
          "name": "addr"
        },
        {
          "type": "bool",
          "name": "can_deposit"
        }
      ],
      "stateMutability": "nonpayable",
      "type": "function",
      "gas": 35981
    },
    {
      "name": "deposit",
      "outputs": [],
      "inputs": [
        {
          "type": "uint256",
          "name": "_value"
        }
      ],
      "stateMutability": "nonpayable",
      "type": "function"
    },
    {
      "name": "deposit",
      "outputs": [],
      "inputs": [
        {
          "type": "uint256",
          "name": "_value"
        },
        {
          "type": "address",
          "name": "_addr"
        }
      ],
      "stateMutability": "nonpayable",
      "type": "function"
    },
    {
      "name": "withdraw",
      "outputs": [],
      "inputs": [
        {
          "type": "uint256",
          "name": "_value"
        }
      ],
      "stateMutability": "nonpayable",
      "type": "function",
      "gas": 3141937
    },
    {
      "name": "allowance",
      "outputs": [
        {
          "type": "uint256",
          "name": ""
        }
      ],
      "inputs": [
        {
          "type": "address",
          "name": "_owner"
        },
        {
          "type": "address",
          "name": "_spender"
        }
      ],
      "stateMutability": "view",
      "type": "function",
      "gas": 1911
    },
    {
      "name": "transfer",
      "outputs": [
        {
          "type": "bool",
          "name": ""
        }
      ],
      "inputs": [
        {
          "type": "address",
          "name": "_to"
        },
        {
          "type": "uint256",
          "name": "_value"
        }
      ],
      "stateMutability": "nonpayable",
      "type": "function",
      "gas": 12160044
    },
    {
      "name": "transferFrom",
      "outputs": [
        {
          "type": "bool",
          "name": ""
        }
      ],
      "inputs": [
        {
          "type": "address",
          "name": "_from"
        },
        {
          "type": "address",
          "name": "_to"
        },
        {
          "type": "uint256",
          "name": "_value"
        }
      ],
      "stateMutability": "nonpayable",
      "type": "function",
      "gas": 12196694
    },
    {
      "name": "approve",
      "outputs": [
        {
          "type": "bool",
          "name": ""
        }
      ],
      "inputs": [
        {
          "type": "address",
          "name": "_spender"
        },
        {
          "type": "uint256",
          "name": "_value"
        }
      ],
      "stateMutability": "nonpayable",
      "type": "function",
      "gas": 38244
    },
    {
      "name": "increaseAllowance",
      "outputs": [
        {
          "type": "bool",
          "name": ""
        }
      ],
      "inputs": [
        {
          "type": "address",
          "name": "_spender"
        },
        {
          "type": "uint256",
          "name": "_added_value"
        }
      ],
      "stateMutability": "nonpayable",
      "type": "function",
      "gas": 39488
    },
    {
      "name": "decreaseAllowance",
      "outputs": [
        {
          "type": "bool",
          "name": ""
        }
      ],
      "inputs": [
        {
          "type": "address",
          "name": "_spender"
        },
        {
          "type": "uint256",
          "name": "_subtracted_value"
        }
      ],
      "stateMutability": "nonpayable",
      "type": "function",
      "gas": 39512
    },
    {
      "name": "set_rewards",
      "outputs": [],
      "inputs": [
        {
          "type": "address",
          "name": "_reward_contract"
        },
        {
          "type": "bytes32",
          "name": "_sigs"
        },
        {
          "type": "address[8]",
          "name": "_reward_tokens"
        }
      ],
      "stateMutability": "nonpayable",
      "type": "function",
      "gas": 2304194
    },
    {
      "name": "set_killed",
      "outputs": [],
      "inputs": [
        {
          "type": "bool",
          "name": "_is_killed"
        }
      ],
      "stateMutability": "nonpayable",
      "type": "function",
      "gas": 36878
    },
    {
      "name": "commit_transfer_ownership",
      "outputs": [],
      "inputs": [
        {
          "type": "address",
          "name": "addr"
        }
      ],
      "stateMutability": "nonpayable",
      "type": "function",
      "gas": 38258
    },
    {
      "name": "accept_transfer_ownership",
      "outputs": [],
      "inputs": [],
      "stateMutability": "nonpayable",
      "type": "function",
      "gas": 38203
    },
    {
      "name": "gaugeUsers",
      "outputs": [
        {
          "type": "address",
          "name": ""
        }
      ],
      "inputs": [],
      "stateMutability": "view",
      "type": "function",
      "gas": 1811
    },
    {
      "name": "minter",
      "outputs": [
        {
          "type": "address",
          "name": ""
        }
      ],
      "inputs": [],
      "stateMutability": "view",
      "type": "function",
      "gas": 1841
    },
    {
      "name": "crv_token",
      "outputs": [
        {
          "type": "address",
          "name": ""
        }
      ],
      "inputs": [],
      "stateMutability": "view",
      "type": "function",
      "gas": 1871
    },
    {
      "name": "lp_token",
      "outputs": [
        {
          "type": "address",
          "name": ""
        }
      ],
      "inputs": [],
      "stateMutability": "view",
      "type": "function",
      "gas": 1901
    },
    {
      "name": "controller",
      "outputs": [
        {
          "type": "address",
          "name": ""
        }
      ],
      "inputs": [],
      "stateMutability": "view",
      "type": "function",
      "gas": 1931
    },
    {
      "name": "voting_escrow",
      "outputs": [
        {
          "type": "address",
          "name": ""
        }
      ],
      "inputs": [],
      "stateMutability": "view",
      "type": "function",
      "gas": 1961
    },
    {
      "name": "future_epoch_time",
      "outputs": [
        {
          "type": "uint256",
          "name": ""
        }
      ],
      "inputs": [],
      "stateMutability": "view",
      "type": "function",
      "gas": 1991
    },
    {
      "name": "balanceOf",
      "outputs": [
        {
          "type": "uint256",
          "name": ""
        }
      ],
      "inputs": [
        {
          "type": "address",
          "name": "arg0"
        }
      ],
      "stateMutability": "view",
      "type": "function",
      "gas": 2236
    },
    {
      "name": "totalSupply",
      "outputs": [
        {
          "type": "uint256",
          "name": ""
        }
      ],
      "inputs": [],
      "stateMutability": "view",
      "type": "function",
      "gas": 2051
    },
    {
      "name": "name",
      "outputs": [
        {
          "type": "string",
          "name": ""
        }
      ],
      "inputs": [],
      "stateMutability": "view",
      "type": "function",
      "gas": 8483
    },
    {
      "name": "symbol",
      "outputs": [
        {
          "type": "string",
          "name": ""
        }
      ],
      "inputs": [],
      "stateMutability": "view",
      "type": "function",
      "gas": 7536
    },
    {
      "name": "approved_to_deposit",
      "outputs": [
        {
          "type": "bool",
          "name": ""
        }
      ],
      "inputs": [
        {
          "type": "address",
          "name": "arg0"
        },
        {
          "type": "address",
          "name": "arg1"
        }
      ],
      "stateMutability": "view",
      "type": "function",
      "gas": 2571
    },
    {
      "name": "working_balances",
      "outputs": [
        {
          "type": "uint256",
          "name": ""
        }
      ],
      "inputs": [
        {
          "type": "address",
          "name": "arg0"
        }
      ],
      "stateMutability": "view",
      "type": "function",
      "gas": 2386
    },
    {
      "name": "working_supply",
      "outputs": [
        {
          "type": "uint256",
          "name": ""
        }
      ],
      "inputs": [],
      "stateMutability": "view",
      "type": "function",
      "gas": 2201
    },
    {
      "name": "period",
      "outputs": [
        {
          "type": "int128",
          "name": ""
        }
      ],
      "inputs": [],
      "stateMutability": "view",
      "type": "function",
      "gas": 2231
    },
    {
      "name": "period_timestamp",
      "outputs": [
        {
          "type": "uint256",
          "name": ""
        }
      ],
      "inputs": [
        {
          "type": "uint256",
          "name": "arg0"
        }
      ],
      "stateMutability": "view",
      "type": "function",
      "gas": 2370
    },
    {
      "name": "integrate_inv_supply",
      "outputs": [
        {
          "type": "uint256",
          "name": ""
        }
      ],
      "inputs": [
        {
          "type": "uint256",
          "name": "arg0"
        }
      ],
      "stateMutability": "view",
      "type": "function",
      "gas": 2400
    },
    {
      "name": "integrate_inv_supply_of",
      "outputs": [
        {
          "type": "uint256",
          "name": ""
        }
      ],
      "inputs": [
        {
          "type": "address",
          "name": "arg0"
        }
      ],
      "stateMutability": "view",
      "type": "function",
      "gas": 2536
    },
    {
      "name": "integrate_checkpoint_of",
      "outputs": [
        {
          "type": "uint256",
          "name": ""
        }
      ],
      "inputs": [
        {
          "type": "address",
          "name": "arg0"
        }
      ],
      "stateMutability": "view",
      "type": "function",
      "gas": 2566
    },
    {
      "name": "integrate_fraction",
      "outputs": [
        {
          "type": "uint256",
          "name": ""
        }
      ],
      "inputs": [
        {
          "type": "address",
          "name": "arg0"
        }
      ],
      "stateMutability": "view",
      "type": "function",
      "gas": 2596
    },
    {
      "name": "inflation_rate",
      "outputs": [
        {
          "type": "uint256",
          "name": ""
        }
      ],
      "inputs": [],
      "stateMutability": "view",
      "type": "function",
      "gas": 2411
    },
    {
      "name": "reward_contract",
      "outputs": [
        {
          "type": "address",
          "name": ""
        }
      ],
      "inputs": [],
      "stateMutability": "view",
      "type": "function",
      "gas": 2441
    },
    {
      "name": "reward_tokens",
      "outputs": [
        {
          "type": "address",
          "name": ""
        }
      ],
      "inputs": [
        {
          "type": "uint256",
          "name": "arg0"
        }
      ],
      "stateMutability": "view",
      "type": "function",
      "gas": 2580
    },
    {
      "name": "reward_integral",
      "outputs": [
        {
          "type": "uint256",
          "name": ""
        }
      ],
      "inputs": [
        {
          "type": "address",
          "name": "arg0"
        }
      ],
      "stateMutability": "view",
      "type": "function",
      "gas": 2716
    },
    {
      "name": "reward_integral_for",
      "outputs": [
        {
          "type": "uint256",
          "name": ""
        }
      ],
      "inputs": [
        {
          "type": "address",
          "name": "arg0"
        },
        {
          "type": "address",
          "name": "arg1"
        }
      ],
      "stateMutability": "view",
      "type": "function",
      "gas": 2961
    },
    {
      "name": "admin",
      "outputs": [
        {
          "type": "address",
          "name": ""
        }
      ],
      "inputs": [],
      "stateMutability": "view",
      "type": "function",
      "gas": 2561
    },
    {
      "name": "future_admin",
      "outputs": [
        {
          "type": "address",
          "name": ""
        }
      ],
      "inputs": [],
      "stateMutability": "view",
      "type": "function",
      "gas": 2591
    },
    {
      "name": "is_killed",
      "outputs": [
        {
          "type": "bool",
          "name": ""
        }
      ],
      "inputs": [],
      "stateMutability": "view",
      "type": "function",
      "gas": 2621
    }
  ],
  "transactionHash": "0x42bd3d1bfc17ace61edf7d81df34264abc93bd81f52518593366b22183a658a7",
  "args": [
    "0x3C2C88B0532f3C1f8d1F5dC348EC663ED0713448",
    "0x335aa59eFa4c8bA8B9ce36de18B19D088B180c21",
    "0xC18A4d1EE4a1D91bf9E6373Fc1270FE219111785",
    "0xc6c7A5659Bd02E7b797A462424d1B066f3F1c055"
  ],
  "numDeployments": 2,
  "bytecode": "0x608061382461014039602061382460c03960c05160a01c1561002057600080fd5b602060206138240160c03960c05160a01c1561003b57600080fd5b602060406138240160c03960c05160a01c1561005657600080fd5b602060606138240160c03960c05160a01c1561007157600080fd5b606061028060046395d89b416102205261023c610140515afa61009357600080fd5b603f3d116100a057600080fd5b601b610280610280510151106100b557600080fd5b6000506102a08051602001806101c08284600060045af16100d557600080fd5b505060006008610220527f4e756d69734d6520000000000000000000000000000000000000000000000000610240526102206008806020846102e001018260208501600060045af15050805182019150506101c0601a806020846102e001018260208501600060045af1505080518201915050600e610280527f204761756765204465706f7369740000000000000000000000000000000000006102a052610280600e806020846102e001018260208501600060045af1505080518201915050806102e0526102e0905080600a60c052602060c020602082510161012060006003818352015b826101205160200211156101ce576101f0565b61012051602002850151610120518501555b81516001018083528114156101bb575b50505050505060006101c0601a8060208461028001018260208501600060045af15050805182019150506006610220527f2d676175676500000000000000000000000000000000000000000000000000006102405261022060068060208461028001018260208501600060045af15050805182019150508061028052610280905080600b60c052602060c020602082510161012060006002818352015b826101205160200211156102a0576102c2565b61012051602002850151610120518501555b815160010180835281141561028d575b50505050505060206102a0600463fc0c546a6102405261025c610160515afa6102ea57600080fd5b601f3d116102f757600080fd5b6000506102a0516102205260206102c0600463f77c47916102605261027c610160515afa61032457600080fd5b601f3d1161033157600080fd5b6000506102c05161024052610140516003556101605160015561018051601b556101a051600055610220516002556102405160045560206102c0600463dfe050316102605261027c610240515afa61038857600080fd5b601f3d1161039557600080fd5b6000506102c05160055542601060c052602060c0205560206102c06004632c4e722e6102605261027c610220515afa6103cd57600080fd5b601f3d116103da57600080fd5b6000506102c05160155560206102c0600463b26b238e6102605261027c6000610220515af161040857600080fd5b601f3d1161041557600080fd5b6000506102c05160065561380c56341561000a57600080fd5b6004361015610018576133e2565b600035601c5263313ce567600051141561003957601260005260206000f350005b63d31f3f6d600051141561007a57600f546c01431e0fae6d7217caa0000000811061006357600080fd5b601060c052602060c020015460005260206000f350005b6000156102ad575b6101a0526101405261016052610180526005546101c052602061028060246370a0823161020052610140516102205261021c6101c0515afa6100c357600080fd5b601f3d116100d057600080fd5b600050610280516101e052602061028060046318160ddd6102205261023c6101c0515afa6100fd57600080fd5b601f3d1161010a57600080fd5b6000506102805161020052610160516028808202821582848304141761012f57600080fd5b809050905090506064808204905090506102205260006102005111156101cc576102208051610180516101e051808202821582848304141761017057600080fd5b8090509050905061020051808061018657600080fd5b820490509050603c80820282158284830414176101a257600080fd5b809050905090506064808204905090508181830110156101c157600080fd5b808201905090508152505b6101605161022051808211156101e257806101e4565b815b9050905061022052600d6101405160e05260c052604060c020546102405261022051600d6101405160e05260c052604060c02055600e546102205181818301101561022e57600080fd5b80820190509050610240518082101561024657600080fd5b808203905090506102605261026051600e556101405161028052610160516102a052610180516102c052610220516102e05261026051610300527f7ecd84343f76a23d2227290e0288da3251b045541698e575a5515af4f04197a360a0610280a16101a051565b6000156107e8575b6101805261014052610160526101605115156102d15761018051565b610200366101a0376103a060006008818352015b6103a051600881106102f657600080fd5b601760c052602060c02001546103c0526103c051151561031557610397565b6103c0516102a06103a0516008811061032d57600080fd5b6020020152602061046060246370a082316103e05230610400526103fc6103c0515afa61035957600080fd5b601f3d1161036657600080fd5b600050610460516101a06103a0516008811061038157600080fd5b60200201525b81516001018083528114156102e5575b505060086004602082066103a001602082840111156103b557600080fd5b60186103c06020840161012060006001818352015b826101205160200211156103dd576103ff565b61012051850154610120516020028501525b81516001018083528114156103ca575b5050505050818152809050905090508051602001806104208284600060045af161042857600080fd5b5050600060006104205161044060006016545af161044557600080fd5b60076101405160e05260c052604060c020546103a0526103c060006008818352015b6102a06103c0516008811061047b57600080fd5b60200201516103e0526103e0511515610493576107e0565b670de0b6b3a764000060206104a060246370a0823161042052306104405261043c6103e0515afa6104c357600080fd5b601f3d116104d057600080fd5b6000506104a0516101a06103c051600881106104eb57600080fd5b6020020151808210156104fd57600080fd5b80820390509050808202821582848304141761051857600080fd5b8090509050905061016051808061052e57600080fd5b8204905090506104005261014051151561058457600061040051181561057f5760196103e05160e05260c052604060c02080546104005181818301101561057457600080fd5b808201905090508155505b6107d0565b60196103e05160e05260c052604060c02054610400518181830110156105a957600080fd5b808201905090506104205260006104005118156105d7576104205160196103e05160e05260c052604060c020555b601a6103e05160e05260c052604060c0206101405160e05260c052604060c0205461044052610420516104405110156107cf576103a05161042051610440518082101561062357600080fd5b80820390509050808202821582848304141761063e57600080fd5b80905090509050670de0b6b3a7640000808204905090506104605261042051601a6103e05160e05260c052604060c0206101405160e05260c052604060c0205560006104605118156107ce57600060046104e0527fa9059cbb00000000000000000000000000000000000000000000000000000000610500526104e060048060208461054001018260208501600060045af15050805182019150506101405160208261054001015260208101905061046051602082610540010152602081019050806105405261054090508051602001806105e08284600060045af161072357600080fd5b505060206106a06105e05161060060006103e0515af161074257600080fd5b60203d808211156107535780610755565b815b90509050610680526106808051602001806104808284600060045af161077a57600080fd5b505060006104805118156107cd576104808060200151600082518060209013156107a357600080fd5b80919012156107b157600080fd5b806020036101000a820490509050905015156107cc57600080fd5b5b5b5b5b8151600101808352811415610467575b505061018051565b600015610dee575b6101605261014052600f5461018052610180516c01431e0fae6d7217caa0000000811061081c57600080fd5b601060c052602060c02001546101a052610180516c01431e0fae6d7217caa0000000811061084957600080fd5b601160c052602060c02001546101c0526015546101e0526101e05161020052600654610220526101a05161022051101515610902576002546102405260206102c0600463b26b238e6102605261027c6000610240515af16108a957600080fd5b601f3d116108b657600080fd5b6000506102c05160065560206102c06004632c4e722e6102605261027c610240515afa6108e257600080fd5b601f3d116108ef57600080fd5b6000506102c05161020052610200516015555b601d54156109115760006101e0525b6101a051421115610c9957600e546102405260045461026052610260513b61093857600080fd5b60006000602463615e523761028052306102a05261029c6000610260515af161096057600080fd5b6101a051610280526101a05162093a8081818301101561097f57600080fd5b8082019050905062093a808082049050905062093a8080820282158284830414176109a957600080fd5b8090509050905042808211156109bf57806109c1565b815b905090506102a0526102c060006101f4818352015b6102a05161028051808210156109eb57600080fd5b808203905090506102e05260206103c0604463d3078c946103205230610340526102805162093a808082049050905062093a808082028215828483041417610a3257600080fd5b809050905090506103605261033c610260515afa610a4f57600080fd5b601f3d11610a5c57600080fd5b6000506103c051610300526000610240511115610c36576102805161022051101515610a90576102a0516102205110610a93565b60005b15610bbf576101c080516101e051610300518082028215828483041417610ab957600080fd5b80905090509050610220516102805180821015610ad557600080fd5b808203905090508082028215828483041417610af057600080fd5b80905090509050610240518080610b0657600080fd5b820490509050818183011015610b1b57600080fd5b80820190509050815250610200516101e0526101c080516101e051610300518082028215828483041417610b4e57600080fd5b809050905090506102a0516102205180821015610b6a57600080fd5b808203905090508082028215828483041417610b8557600080fd5b80905090509050610240518080610b9b57600080fd5b820490509050818183011015610bb057600080fd5b80820190509050815250610c35565b6101c080516101e051610300518082028215828483041417610be057600080fd5b809050905090506102e0518082028215828483041417610bff57600080fd5b80905090509050610240518080610c1557600080fd5b820490509050818183011015610c2a57600080fd5b808201905090508152505b5b426102a0511415610c4657610c96565b6102a051610280526102a05162093a80818183011015610c6557600080fd5b808201905090504280821115610c7b5780610c7d565b815b905090506102a0525b81516001018083528114156109d6575b50505b6101808051600180820180806000811215610cb057195b607f1c15610cbd57600080fd5b90509050905081525061018051600f5542610180516c01431e0fae6d7217caa00000008110610ceb57600080fd5b601060c052602060c02001556101c051610180516c01431e0fae6d7217caa00000008110610d1857600080fd5b601160c052602060c0200155600d6101405160e05260c052604060c020546102405260146101405160e05260c052604060c0208054610240516101c05160126101405160e05260c052604060c0205480821015610d7457600080fd5b808203905090508082028215828483041417610d8f57600080fd5b80905090509050670de0b6b3a764000080820490509050818183011015610db557600080fd5b808201905090508155506101c05160126101405160e05260c052604060c020554260136101405160e05260c052604060c0205561016051565b634b8200936000511415610e9e5760043560a01c15610e0c57600080fd5b600435331415610e1d576001610e35565b600154331415610e2e576001610e34565b60005433145b5b5b610e3f57600080fd5b6004356101405261014051600658016107f0565b60005060043561014052600760043560e05260c052604060c02054610160526008546101805261018051610160516101405160065801610082565b600050600160005260206000f350005b63331345836000511415610f445760043560a01c15610ebc57600080fd5b6004356101405261014051600658016107f0565b600050601460043560e05260c052604060c0205460206101e06044638b752bb06101405260043561016052306101805261015c6001545afa610f1157600080fd5b601f3d11610f1e57600080fd5b6000506101e05180821015610f3257600080fd5b8082039050905060005260206000f350005b6333fd6f7460005114156111305762ffffff5415610f6157600080fd5b600162ffffff5560043560a01c15610f7857600080fd5b60243560a01c15610f8857600080fd5b60206101e060246370a08231610160526004356101805261017c6024355afa610fb057600080fd5b601f3d11610fbd57600080fd5b6000506101e0516101405260006016541815610ffe576101405160043561016052600854610180526101805161016051600658016102b5565b610140526000505b60206101e060246370a08231610160526004356101805261017c6024355afa61102657600080fd5b601f3d1161103357600080fd5b6000506101e051610140518082101561104b57600080fd5b8082039050905061014052601960243560e05260c052604060c0205461016052601a60243560e05260c052604060c02060043560e05260c052604060c020546101805261016051610180511015611113576101408051600760043560e05260c052604060c020546101605161018051808210156110c757600080fd5b8082039050905080820282158284830414176110e257600080fd5b80905090509050670de0b6b3a76400008082049050905081818301101561110857600080fd5b808201905090508152505b61014051600052600062ffffff5560206000f350600062ffffff55005b63e6f1daf2600051141561114857336101405261117e565b6384e9bd7e60005114156111765760043560a01c1561116657600080fd5b602060046101403760005061117e565b6000156111c8575b62ffffff541561118d57600080fd5b600162ffffff55610140516101405161016052600854610180526101805161016051600658016102b5565b61014052600050600062ffffff55005b63b9fa7a6960005114156111e0573361014052611218565b637a22ef676000511415611210576101043560a01c156111ff57600080fd5b602061010461014037600050611218565b6000156114bc575b62ffffff541561122757600080fd5b600162ffffff556000610120525b610120516004013560a01c1561124a57600080fd5b602061012051016101205261010061012051101561126757611235565b61018060006008818352015b602061018051026004013561016052610160511515611291576114b1565b60196101605160e05260c052604060c020546101a052601a6101605160e05260c052604060c0206101405160e05260c052604060c020546101c0526101a0516101c05110156114a05760076101405160e05260c052604060c020546101a0516101c0518082101561130157600080fd5b80820390509050808202821582848304141761131c57600080fd5b80905090509050670de0b6b3a7640000808204905090506101e0526101a051601a6101605160e05260c052604060c0206101405160e05260c052604060c0205560006004610260527fa9059cbb00000000000000000000000000000000000000000000000000000000610280526102606004806020846102c001018260208501600060045af1505080518201915050610140516020826102c00101526020810190506101e0516020826102c0010152602081019050806102c0526102c090508051602001806103608284600060045af16113f557600080fd5b50506020610420610360516103806000610160515af161141457600080fd5b60203d808211156114255780611427565b815b90509050610400526104008051602001806102008284600060045af161144c57600080fd5b5050600061020051181561149f5761020080602001516000825180602090131561147557600080fd5b809190121561148357600080fd5b806020036101000a8204905090509050151561149e57600080fd5b5b5b5b8151600101808352811415611273575b5050600062ffffff55005b6396c5517560005114156116c35760043560a01c156114da57600080fd5b60055461014052601360043560e05260c052604060c020546101605260206102e0604463da020a1861024052600435610260526020610220602463010ae7576101a0526004356101c0526101bc610140515afa61153657600080fd5b601f3d1161154357600080fd5b600050610220516102805261025c610140515afa61156057600080fd5b601f3d1161156d57600080fd5b6000506102e05161018052600760043560e05260c052604060c020546101a05260206102e060246370a08231610260526004356102805261027c6005545afa6115b557600080fd5b601f3d116115c257600080fd5b6000506102e05115156115d65760016115e0565b6101605161018051115b5b6115ea57600080fd5b6101a0516028808202821582848304141761160457600080fd5b80905090509050606480820490509050600d60043560e05260c052604060c020541161162f57600080fd5b6101405161016051610180516101a0516004356101c0526101c051600658016107f0565b6101a0526101805261016052610140526000506101405161016051610180516101a0516004356101c052600760043560e05260c052604060c020546101e05260085461020052610200516101e0516101c05160065801610082565b6101a052610180526101605261014052600050005b631d2747d460005114156117135760043560a01c156116e157600080fd5b60243560011c156116f157600080fd5b602435600c60043560e05260c052604060c0203360e05260c052604060c02055005b63b6b55f25600051141561172b573361014052611761565b636e553f6560005114156117595760243560a01c1561174957600080fd5b6020602461014037600050611761565b600015611bb5575b62ffffff541561177057600080fd5b600162ffffff55336101405118156117ec57600c3360e05260c052604060c0206101405160e05260c052604060c0205415156117eb576308c379a061016052602061018052600c6101a0527f4e6f7420617070726f76656400000000000000000000000000000000000000006101c0526101a050606461017cfd5b5b61014051610140516101605261016051600658016107f0565b6101405260005060006004351815611b46576016546101605260085461018052600061016051181561186e57610140516101605161018051610140516101a052610180516101c0526101c0516101a051600658016102b5565b6101805261016052610140526000505b610180805160043581818301101561188557600080fd5b8082019050905081525060076101405160e05260c052604060c020546004358181830110156118b357600080fd5b808201905090506101a0526101a05160076101405160e05260c052604060c02055610180516008556101405161016051610180516101a051610140516101c0526101a0516101e0526101805161020052610200516101e0516101c05160065801610082565b6101a052610180526101605261014052600050602061028060646323b872dd6101c052336101e0523061020052600435610220526101dc60006003545af161195f57600080fd5b601f3d1161196c57600080fd5b600050610280506020610260604463c72f7c386101c052306101e05233610200526101dc6000545afa61199e57600080fd5b601f3d116119ab57600080fd5b6000506102605115156119ed576000543b6119c557600080fd5b60006000602463421b2d8b61028052336102a05261029c60006000545af16119ec57600080fd5b5b6000610160511815611b455760006004602082066102200160208284011115611a1557600080fd5b60186102406020840161012060006001818352015b82610120516020021115611a3d57611a5f565b61012051850154610120516020028501525b8151600101808352811415611a2a575b5050505050818152809050905090508051602001806101c08284600060045af1611a8857600080fd5b505060006101c0806020015160008251806020901315611aa757600080fd5b8091901215611ab557600080fd5b806020036101000a82049050905090501815611b445760006101c060048060208461022001018260208501600060045af1505080518201915050600435602082610220010152602081019050806102205261022090508051602001806102a08284600060045af1611b2557600080fd5b5050600060006102a0516102c06000610160515af1611b4357600080fd5b5b5b5b60043561016052610140517fe1fffcc4923d04b559f4d29a8bfc6cda04eb5b0d3c460751c2402c5c5cc9109c6020610160a2600435610160526101405160007fddf252ad1be2c89b69c2b068fc378daa952ba7f163c4a11628f55a4df523b3ef6020610160a3600062ffffff55005b632e1a7d4d6000511415611ef25762ffffff5415611bd257600080fd5b600162ffffff55336101405261014051600658016107f0565b60005060006004351815611e895760165461014052600854610160526000610140511815611c455761014051610160513361018052610160516101a0526101a05161018051600658016102b5565b61016052610140526000505b610160805160043580821015611c5a57600080fd5b8082039050905081525060073360e05260c052604060c0205460043580821015611c8357600080fd5b80820390509050610180526101805160073360e05260c052604060c0205561016051600855610140516101605161018051336101a052610180516101c052610160516101e0526101e0516101c0516101a05160065801610082565b6101805261016052610140526000506000610140511815611e455760046004602082066102000160208284011115611d1557600080fd5b60186102206020840161012060006001818352015b82610120516020021115611d3d57611d5f565b61012051850154610120516020028501525b8151600101808352811415611d2a575b5050505050818152809050905090508051602001806101a08284600060045af1611d8857600080fd5b505060006101a0806020015160008251806020901315611da757600080fd5b8091901215611db557600080fd5b806020036101000a82049050905090501815611e445760006101a060048060208461020001018260208501600060045af1505080518201915050600435602082610200010152602081019050806102005261020090508051602001806102808284600060045af1611e2557600080fd5b505060006000610280516102a06000610140515af1611e4357600080fd5b5b5b6020610240604463a9059cbb6101a052336101c0526004356101e0526101bc60006003545af1611e7457600080fd5b601f3d11611e8157600080fd5b600050610240505b60043561014052337f884edad9ce6fa2440d8a54cc123490eb96d2768479d49ff9c7366125a94243646020610140a2600435610140526000337fddf252ad1be2c89b69c2b068fc378daa952ba7f163c4a11628f55a4df523b3ef6020610140a3600062ffffff55005b63dd62ed3e6000511415611f4a5760043560a01c15611f1057600080fd5b60243560a01c15611f2057600080fd5b600960043560e05260c052604060c02060243560e05260c052604060c0205460005260206000f350005b60001561224e575b6101a0526101405261016052610180526101405161016051610180516101a051610140516101c0526101c051600658016107f0565b6101a0526101805261016052610140526000506101405161016051610180516101a051610160516101c0526101c051600658016107f0565b6101a0526101805261016052610140526000506016546101c0526000610180511815612211576008546101e05260006101c051181561204d576101405161016051610180516101a0516101c0516101e05161014051610200526101e051610220526102205161020051600658016102b5565b6101e0526101c0526101a0526101805261016052610140526000505b60076101405160e05260c052604060c02054610180518082101561207057600080fd5b80820390509050610200526102005160076101405160e05260c052604060c020556101405161016051610180516101a0516101c0516101e05161020051610140516102205261020051610240526101e0516102605261026051610240516102205160065801610082565b610200526101e0526101c0526101a05261018052610160526101405260005060006101c0511815612162576101405161016051610180516101a0516101c0516101e0516102005161016051610220526101e051610240526102405161022051600658016102b5565b610200526101e0526101c0526101a0526101805261016052610140526000505b60076101605160e05260c052604060c020546101805181818301101561218757600080fd5b80820190509050610200526102005160076101605160e05260c052604060c020556101405161016051610180516101a0516101c0516101e05161020051610160516102205261020051610240526101e0516102605261026051610240516102205160065801610082565b610200526101e0526101c0526101a0526101805261016052610140526000505b610180516101e05261016051610140517fddf252ad1be2c89b69c2b068fc378daa952ba7f163c4a11628f55a4df523b3ef60206101e0a36101a051565b63a9059cbb60005114156122c85762ffffff541561226b57600080fd5b600162ffffff5560043560a01c1561228257600080fd5b3361014052600435610160526024356101805261018051610160516101405160065801611f52565b6000506001600052600062ffffff5560206000f350600062ffffff55005b6323b872dd60005114156123e15762ffffff54156122e557600080fd5b600162ffffff5560043560a01c156122fc57600080fd5b60243560a01c1561230c57600080fd5b600960043560e05260c052604060c0203360e05260c052604060c02054610140527fffffffffffffffffffffffffffffffffffffffffffffffffffffffffffffffff61014051181561239157610140516044358082101561236c57600080fd5b80820390509050600960043560e05260c052604060c0203360e05260c052604060c020555b6101405160043561016052602435610180526044356101a0526101a051610180516101605160065801611f52565b610140526000506001600052600062ffffff5560206000f350600062ffffff55005b63095ea7b3600051141561245e5760043560a01c156123ff57600080fd5b60243560093360e05260c052604060c02060043560e05260c052604060c0205560243561014052600435337f8c5be1e5ebec7d5bd14f71427d1e84f3dd0314c0f7b2291e5b200ac8c7c3b9256020610140a3600160005260206000f350005b633950935160005114156125175760043560a01c1561247c57600080fd5b60093360e05260c052604060c02060043560e05260c052604060c020546024358181830110156124ab57600080fd5b80820190509050610140526101405160093360e05260c052604060c02060043560e05260c052604060c020556101405161016052600435337f8c5be1e5ebec7d5bd14f71427d1e84f3dd0314c0f7b2291e5b200ac8c7c3b9256020610160a3600160005260206000f350005b63a457c2d760005114156125ce5760043560a01c1561253557600080fd5b60093360e05260c052604060c02060043560e05260c052604060c020546024358082101561256257600080fd5b80820390509050610140526101405160093360e05260c052604060c02060043560e05260c052604060c020556101405161016052600435337f8c5be1e5ebec7d5bd14f71427d1e84f3dd0314c0f7b2291e5b200ac8c7c3b9256020610160a3600160005260206000f350005b6347d2d5d36000511415612d365762ffffff54156125eb57600080fd5b600162ffffff5560043560a01c1561260257600080fd5b6000610120525b610120516044013560a01c1561261e57600080fd5b602061012051016101205261010061012051101561263b57612609565b601b54331461264957600080fd5b60035461014052601654610160526008546101805260006101605118156128445761014051610160516101805160006101a052610180516101c0526101c0516101a051600658016102b5565b610180526101605261014052600050600460046020820661020001602082840111156126c057600080fd5b60186102206020840161012060006001818352015b826101205160200211156126e85761270a565b61012051850154610120516020028501525b81516001018083528114156126d5575b5050505050818152809050905090508051602001806101a08284600060045af161273357600080fd5b505060006101a080602001516000825180602090131561275257600080fd5b809190121561276057600080fd5b806020036101000a820490509050905018156128435760006101805118156127fc5760006101a060048060208461020001018260208501600060045af150508051820191505061018051602082610200010152602081019050806102005261020090508051602001806102808284600060045af16127dd57600080fd5b505060006000610280516102a06000610160515af16127fb57600080fd5b5b60206102a0604463095ea7b361020052610160516102205260006102405261021c6000610140515af161282e57600080fd5b601f3d1161283b57600080fd5b6000506102a0505b5b60006004351815612c035760006004353b1161285f57600080fd5b6024356101a0526000600460208206610220016020828401111561288257600080fd5b602080610240826101a0600060045af15050818152809050905090508051602001806101c08284600060045af16128b857600080fd5b5050600460046020820661028001602082840111156128d657600080fd5b6020806102a0826101a0600060045af15050818152809050905090508051602001806102208284600060045af161290c57600080fd5b505060006101c080602001516000825180602090131561292b57600080fd5b809190121561293957600080fd5b806020036101000a82049050905090501815612bbe576000610180511861295f57600080fd5b6020610320604463095ea7b3610280526004356102a0527fffffffffffffffffffffffffffffffffffffffffffffffffffffffffffffffff6102c05261029c6000610140515af16129af57600080fd5b601f3d116129bc57600080fd5b6000506103205060006101c060048060208461028001018260208501600060045af150508051820191505061018051602082610280010152602081019050806102805261028090508051602001806103008284600060045af1612a1e57600080fd5b5050600060006103005161032060006004355af1612a3b57600080fd5b602061030060246370a0823161028052306102a05261029c610140515afa612a6257600080fd5b601f3d11612a6f57600080fd5b6000506103005115612a8057600080fd5b600061022060048060208461028001018260208501600060045af150508051820191505061018051602082610280010152602081019050806102805261028090508051602001806103008284600060045af1612adb57600080fd5b5050600060006103005161032060006004355af1612af857600080fd5b61018051602061030060246370a0823161028052306102a05261029c610140515afa612b2357600080fd5b601f3d11612b3057600080fd5b6000506103005114612b4157600080fd5b60006101c060048060208461028001018260208501600060045af150508051820191505061018051602082610280010152602081019050806102805261028090508051602001806103008284600060045af1612b9c57600080fd5b5050600060006103005161032060006004355af1612bb957600080fd5b612c02565b610220806020015160008251806020901315612bd957600080fd5b8091901215612be757600080fd5b806020036101000a820490509050905015612c0157600080fd5b5b5b6004356016556024356018556101a060006008818352015b600060446101a05160088110612c3057600080fd5b60200201351815612c755760446101a05160088110612c4e57600080fd5b60200201356101a05160088110612c6457600080fd5b601760c052602060c0200155612cd4565b60006101a05160088110612c8857600080fd5b601760c052602060c02001541815612cbe5760006101a05160088110612cad57600080fd5b601760c052602060c0200155612cd3565b60006101a05118612cce57600080fd5b612ce5565b5b5b8151600101808352811415612c1b575b505060006004351815612d2d5761014051610160516101805160006101a052610180516101c0526101c0516101a051600658016102b5565b6101805261016052610140526000505b600062ffffff55005b6390b229976000511415612d6a5760043560011c15612d5457600080fd5b601b543314612d6257600080fd5b600435601d55005b636b441a406000511415612dcc5760043560a01c15612d8857600080fd5b601b543314612d9657600080fd5b600435601c55600435610140527f2f56810a6bf40af059b96d3aea4db54081f378029a518390491093a7b67032e96020610140a1005b63e5ea47b86000511415612e2857601c5461014052610140513314612df057600080fd5b61014051601b5561014051610160527febee2d5739011062cb4f14113f3b36bf0ffe3da5c0568f64189d1012a11891056020610160a1005b63f5af27496000511415612e445760005460005260206000f350005b63075461726000511415612e605760015460005260206000f350005b6376d8b1176000511415612e7c5760025460005260206000f350005b6382c630666000511415612e985760035460005260206000f350005b63f77c47916000511415612eb45760045460005260206000f350005b63dfe050316000511415612ed05760055460005260206000f350005b63be5d1be96000511415612eec5760065460005260206000f350005b6370a082316000511415612f265760043560a01c15612f0a57600080fd5b600760043560e05260c052604060c0205460005260206000f350005b6318160ddd6000511415612f425760085460005260206000f350005b6306fdde036000511415612feb57600a8060c052602060c020610180602082540161012060006003818352015b82610120516020021115612f8257612fa4565b61012051850154610120516020028501525b8151600101808352811415612f6f575b50505050505061018051806101a001818260206001820306601f82010390500336823750506020610160526040610180510160206001820306601f8201039050610160f350005b6395d89b41600051141561309457600b8060c052602060c020610180602082540161012060006002818352015b8261012051602002111561302b5761304d565b61012051850154610120516020028501525b8151600101808352811415613018575b50505050505061018051806101a001818260206001820306601f82010390500336823750506020610160526040610180510160206001820306601f8201039050610160f350005b63e152253660005114156130ec5760043560a01c156130b257600080fd5b60243560a01c156130c257600080fd5b600c60043560e05260c052604060c02060243560e05260c052604060c0205460005260206000f350005b6313ecb1ca60005114156131265760043560a01c1561310a57600080fd5b600d60043560e05260c052604060c0205460005260206000f350005b6317e28089600051141561314257600e5460005260206000f350005b63ef78d4fd600051141561315e57600f5460005260206000f350005b637598108c600051141561319f576004356c01431e0fae6d7217caa0000000811061318857600080fd5b601060c052602060c020015460005260206000f350005b63fec8ee0c60005114156131e0576004356c01431e0fae6d7217caa000000081106131c957600080fd5b601160c052602060c020015460005260206000f350005b63de263bfa600051141561321a5760043560a01c156131fe57600080fd5b601260043560e05260c052604060c0205460005260206000f350005b639bd324f260005114156132545760043560a01c1561323857600080fd5b601360043560e05260c052604060c0205460005260206000f350005b6309400707600051141561328e5760043560a01c1561327257600080fd5b601460043560e05260c052604060c0205460005260206000f350005b63180692d060005114156132aa5760155460005260206000f350005b63bf88a6ff60005114156132c65760165460005260206000f350005b6354c49fe960005114156132fb57600435600881106132e457600080fd5b601760c052602060c020015460005260206000f350005b6373861fb360005114156133355760043560a01c1561331957600080fd5b601960043560e05260c052604060c0205460005260206000f350005b63f05cc058600051141561338d5760043560a01c1561335357600080fd5b60243560a01c1561336357600080fd5b601a60043560e05260c052604060c02060243560e05260c052604060c0205460005260206000f350005b63f851a44060005114156133a957601b5460005260206000f350005b6317f7182a60005114156133c557601c5460005260206000f350005b639c868ac060005114156133e157601d5460005260206000f350005b5b60006000fd5b61042461380c0361042460003961042461380c036000f3"
}